:020000040800F2
:1000000030080020D5010008DD010008DF010008EC
:10001000E1010008E3010008E5010008000000001C
:10002000000000000000000000000000E7010008E0
:10003000E901000800000000EB010008ED010008E4
:10004000EF010008EF010008EF010008EF010008D0
:10005000EF010008EF010008EF010008EF010008C0
:10006000EF010008EF010008EF010008EF010008B0
:10007000EF010008EF010008EF010008EF010008A0
:10008000EF010008EF010008EF010008EF01000890
:10009000EF010008EF010008EF010008EF01000880
:1000A000EF010008EF010008EF010008EF01000870
:1000B000EF010008930B0008EF010008EF010008B2
:1000C000EF010008EF010008EF010008EF01000850
:1000D000EF010008F7060008EF010008EF01000833
:1000E000EF010008EF010008EF010008EF01000830
:1000F000EF010008EF010008EF010008EF01000820
:10010000EF010008EF010008EF010008EF0100080F
:10011000EF010008EF010008EF010008EF010008FF
:10012000EF010008EF010008EF010008EF010008EF
:1001300000F002F800F03FF80AA090E8000C8244BA
:100140008344AAF10107DA4501D100F034F8AFF297
:10015000090EBAE80F0013F0010F18BFFB1A43F0A5
:1001600001031847582F0000782F0000103A24BFD1
:1001700078C878C1FAD8520724BF30C830C144BF0C
:1001800004680C607047000000230024002500264E
:10019000103A28BF78C1FBD8520728BF30C148BFEA
:1001A0000B607047642902F08586002070471FB5F8
:1001B0001FBD10B510BD02F04BFF1146FFF7F7FF52
:1001C00000F018F902F069FF03B4FFF7F2FF03BC77
:1001D00000F038FA0948804709480047FEE7FEE783
:1001E000FEE7FEE7FEE7FEE7FEE7FEE7FEE7FEE7E7
:1001F00004480549054A064B70470000F302000811
:1002000031010008300200203008002030040020B6
:10021000300400200CB50020019000906C4800686C
:1002200040F480306A49086000BF6948006800F403
:10023000003000900198401C0190009818B9019876
:10024000B0F5A06FF1D16248006800F4003010B141
:100250000120009001E0002000900098012843D187
:100260005C48006840F010005A4908600846006881
:1002700020F0030008600846006840F002000860B3
:1002800053484068524948600846406848600846FC
:10029000406840F4806048600846406820F47C1064
:1002A00048600846406840F4E81048600846006826
:1002B00040F08070086000BF4548006800F00070A2
:1002C0000028F9D04248406820F0030040494860C7
:1002D0000846406840F00200486000BF3C48406863
:1002E00000F00C000828F9D10CBD10B5FFF792FF03
:1002F00010BD10B53648006840F001003449086070
:10030000084640683449084031494860084600685A
:10031000324908402E4908600846006820F48020D1
:1003200008600846406820F4FE0048604FF41F0053
:100330008860FFF7DAFF4FF000602949086010BDC0
:1003400010B5002100200022214B5B6803F00C0156
:1003500021B1042906D0082928D107E0214B224CDD
:10036000236027E01F4B204C236023E0184B5B6881
:1003700003F47010164B5B6803F48032022303EB26
:10038000904022B9194B4343174C23600DE0104BAA
:100390005B6803F4003323B1144B4343124C2360D6
:1003A00003E0104B4343104C236003E00D4B0E4C15
:1003B000236000BF00BF064B5B68C3F303130C4C04
:1003C000E15C094B1B68CB40074C236010BD00006B
:1003D00000100240002002400000FFF8FFFFF6FE80
:1003E00008ED00E000127A000000002000093D0046
:1003F00004000020A6B000260127B146B0464FF405
:10040000165000F024FA50A002F000FD482000F041
:10041000B5F800F0D3FB00F03BFC4FF4A06000F017
:10042000A3FC00F073FA932301AA4A494A4800F05A
:1004300045FB4AA002F0EAFC93208DF80400FA2064
:100440008DF805007EE08DF8069009F1010000F0BE
:10045000FF09002517E0002411E04448805DB84200
:1004600009D1434830F81600424901EB051121F843
:100470001400701CC6B2781CC7B2601CC4B2082C31
:10048000EBDB681CC5B2092DE5DB00252CE0002460
:1004900026E0384800EB051030F81400C0F30711CF
:1004A0006000C01C102202FB050001AA1154314853
:1004B00000EB051010F814000007010E6000C01CCE
:1004C000102202FB0500401C01AA115400202949FA
:1004D00001EB051121F8140000260127601CC4B2AD
:1004E000082CD6DB681CC5B2092DD0DB0122802187
:1004F0001848001F00F0A6FD174800F008FB07E0B1
:10050000202002F047F818B1202002F057F800E050
:10051000F6E700BFC82000F04BF8B8F1000F01D19A
:10052000012000E000208046B8F1000F05D04FF414
:100530008051114801F0A5FE04E04FF480510E48AF
:1005400001F0A1FE7FE700003131343531340D0A6E
:1005500000000000044800401C0002405465737411
:100560002073756363657373210D0A00B43000084E
:100570009001002038000020000C014010B5044616
:100580006FF0040000F03FFCE11704EB5171C1F380
:10059000C7012A4A11701046007800EB4001C1EBF8
:1005A000C0104FF6FF7101EAC0002549088010BD58
:1005B0000146234A12884A434FF0E0235A61002241
:1005C0009A6101221A6100BF4FF0E022106900F029
:1005D00001021AB100F48032002AF5D000224FF057
:1005E000E0231A619A6170470146144A12784A431F
:1005F0004FF0E0235A6100229A6101221A6100BF84
:100600004FF0E022106900F001021AB100F48032CC
:10061000002AF5D000224FF0E0231A619A6170475A
:1006200030B50446002505E04FF47A70FFF7C0FFAF
:10063000681CC5B2A542F7DB30BD000014000020E5
:100640001600002000BF704700BFA94A128802F0C0
:100650004002002AF9D0C2B2A54B1B1D1A80704778
:1006600010B586B00446012144F2040002F042F9BC
:100670004FF40070ADF8140003208DF81600182018
:100680008DF8170005A99B4801F04EFD4FF48060DE
:10069000ADF8140004208DF8170005A9954801F065
:1006A00043FD25208DF8000001208DF801008DF814
:1006B00002008DF80300684600F05BFB0194002007
:1006C000ADF80800ADF80A00ADF80C00ADF8100068
:1006D0000C20ADF80E0001A9874800F0F6FB0122BE
:1006E00040F22551844800F088FC0121824800F046
:1006F00078FC06B010BD10B540F225517E4800F0E0
:1007000061FD10B37C4800F0DDFCC4B27B4800887A
:1007100000F40040C8B97948008800F4804060B116
:100720000A2C03D000207549088020E07348008817
:1007300040F400407149088019E00D2C06D16F4843
:10074000008840F480406D49088010E06B480088C4
:10075000C0F30D006A490C5468480088401C674982
:10076000088008460088C72801DD0020088010BDE9
:1007700010B586B004460121480402F0C8F80121F2
:10078000042002F0B7F80420ADF8140003208DF81F
:10079000160018208DF8170005A9564801F0C4FC72
:1007A0000820ADF8140004208DF8170005A9514861
:1007B00001F0BAFC26208DF8000003208DF801001E
:1007C00002208DF8020001208DF80300684600F039
:1007D000D0FA01940020ADF80800ADF80A00ADF899
:1007E0000C00ADF810000C20ADF80E0001A9454832
:1007F00000F06BFB012240F22551424800F0FDFB66
:100800000121404800F0EDFB80213E4800F0D1FC82
:1008100040213C4800F0CDFC06B010BD70B5054647
:1008200000244021374800F0C4FC00BF0CE0295DE3
:10083000344800F043FC00BF4021324800F0ACFCDB
:100840000128F9D1601CC4B2632CF0DB70BD10B577
:1008500086B004460121880402F059F801210820DD
:1008600002F048F84FF48060ADF8140003208DF8D2
:10087000160018208DF8170005A9234801F054FC34
:100880004FF40060ADF8140004208DF8170005A99E
:100890001D4801F049FC27208DF8000003208DF849
:1008A00001008DF8020001208DF80300684600F079
:1008B00060FA01940020ADF80800ADF80A00ADF828
:1008C0000C00ADF810000C20ADF80E0001A908488E
:1008D00000F0FBFA0121064800F083FB8021044868
:1008E00000F067FC4021024800F063FC06B010BD38
:1008F0000048004000080140003801401C00002072
:10090000C800002000440040000C014000B591B038
:1009100001214FF4017001F0EDFF0121084601F0C3
:10092000DCFF614801F04EFD604800906048019096
:100930000020029009200390002004908020059060
:100940004000069080000790202008900002099047
:1009500000200A906946544801F0D6FD0121524812
:1009600001F0FDFD4FF4004001F028FFFF20ADF83D
:100970002C0000208DF82F000BA94E4801F0D4FB6D
:100980000320ADF82C0000208DF82F000BA94A4859
:1009900001F0CAFB45484C3802F010F800200C90DA
:1009A00001208DF834008DF835004FF460200E9052
:1009B00000200F9009208DF840000CA93B484C38CE
:1009C00002F023F8012139484C3802F04AF8052397
:1009D0000122002135484C3802F0AFF805230222ED
:1009E000012132484C3802F0A8F8052303220221E5
:1009F0002E484C3802F0A1F80523042203212B488D
:100A00004C3802F09AF805231A46042127484C383E
:100A100002F093F805230622194624484C3802F0C8
:100A20008CF805230722062120484C3802F085F86F
:100A30000523082207211D484C3802F07EF80523C3
:100A40000922082119484C3802F077F805230A22B8
:100A5000092116484C3802F070F8012113484C382F
:100A600002F00AF8012111484C3801F0FAFF0F4852
:100A70004C3802F018F800BF0C484C3802F018F857
:100A80000028F9D109484C3802F01CF800BF07488B
:100A90004C3802F01CF80028F9D1012103484C38E9
:100AA00002F01FF811B000BD080002404C240140C4
:100AB0009001002000080140000C01402DE9F041A8
:100AC00007460D4616461C460121084601F005FF63
:100AD000384601F077FC16480480164805604660E9
:100AE0001020144988600846C460002008618020F6
:100AF000486100208861C86108624FF480504862F4
:100B000000208862384601F0FFFCBDE8F08110B596
:100B100004460021204601F022FD054801882046B8
:100B200001F032FD0121204601F019FD10BD000049
:100B30001E000020A40100207FB505460C460121BF
:100B4000022001F0E4FEADF80850ADF804400020AA
:100B5000ADF80A00ADF8060001A9164800F04AFCFD
:100B600001221146134800F0BCFF1D208DF8000043
:100B700000208DF8010003208DF8020001208DF87F
:100B80000300684600F0F5F800210A4800F08EFFE7
:100B90007FBD10B50121074801F051FA40B1012194
:100BA000044801F05DFA04480088401C02490880AE
:100BB00010BD0000000400402000002008B5012105
:100BC000082001F097FE4FF48050ADF8000010208F
:100BD0008DF8030003208DF802006946584801F0A3
:100BE000A3FA4FF48051564801F04BFB08BD08B5FD
:100BF0000121402001F07EFE1020ADF800004820C9
:100C00008DF8030069464F4801F08EFA08BD08B51B
:100C100001210D2001F06EFE01214B4801F055FB32
:100C20003820ADF8000010208DF8030003208DF867
:100C300002006946424801F077FA4FF4E060ADF8EF
:100C400000006946414801F06FFA08BD00F001015B
:100C50003F4A116000F0020149103E4AC2F8A41157
:100C600000F0040189103A4A08321160704700F020
:100C70000101394A116000F002014910374AC2F8F7
:100C8000901100F004018910334A08321160704756
:100C900010B54FF480512A4801F0F5FA3220FFF7E1
:100CA00087FC4FF48051264801F0EBFA3220FFF721
:100CB0007FFC10BD08B50121042001F01BFE4FF49C
:100CC0000060ADF8000028208DF8030003208DF8A7
:100CD000020069461D4801F027FA4FF44070ADF854
:100CE00000006946164801F01FFA08BDFEB5002550
:100CF00000241DE02046FFF7A9FF0120FFF758FC64
:100D00004FF40061114801F0A2FAA0402843C5B297
:100D10004FF400610D4801F09AFA0646324610A1E0
:100D2000684602F07FF8684602F070F8601CC4B2B2
:100D3000082CDFDB0BA002F069F82846FEBD00009E
:100D4000000C014000180140000230000008014082
:100D5000A0012142000021428C81214200802142D9
:100D6000256400000D0A000031490143314A116039
:100D7000704770B5002100230F22C47804B32D4CB6
:100D8000246804F4E064C4F5E064210AC1F10403BA
:100D9000CA40447804FA03F18478144021430901DD
:100DA000254C0678A155047804F01F050124AC40B9
:100DB00005786D11AD0005F1E025C5F8004109E0A9
:100DC000047804F01F050124AC401C4D0678761110
:100DD00045F8264070BD1A4A0A400243154B1B1FB6
:100DE0001A60704739B1134A121D12680243114B41
:100DF0001B1D1A6006E00F4A121D126882430D4B3C
:100E00001B1D1A607047042808D14FF0E0210969C2
:100E100041F004014FF0E022116107E04FF0E021C2
:100E2000096921F004014FF0E022116170470000D0
:100E30000000FA050CED00E000E400E080E100E0D5
:100E400080FFFF1F10B50446FB48844209D10121F1
:100E5000880301F069FD00214FF4804001F064FD3A
:100E600032E0F648844209D10121480401F069FDCD
:100E700000214FF4003001F064FD25E0F048844289
:100E800009D10121880401F05CFD00214FF480208C
:100E900001F057FD18E0EB48844209D10121C80454
:100EA00001F04FFD00214FF4002001F04AFD0BE05E
:100EB000E548844208D10121080501F042FD0021E6
:100EC0004FF4801001F03DFD10BD2DE9F04786B0D4
:100ED00005460E460024A24600BFA1460027B08961
:100EE00000B100BF2F462C8A4CF6FF700440F088FA
:100EF00004432C82AC894EF6F3100440B08831894B
:100F00000843718908430443AC81AC8A4FF6FF4023
:100F10000440B0890443AC8201A801F07EFCC648BD
:100F2000874202D1DDF810A001E0DDF80CA0A8890D
:100F300000F4004040B10AEBCA0000EB0A1031682F
:100F40004900B0FBF1F807E00AEBCA0000EB0A1019
:100F500031688900B0FBF1F86420B8FBF0F00401BF
:100F60002009642101FB1089A88900F4004040B1E8
:100F7000322000EBC900B0FBF1F000F007000443A1
:100F800008E0322000EB09106421B0FBF1F000F022
:100F90000F0004432C8106B0BDE8F0874FF41651D2
:100FA000016000218180C18001810C2141810021EB
:100FB0008181704710B502460020108A4FF2FF036E
:100FC00018400B884C8823438C882343CC882343C8
:100FD0001843108210BD0021018041808180C180B2
:100FE000704721B1828942F40052828104E08289F3
:100FF0004DF6FF731A4082817047F0B50346002416
:1010000000260025002040F66A17B94200D100BF33
:101010001846C1F3421401F01F06012707FA06F52E
:10102000012C01D10C3004E0022C01D1103000E081
:1010300014301AB107682F43076002E00768AF4316
:101040000760F0BD1AB1838A0B43838202E0838A72
:101050008B4383827047028A4FF6F0731A400282F4
:10106000028A0A430282704782894FF2FF731A4054
:10107000828182890A438281704721B1828942F04C
:101080000202828104E082894FF6FD731A40828158
:101090007047028A4FF6DF731A400282028A0A43BF
:1010A0000282704721B1028A42F48042028204E047
:1010B000028A4BF6FF731A4002827047C1F308029E
:1010C0008280704701468888C0F308007047818994
:1010D00041F0010181817047028BD2B20283028B01
:1010E00042EA012202837047028B02F47F420283AC
:1010F000028B0A430283704721B1828A42F02002A8
:10110000828204E0828A4FF6DF731A40828270473F
:1011100021B1828A42F01002828204E0828A4FF674
:10112000EF731A408282704721B1828A42F008022E
:10113000828204E0828A4FF6F7731A4082827047F7
:1011400021B1828942F40042828103E08289C2F3A4
:101150000E028281704721B1828A42F4006282824B
:1011600004E0828A4FF2FF731A4082827047828ABB
:101170004FF6FB731A408282828A0A43828270474A
:1011800021B1828A42F00202828204E0828A4FF612
:10119000FD731A408282704702460020B1F5007F3D
:1011A00000D100BF13880B400BB1012000E00020EC
:1011B000704701F40072B2F5007F00D100BFCA434E
:1011C0000280704770B502460024002300250020ED
:1011D00040F66A16B14200D100BFC1F3421501F0DA
:1011E0001F03012606FA03F3012D02D1968933402D
:1011F00006E0022D02D1168A334001E0968A334080
:101200000C12012606FA04F41688344013B10CB10E
:10121000012000E0002070BD10B50022002340F640
:101220006A14A14200D100BF0A1201249440A3B263
:10123000DC43048010BD0000003801400044004041
:1012400000480040004C00400050004010B50446EB
:10125000FE48844208D10121C01401F065FB002141
:10126000E01401F061FBC4E0B4F1804F08D101212A
:10127000084601F066FB0021012001F062FBB8E0A6
:10128000F348844208D10121022001F05AFB0021D9
:10129000022001F056FBACE0EE48844208D1012167
:1012A000042001F04EFB0021042001F04AFBA0E0E5
:1012B000E948844208D10121082001F042FB0021C5
:1012C000082001F03EFB94E0E448844208D101216B
:1012D000102001F036FB0021102001F032FB88E0E5
:1012E000DF48844208D10121202001F02AFB00219F
:1012F000202001F026FB7CE0DA48844208D101215D
:10130000401401F011FB0021601401F00DFB70E0AE
:10131000D548844209D10121C80401F005FB002110
:101320004FF4002001F000FB63E0D048844209D173
:101330000121080501F0F8FA00214FF4801001F0B6
:10134000F3FA56E0CA48844209D10121480501F068
:10135000EBFA00214FF4001001F0E6FA49E0C5482D
:10136000844208D10121402001F0EBFA0021402005
:1013700001F0E7FA3DE0C048844208D10121802015
:1013800001F0DFFA0021802001F0DBFA31E0BB48F8
:10139000844208D10121801501F0D3FA0021A01563
:1013A00001F0CFFA25E0B648844209D101210804B2
:1013B00001F0BAFA00214FF4803001F0B5FA18E0DC
:1013C000B048844209D10121480401F0ADFA00215E
:1013D0004FF4003001F0A8FA0BE0AB48844208D18A
:1013E0000121880401F0A0FA00214FF4802001F0CF
:1013F0009BFA10BD00220288944B98420ED0994B64
:1014000098420BD0B0F1804F08D0914B984205D054
:10141000904B984202D0904B984204D14FF68F7374
:101420001A404B881A438D4B984207D08C4B9842F8
:1014300004D04FF6FF431A40CB881A4302808B88B2
:1014400083850B880385814B98420BD0854B98424E
:1014500008D08B4B984205D08A4B984202D08A4BD9
:10146000984201D10B7A038601238382704770B5BD
:10147000002400220023058C4FF6FE7635400584BB
:10148000028C8388048B4FF68F752C40B51E2C4040
:101490000D882C43751E2A400D892A434D882A4306
:1014A0006A4DA8420BD06F4DA84208D0744DA84297
:1014B00005D0744DA84202D0734DA84213D14FF607
:1014C000F7752A404D892A434FF6FB752A408D88CF
:1014D0002A434FF6FF652B404FF6FF552B408D8971
:1014E0002B43CD892B4383800483CD88858602845A
:1014F00070BD70B5002400220023058C4FF6EF76F6
:1015000035400584028C8388048B48F6FF752C4097
:101510004FF6FF452C400D884FF6FF7606EA05256D
:101520002C434FF6DF752A400D8906EA05152A433C
:101530004D8806EA05152A43444DA84202D0494D7C
:10154000A8421DD14FF67F752A404D894FF6FF7690
:1015500006EA05152A434FF6BF752A408D8806EA2C
:1015600005152A434FF6FF352B404FF2FF752B40F0
:101570008D8906EA85052B43CD8906EA85052B432F
:1015800083800483CD880587028470BD70B50024F4
:1015900000220023058C4FF6FF6635400584028C3F
:1015A0008388848B4FF68F752C404FF6FC752C404A
:1015B0000D882C434FF6FF552A400D894FF6FF76D4
:1015C00006EA05252A434D8806EA05252A431F4DCC
:1015D000A84202D0234DA8421DD14FF2FF752A40E8
:1015E0004D894FF6FF7606EA05252A434FF6FF356B
:1015F0002A408D8806EA05252A434EF6FF752B40C2
:101600004DF6FF752B408D8906EA05152B43CD89D4
:1016100006EA05152B4383808483CD888587028461
:1016200070BD70B5002200230024058C4EF6FF76B5
:1016300035400584038C8488828B48F6FF752A40E8
:101640004FF6FF452A400D8820E00000002C0140A5
:101650000004004000080040000C00400010004062
:101660000014004000340140004C01400050014093
:101670000054014000180040001C004000200040C1
:101680000040014000440140004801404FF6FF7611
:1016900006EA05252A434DF6FF752B400D8906EA1B
:1016A00005352B434D8806EA05352B43FA4DA842F4
:1016B00002D0FA4DA84208D14BF6FF752C408D8917
:1016C0004FF6FF7606EA85152C4384808283CD8809
:1016D000A0F84050038470BD828B4FF2FF331A4054
:1016E0008283828B4FF6FF7303EA01231A438283BE
:1016F0007047F0B50C461546002200210026078CE5
:101700004EF6FF7C07EA0C070784828B018C4FF6AC
:10171000FF7707EA043640F6FF473A404FF6FF7777
:1017200007EA05273A434FF6FF7707EA03373A43BC
:10173000D94FB8420ED0D94FB8420BD0B0F1804F3C
:1017400008D0D74FB84205D0D64FB84202D0D64FB6
:10175000B84206D14DF6FF77394046F480573943F9
:1017600005E047F6FF57394044F4805739438283F8
:101770000184F0BD828B4FF6F3731A408283828B13
:101780000A4382837047F0B50C46154600220021BB
:101790000026078C4FF6FF6C07EA0C070784828B44
:1017A000018C4FF6FF7707EA04264FF60C773A4094
:1017B0004FF6FF7707EA03172F433A43B64FB84275
:1017C0000ED0B64FB8420BD0B0F1804F08D0B44F16
:1017D000B84205D0B34FB84202D0B34FB84206D199
:1017E0004FF6FF57394046F48077394305E04FF212
:1017F000FF57394044F48077394382830184F0BD38
:10180000028B4FF2FF331A400283028B4FF6FF73B5
:1018100003EA01231A4302837047F0B50C461546CC
:10182000002200210026078C4FF6EF7C07EA0C0708
:101830000784028B018C4FF6FF7707EA041640F607
:10184000FF473A404FF6FF7707EA03373A434FF630
:10185000FF7707EA05273A438F4FB8420ED08F4FE4
:10186000B8420BD0B0F1804F08D08D4FB84205D0B0
:101870008C4FB84202D08C4FB84206D14FF6DF777A
:10188000394046F01007394305E04FF65F7739409D
:1018900044F01007394302830184F0BD028B4FF6F8
:1018A000F3731A400283028B0A4302837047F0B538
:1018B0000C46154600220021068C4FF6FE773E406E
:1018C0000684028B018C4FF60C7632407E1C06EAB1
:1018D00003162E433243704EB0420ED06F4EB042CC
:1018E0000BD0B0F1804F08D06D4EB04205D06D4E98
:1018F000B04202D06C4EB04206D14FF6FD76314078
:1019000044F00106314305E04FF6F576314044F0EE
:101910000106314302830184F0BD70B505460C46D3
:101920005D4885420ED05D4885420BD0B5F1804FB1
:1019300008D05B48854205D05A48854202D05A48B3
:10194000854200D100E000BF208850B92389A288D9
:1019500061882846FFF7ABFFE1882846FFF79EFF26
:1019600025E0208804280AD12389A2886188284696
:10197000FFF753FFE1882846FFF742FF17E0208872
:1019800008280AD12389A28861882846FFF7FBFE30
:10199000E1882846FFF7EEFE09E02389A2886188E6
:1019A0002846FFF7A6FEE1882846FFF795FE70BDA2
:1019B0002DE9F04105460C4600260127608808B94C
:1019C000022600E00026A088012801D1022700E0BD
:1019D00001272088A0B92389A28861882846FFF7BB
:1019E00066FFE1882846FFF759FF23893A463146CA
:1019F0002846FFF712FFE1882846FFF701FF13E0B2
:101A00002389A28861882846FFF707FFE1882846D6
:101A1000FFF7F6FE23893A4631462846FFF747FF8F
:101A2000E1882846FFF73AFFBDE8F0810A884B8835
:101A30001A438B881A43CB881A430B891A434B8964
:101A40001A438B891A43A0F8442070474FF6FF7160
:101A5000818000210180C180418001727047002196
:101A6000018041808180C180018141818181C1816A
:101A70007047002101804180012181800021C180C7
:101A8000018170470021018041808180C1800181F6
:101A90004181818170470000002C014000340140E9
:101AA0000004004000080040000C004021B1028802
:101AB00042F00102028004E002884FF6FE731A40F1
:101AC0000280704731B1B0F8442042F40042A0F8DF
:101AD000442005E0B0F84420C2F30E02A0F84420F0
:101AE00070471AB183890B43838102E083898B435A
:101AF000838170478182704741EA0203A0F8483031
:101B000070471AB183890B43838102E083898B4339
:101B10008381704701894FF6F87211400181704747
:101B20000A46002101894FF68F7319401143018144
:101B3000704730B504460D4629462046FFF7F0FFB2
:101B4000208940F00700208130BD2DE9F041044696
:101B50000D4616461F46602D06D13B4601223146F2
:101B60002046FFF75AFE05E03B460122314620465B
:101B7000FFF79DFE29462046FFF7D2FF208940F05F
:101B800007002081BDE8F08130B50C4600210189B5
:101B9000C9B24FF6FF7505EA0325154325432943CE
:101BA000018130BD2DE9F04105460E4617469846A5
:101BB000002443463A4631462846FFF7E5FF2C8984
:101BC0004FF6F870044044F007044FF68F7004405D
:101BD00044F070042C81BDE8F081F0B504460D4658
:101BE00016461F463B46324629462046FFF7CCFFA5
:101BF000208940F480402081F0BD018582827047B9
:101C00000A46002101884FF68F7319401143018065
:101C10007047F0B50C4615461E46002100220023F1
:101C20000189028B038C4FF6F877394021434FF638
:101C3000FC473A4040F201173A434FF6DD773B400C
:101C40004FF6FF7707EA06172F433B4301810283D4
:101C50000384F0BD0A460021018B4FF68F731940B3
:101C60001143018370470A460021018B48F6FF7338
:101C700019404FF6FF7303EA0223194301837047AB
:101C80000A460021818B4FF68F73194011438183DF
:101C900070470A460021818B48F6FF7319404FF6C2
:101CA000FF7303EA022319438183704721B102883D
:101CB00042F08002028004E002884FF67F731A40EF
:101CC0000280704721B1828842F00402828004E0E1
:101CD00082884FF6FB731A408280704721B1828858
:101CE00042F00802828004E082884FF6F7731A40BF
:101CF0008280704721B1828842F00102828004E034
:101D000082884FF6FE731A40828070470A4600218F
:101D1000018B4FF6F77319401143018370470A4650
:101D20000021018B4FF2FF7319404FF6FF7303EA56
:101D300002231943018370470A460021818B4FF625
:101D4000F77319401143818370470A460021818B44
:101D50004FF2FF7319404FF6FF7303EA0223194352
:101D6000818370470A460021018B4FF6FB731940AF
:101D70001143018370470A460021018B4FF6FF3360
:101D800019404FF6FF7303EA02231943018370479A
:101D90000A460021818B4FF6FB7319401143818362
:101DA00070470A460021818B4FF6FF3319404FF6EA
:101DB000FF7303EA02231943818370470A46002117
:101DC000018B4FF67F7319401143018370470A4618
:101DD0000021018BC1F30E014FF6FF7303EA0223CA
:101DE0001943018370470A460021818B4FF67F73A8
:101DF00019401143818370470A460021818BC1F34A
:101E00000E014FF6FF7303EA0223194381837047E3
:101E10000A460021018C4FF6FD73194011430184DD
:101E200070470A460021018C4FF6F77319401143A1
:101E3000018470470A460021018C4FF6DF73194078
:101E40004FF6FF7303EA02131943018470470A46F1
:101E50000021018C4FF67F7319404FF6FF7303EAA0
:101E600002131943018470470A460021018C4FF682
:101E7000FF5319404FF6FF7303EA0223194301840D
:101E800070470A460021018C4FF2FF7319404FF64C
:101E9000FF7303EA02231943018470470A460021B5
:101EA000018C4DF6FF7319404FF6FF7303EA0233BE
:101EB00019430184704730B5002301248C40A3B23C
:101EC000048C9C430484048C02FA01F5ADB22C43CB
:101ED000048430BD30B5002304248C40A3B2048CAC
:101EE0009C430484048C02FA01F5ADB22C430484B3
:101EF00030BD70B503460020002418461830012577
:101F00008D40ACB21D8CA5431D8409B1082909D1AF
:101F100000EB6100056825F0700505600568154354
:101F200005600EE00D1FC5F34E052844056825F435
:101F3000E045056005684FF6FF7606EA0226354360
:101F4000056070BD21B1028842F00202028004E007
:101F500002884FF6FD731A400280704721B1028853
:101F600042F00402028004E002884FF6FB731A403C
:101F70000280704721B1828842F08002828004E0B2
:101F800082884FF67F731A408280704702884FF62E
:101F9000F7731A40028002880A43028070478288E1
:101FA0004FF68F731A40828082880A43828070477E
:101FB00002894FF6F8731A40028102890A430281AE
:101FC000704702894FF67F731A40028102890A43E3
:101FD0000281704781847047818570478186704790
:101FE0000187704781877047A0F8401070470288CA
:101FF0004FF6FF431A40028002880A43028070476E
:102000000146888E70470146088F70470146888FC9
:1020100070470146B1F8400070470146888C704710
:102020000146088D704702460020138A0B400BB111
:10203000012000E000207047CA430282704730B59B
:102040000246002000230024158A05EA0103958931
:1020500005EA010413B10CB1012000E0002030BDFD
:10206000CA4302827047000010B50446CC4884423F
:1020700008D10121042000F057FC0021042000F0C9
:1020800053FC46E0C748844208D10121082000F0F3
:102090004BFC0021082000F047FC3AE0C248844293
:1020A00008D10121102000F03FFC0021102000F099
:1020B0003BFC2EE0BD48844208D10121202000F0E5
:1020C00033FC0021202000F02FFC22E0B84884429D
:1020D00008D10121402000F027FC0021402000F021
:1020E00023FC16E0B348844208D10121802000F08F
:1020F0001BFC0021802000F017FC0AE0AE4884425F
:1021000007D10121801500F00FFC0021A01500F07F
:102110000BFC10BD10B50121084600F005FC0021A4
:10212000012000F001FC10BD2DE9F0410246002520
:102130000026002000230024002791F803C00CF0A3
:102140000F0591F803C00CF0100CBCF1000F03D088
:1021500091F802C04CEA050591F800C0BCF1000FEF
:1021600031D0146800202BE04FF0010C0CFA00F382
:10217000B1F800C00CEA03069E4220D183004FF064
:102180000F0C0CFA03F7BC4305FA03FC4CEA0404F9
:1021900091F803C0BCF1280F06D14FF0010C0CFAE6
:1021A00000FCC2F814C00AE091F803C0BCF1480F6B
:1021B00005D14FF0010C0CFA00FCC2F810C0401C15
:1021C0000828D1D31460B1F800C0BCF1FF0F34DD92
:1021D000546800202EE000F1080C4FF0010808FAC6
:1021E0000CF3B1F800C00CEA03069E4221D1830033
:1021F0004FF00F0C0CFA03F7BC4305FA03FC4CEA52
:10220000040491F803C0BCF1280F05D100F1080CBB
:1022100008FA0CF8C2F8148091F803C0BCF1480F1A
:1022200007D100F1080C4FF0010808FA0CF8C2F8C9
:102230001080401C0828CED35460BDE8F0814FF6D2
:10224000FF710180022181700421C1707047024634
:10225000002093680B400BB1012000E00020704784
:102260000146886880B2704702460020D3680B4060
:102270000BB1012000E0002070470146C86880B221
:10228000704701617047416170470AB1016100E028
:1022900041617047C16070474FF480320A438261E8
:1022A0008161826182698269704702460020434BE6
:1022B00018684FF68073184040EA021008433F4BFD
:1022C000186070473E49C8617047F0B50A46002360
:1022D00000240021002500F00046B6F1004F02D195
:1022E000364EF16901E0354E7168C0F3034583B2A3
:1022F00000F44016B6F5401F08D121F070612F4E52
:10230000766826F070662D4F7E6012E000F480162D
:10231000B6F5801F06D1032606FA05F4A14341F065
:10232000706106E0460D360103FA06F6B14341F04E
:10233000706122B1460D360103FA06F6314300F012
:102340000046B6F1004F02D11C4EF16101E01B4E78
:102350007160F0BD30B500228B071C0F0F2303FA0C
:1023600004F2164B08338C1053F824309343134C6B
:1023700008348D1044F8253023468C1053F824304F
:102380008C07240F00FA04F423430C4C08348D10FE
:1023900044F8253030BD0A49DC3108607047000040
:1023A00000080140000C01400010014000140140F1
:1023B00000180140001C01400020014000000140C5
:1023C0000000204201684FF6FE72114001600021BA
:1023D000016041608160C1608D49884208D18C49AB
:1023E0000839496841F00F01894A083A51608AE08A
:1023F00087491431884208D185490839496841F034
:10240000F001834A083A51607DE0814928318842D1
:1024100008D17F490839496841F470617C4A083A1B
:10242000516070E07A493C31884208D178490839D6
:10243000496841F47041764A083A516063E0744952
:102440005031884208D172490839496841F47021F5
:102450006F4A083A516056E06D496431884208D1AC
:102460006B490839496841F47001694A083A51607A
:1024700049E067497831884208D165490839496897
:1024800041F07061624A083A51603CE0614988421B
:1024900006D1011F096841F00F01021F116032E0EF
:1024A0005C491431884208D15A49091F096841F032
:1024B000F001584A121F116025E056492831884220
:1024C00008D15449091F096841F47061514A121F2B
:1024D000116018E04F493C31884208D14D49091F2D
:1024E000096841F470414B4A121F11600BE04949E1
:1024F0005031884207D14749091F096841F47021CA
:10250000444A121F1160704710B50022026847F656
:10251000F0739A430C6A8B6823430C6923434C691C
:1025200023438C692343CC6923434C6A23438C6A3D
:1025300023431A430260CB6843600B6883604B6897
:10254000C36010BD0021016041608160C160016114
:1025500041618161C161016241628162704721B163
:10256000026842F00102026004E002684FF6FE7366
:102570001A40026070471AB103680B43036002E01F
:1025800003688B43036070474160704701464868A9
:1025900080B2704701460020002201F080531BB139
:1025A0001C4B083B1A6802E0194B083B1A6802EA08
:1025B00001030BB1012000E00020704700F08051C2
:1025C00019B11449091F086002E01149083948602F
:1025D000704701460020002201F080531BB10D4BD3
:1025E000083B1A6802E00A4B083B1A6802EA01033A
:1025F0000BB1012000E00020704700F0805119B1BC
:102600000449091F086002E0014908394860704721
:102610000800024008040240DF48006840F0010062
:10262000DD49086008464068DC490840DA494860EE
:1026300008460068DA490840D7490860084600683B
:1026400020F4802008600846406820F4FE004860BE
:102650004FF41F0088607047CF49096821F480312A
:10266000CD4A11601146096821F480211160B0F54E
:10267000803F03D0B0F5802F0ED106E0C64909682F
:1026800041F48031C44A116007E0C349096841F44C
:10269000A021C14A116000E000BF00BF704710B523
:1026A00001460022002300204A11012A02D1BA4C1F
:1026B000236806E0022A02D1B74C236A01E0B64C37
:1026C000636A01F01F02012494401C400CB10120F8
:1026D00000E0002010BD38B5002000900024002547
:1026E00000BF3120FFF7DBFF05460098401C00903B
:1026F0000098B0F5A06F01D0002DF2D03120FFF787
:10270000CEFF08B1012400E00024204638BD014678
:102710000020A14A106820F0F80040EAC1001060D3
:102720007047A04908607047024600209A4B5868DD
:1027300020F47C1042EA01031843974B586070471D
:1027400098490866704701460020934A506820F077
:1027500003000843506070478F48406800F00C0049
:102760007047014600208C4A506820F0F000084372
:102770005060704701460020874A506820F4E060AE
:1027800008435060704701460020834A506820F497
:10279000605040EAC1005060704729B17E4A527AC9
:1027A00002437D4B5A7204E07B4A527A82437A4B51
:1027B0005A7270477B49D831086070470146002043
:1027C000754A506820F4404008435060704700212B
:1027D000714A20321170704A82F82010012802D00C
:1027E00004280AD104E001216B4A2032117005E06F
:1027F0000521694A2032117000E000BF00BF704718
:102800006949086070476449096A0143624A116274
:102810007047654944390860704730B5002100228F
:10282000002400235C4D6D6805F00C0121B10429E2
:1028300005D0082923D105E05C4D056022E05B4D01
:1028400005601FE0544D6D6805F47012524D6D68BF
:1028500005F48034022505EB92421CB9544D5543D2
:1028600005600BE04C4D6D6805F400351DB1504D11
:102870005543056002E04D4D5543056002E04B4D68
:10288000056000BF00BF444D6D6805F0F001090907
:10289000484D6B5C0568DD4045603F4D6D6805F453
:1028A000E061090A434D6B5C4568DD4085603A4D47
:1028B0006D6805F46051C90A3E4D6B5C4568DD40AA
:1028C000C560354D6D6805F44041890B3A4D6B5C30
:1028D000C568B5FBF3F5056130BD29B12E4A5269D3
:1028E00002432D4B5A6104E02B4A526982432A4B22
:1028F0005A61704729B1284A92690243264B9A616E
:1029000004E0254A92698243234B9A61704729B1BA
:10291000214AD2690243204BDA6104E01E4AD2699F
:1029200082431D4BDA61704729B11B4AD2680243CA
:10293000194BDA6004E0184AD2688243164BDA6019
:10294000704729B1144A12690243134B1A6104E01B
:10295000114A12698243104B1A617047124940397B
:10296000086070470F49C86470470B49C8717047C9
:102970000948406A40F08070074948627047014644
:102980000020054A92680A400AB1012000E00020B8
:102990007047014988727047001002400000FFF83C
:1029A000FFFFF6FE000042428004424200127A001D
:1029B00000093D00220000203200002010B504462E
:1029C000FA48844208D101214015FFF7ADFF0021EC
:1029D0006015FFF7A9FF17E0F548844208D10121EF
:1029E0000015FFF7A1FF00212015FFF79DFF0BE069
:1029F000F048844208D10121C803FFF795FF002168
:102A00004FF40040FFF790FF10BD30B502460020A4
:102A100000235068E84C20400D790C6844EA0524F6
:102A2000204350609068E54C2040D1E902542C438B
:102A30004D7944EA450420439060D06A20F4700048
:102A40000C7C641EE4B2234340EA0350D06230BDE4
:102A500000210160017141718160C1600121017437
:102A6000704721B1826842F00102826003E082680F
:102A700022F001028260704721B1826842F48072C4
:102A8000826003E0826822F480728260704710B531
:102A90000023CBB21AB144681C43446002E044688E
:102AA0009C43446010BD816841F00801816070471B
:102AB000014600208A6802F008020AB1012000E005
:102AC00000207047816841F0040181607047014631
:102AD00000208A6802F004020AB1012000E0002010
:102AE000704721B1826842F4A002826003E08268EC
:102AF00022F4A00282607047014600208A6802F436
:102B000080020AB1012000E00020704710B50A469B
:102B100000210023416821F46041531E41EA433102
:102B2000416010BD21B1426842F40062426003E09E
:102B3000426822F4006242607047F0B504460D46D8
:102B400000200021092D11DDE068A5F10A0606EB41
:102B50004607072606FA07F18843A5F10A0606EBA1
:102B6000460603FA06F10843E0600CE0206905EB35
:102B70004507072606FA07F1884305EB450603FAE1
:102B800006F108432061072A0FDA606B561E06EB38
:102B900086071F2606FA07F18843561E06EB8606AF
:102BA00005FA06F10843606322E00D2A0FDA206B74
:102BB000D61F06EB86071F2606FA07F18843D61FA5
:102BC00006EB860605FA06F10843206310E0E06A8A
:102BD000A2F10D0606EB86071F2606FA07F18843C9
:102BE000A2F10D0606EB860605FA06F10843E0623F
:102BF000F0BD21B1826842F48012826003E08268F5
:102C000022F48012826070470146C86C80B270471F
:102C100066484C300068704721B1426842F48062D7
:102C2000426003E0426822F480624260704721B152
:102C3000426842F48052426003E0426822F48052CB
:102C4000426070470A460021816821F4E041114347
:102C50008160704721B1826842F40042826003E0E3
:102C6000826822F400428260704721B1826842F497
:102C70000212826003E0826822F4021282607047CE
:102C8000014600208A6802F400120AB1012000E027
:102C900000207047F0B504461546002000220026AB
:102CA000092911DDE068A1F10A0707EB470C0727A6
:102CB00007FA0CF29043A1F10A0707EB470703FA62
:102CC00007F21043E0600CE0206901EB410C07279C
:102CD00007FA0CF2904301EB410703FA07F21043A5
:102CE0002061A06BC0F30156EF1C06F1010CA7EBAD
:102CF0000C0707EB870C1F2707FA0CF29043EF1C19
:102D000006F1010CA7EB0C0707EB870701FA07F2A6
:102D10001043A063F0BD10B50A4600210023816B6B
:102D200021F44011531E41EA0351816310BD08B5DF
:102D3000002300930090009B0B440093009B1A60BB
:102D400008BD08B5024600200090009201F128005D
:102D5000009B184400900098006880B208BD0A46A5
:102D600000214168164B1940114341607047416290
:102D7000826270470A460021416821F01F01114319
:102D80004160704740B109490831096841F40001C8
:102D9000064A0832116007E004490831096821F445
:102DA0000001024A0832116070470000002401400F
:102DB00000280140003C0140FFFEF0FFFDF7F1FF5D
:102DC000FFFD3FFF0246002013680B400BB10120BE
:102DD00000E000207047CA430260704770B50246A9
:102DE0000020002300240B125568CEB205EA060429
:102DF00015681D4015B10CB1012000E0002070BD28
:102E000000220A12D3430360704770470FB404498D
:102E100010B503AA029800F005F910BC5DF814FB88
:102E2000180000200FB41CB5074B06AA7B44694666
:102E30000090059800F0DDF80020694600F0ECF8FD
:102E40001CBC5DF814FB0000E90100002DE9F04115
:102E50000E460446002020622046E168884730B3D1
:102E6000252805D0D4E901219047206A401CF2E7CB
:102E7000E168204600278847050018D0A5F14100E9
:102E8000192802D820354FF40067324629462046DB
:102E90002760FDF787F940B1012804D0F61D26F020
:102EA00007060836D8E7361DD6E72846DAE7206A4F
:102EB000BDE8F0812DE9F04106460024106875292F
:102EC000314616A510D0AFF30080002802DA404248
:102ED00013A507E031688A0701D512A502E049076A
:102EE00004D511A5012401E0AFF3008000210A22DE
:102EF00006F1240709E0B0FBF2FCB0FBF2F302FBA1
:102F00001C00303078541846491C0028F3D1234661
:102F10002A463046BDE8F04100F00CB80000000041
:102F20002D0000002B0000002000000070477047BB
:102F3000704770472DE9F0470D4699469246044682
:102F400000F124080168880604D5E06921F0100129
:102F5000216000E00120A84201DD471B00E00027BE
:102F6000A1697A1902EB0900081AA0612078C0064D
:102F700002D42046AFF30080002608E0D4E9012106
:102F80001AF806009047206A401C761C20624E45C5
:102F9000F4DB2078C0060AD52046AFF3008006E0B7
:102FA000D4E9012130209047206A401C2062381E5D
:102FB000A7F10107F4DC07E0D4E9012118F80500C6
:102FC0009047206A401C2062281EA5F10105F3DC11
:102FD0002046AFF300802078000602D50220BDE82D
:102FE000F0870120FBE7000001694A1C02610878B4
:102FF000704700B58FB0CDE9013100210591054939
:103000007944CDE9031011466846FFF71FFF0FB062
:1030100000BD0000E5FFFFFF0A6802F8010B0A602F
:1030200070470000074B70B50D467B44FFF7E1FF8A
:103030000446284600F008F810B14FF0FF3070BD8C
:10304000204670BD1BD6FFFF007B00F0800070475C
:10305000754600F02BF8AE4605006946534620F051
:103060000700854618B020B5FDF7C2F8BDE820403E
:103070004FF000064FF000074FF000084FF0000B34
:1030800021F00701AC46ACE8C009ACE8C009ACE8E7
:10309000C009ACE8C0098D46704710B50446AFF3CF
:1030A00000802046BDE81040FDF78EB8004870470C
:1030B000D001002001070D1D1F252B3BDC3000082F
:1030C00000000020380000006C01000814310008E6
:1030D00038000020F80700008801000800A24A0418
:1030E00000000000000000000102030406070809B8
:1030F00000000000000000000000000000000000D0
:103100000000010203040102030406070809020487
:0431100006080000AD
:0400000508000131BD
:00000001FF
