:020000040800F2
:1000000068070020E5010008ED010008EF01000885
:10001000F1010008F3010008F501000800000000EC
:10002000000000000000000000000000F7010008D0
:10003000F901000800000000FB010008FD010008B4
:10004000FF010008FF010008FF010008FF01000890
:10005000FF010008FF010008FF010008FF01000880
:10006000FF010008FF010008FF010008FF01000870
:10007000FF010008FF010008FF010008FF01000860
:10008000FF010008FF010008FF010008FF01000850
:10009000FF010008FF010008FF010008FF01000840
:1000A000FF010008FF010008FF010008FF01000830
:1000B000FF010008FF010008FF010008FF01000820
:1000C000FF010008FF010008FF010008FF01000810
:1000D000FF010008150B0008FF010008FF010008E0
:1000E000FF010008FF010008FF010008FF010008F0
:1000F000FF010008FF010008FF010008FF010008E0
:10010000FF010008FF010008FF010008FF010008CF
:10011000FF010008FF010008FF010008FF010008BF
:10012000FF010008FF010008FF010008FF010008AF
:1001300000F002F800F047F80AA090E8000C8244B2
:100140008344AAF10107DA4501D100F03CF8AFF28F
:10015000090EBAE80F0013F0010F18BFFB1A43F0A5
:1001600001031847F042000010430000103A24BF7A
:1001700078C878C1FAD8520724BF30C830C144BF0C
:1001800004680C607047000000230024002500264E
:10019000103A28BF78C1FBD8520728BF30C148BFEA
:1001A0000B607047662904F00381002070471FB57B
:1001B00002F034FE04000020002103F073FBE06035
:1001C0001FBD10B510BD02F029FF1146FFF7EFFF6C
:1001D00000F09EFA02F047FF03B4FFF7F2FF03BC02
:1001E00000F03EFC0948804709480047FEE7FEE76B
:1001F000FEE7FEE7FEE7FEE7FEE7FEE7FEE7FEE7D7
:1002000004480549054A064B704700000F060008E0
:100210003101000868010020680700206803002001
:100220006803002010B50446BE48844208D101216D
:10023000801402F071F80021A01402F06DF816E0AD
:10024000B948844208D10121001402F072F800215B
:10025000201402F06EF80AE0B448844207D101216C
:10026000C01302F066F80021E01302F062F810BD3E
:1002700010B50022028802F441520B884C882343B7
:100280008C882343CC8823430C8923434C89234304
:100290008C892343CC8923431A430280838B4FF2FA
:1002A000FF74234083830B8A038210BD2DE9F04F36
:1002B00085B005460C464FF0000902274FF00008B4
:1002C0004FF0010B0026B246A88B4FF240010840C8
:1002D000A88302202884B5F81C90A068022801D1C8
:1002E00000BF38E0A08810B94FF0010B01E04FF0DB
:1002F000020B8D48854200D100E000BF684601F046
:1003000084FFDDF800A0E088B0F5007F0AD14FEA55
:100310001A2000EB80004000A168B0FBF1F0401D06
:1003200086B20BE04FEA4B10BAFBF0F000EB800016
:100330004000A168B0FBF1F0401D86B20A20B6FB78
:10034000F0F606F00108A6EB0800C0F34F074FF6E1
:10035000FF7000EA0828022F01DBFF2F02DD0227D1
:100360004FF00008E08840EA080038432884A0885D
:10037000A1890843618808432188084340F400604C
:1003800040EA0909A5F81C9005B0BDE8F08F0021EE
:10039000018041808180C180018141818181C18151
:1003A0000721018270470021018041808180C18046
:1003B0000221816000218181704721B1028842F0D1
:1003C0004002028004E002884FF6BF731A400280A8
:1003D000704721B1828B42F48062828304E0828B79
:1003E0004FF6FF331A408283704730B50024002354
:1003F0000C110125A540ABB21AB185881D4385803B
:1004000002E085889D43858030BD1AB183880B4307
:10041000838002E083888B438380704781817047AB
:100420000146888970474FF6FF62914204D00288E6
:1004300042F48072028004E002884FF6FF631A40A3
:100440000280704721B1828842F00402828004E079
:1004500082884FF6FB731A408280704702884FF201
:10046000FF731A40028002880A43028070470188A5
:1004700041F480510180704721B1028842F400525A
:10048000028004E002884DF6FF731A400280704734
:1004900002460020012901D0108B00E0908A7047AD
:1004A0000146088A7047B1F5804F04D1028842F4B2
:1004B0008042028004E002884BF6FF731A400280FB
:1004C00070470246002013890B400BB1012000E069
:1004D00000207047CA4302817047F0B502460020F1
:1004E00000240023002501F00F070126BE40B4B20E
:1004F0000B1101269E40B3B2968806EA03051689C1
:10050000264016B10DB1012000E00020F0BD10B56D
:10051000002201F00F040123A3409AB2D3430381C8
:1005200010BD00000030014000380040003C004099
:100530000CB50020019000906C48006840F48030B9
:100540006A49086000BF6948006800F40030009004
:100550000198401C0190009818B90198B0F5A06F5F
:10056000F1D16248006800F4003010B10120009021
:1005700001E0002000900098012843D15C48006809
:1005800040F010005A4908600846006820F0030057
:1005900008600846006840F0020008605348406860
:1005A000524948600846406848600846406840F440
:1005B000806048600846406820F47C104860084627
:1005C000406840F4E81048600846006840F08070D9
:1005D000086000BF4548006800F000700028F9D0AE
:1005E0004248406820F0030040494860084640689F
:1005F00040F00200486000BF3C48406800F00C003A
:100600000828F9D10CBD10B5FFF792FF10BD10B549
:100610003648006840F001003449086008464068E8
:10062000344908403149486008460068324908406A
:100630002E4908600846006820F4802008600846BB
:10064000406820F4FE0048604FF41F008860FFF708
:10065000DAFF4FF000602949086010BD10B5002195
:1006600000200022214B5B6803F00C0121B104291A
:1006700006D0082928D107E0214B224C236027E02F
:100680001F4B204C236023E0184B5B6803F4701071
:10069000164B5B6803F48032022303EB904022B9CF
:1006A000194B4343174C23600DE0104B5B6803F478
:1006B000003323B1144B4343124C236003E0104B2F
:1006C0004343104C236003E00D4B0E4C236000BFEE
:1006D00000BF064B5B68C3F303130C4CE15C094B92
:1006E0001B68CB40074C236010BD00000010024087
:1006F000002002400000FFF8FFFFF6FE08ED00E0DA
:1007000000127A000000002000093D0004000020D3
:1007100090B04FF00009482000F014F900F076F98D
:1007200000F08BF94FF4A06001F04EF84FF4E13087
:1007300000F0A4F900F0A8FA00F0C3FD00F018FBE7
:1007400003E020216D4801F0C0FB00F0B0FB002861
:10075000F7D12021694801F0B6FB00F068FC4FF4A6
:10076000165000F014FA66A002F048F8C4E00A201F
:1007700000F0CCFA079003F0F4FA07464FF0663227
:10078000634B03F001FB05460022624B03F07AF94C
:10079000824603F09DF8604908600846006803F04F
:1007A000DBFC05462A460B465CA108A802F032F89D
:1007B00008A802F023F800240CE021465A4801F072
:1007C000ADF900BF4021584801F016FA0128F9D1CF
:1007D000601CC4B2132CF0DB00F007FE824603F06D
:1007E000A9FA07460022514B03F04CF9054603F0E5
:1007F0006FF84F4908600DAA0EA90FA800F020FE5F
:10080000BDF9340003F0F0FC059003F0A5FC0746A9
:100810008846BDF9380003F0E7FC059003F09CFC26
:1008200005460E46BDF93C0003F0DEFC059003F0E2
:1008300093FC82468B463E48006803F08DFC0246DE
:100840000B46CDE900ABCDE90478CDE90256CDE900
:10085000060138A108A801F0DDFF08A801F0CEFFCD
:100860000DAA0EA90FA800F013FEBDF9340003F085
:10087000BBFC059003F070FCCDE90601BDF9380022
:1008800003F0B2FC059003F067FC05460E46BDF987
:100890003C0003F0A9FC059003F05EFC0746884687
:1008A0002348006803F058FC82460B46DDE9060148
:1008B0005246CDE90078CDE90256CDE904011DA1EB
:1008C00008A801F0A7FF08A801F098FF642000F035
:1008D00053F8B9F1000F01D1012000E0002081465A
:1008E000B9F1000F04D02021044801F0ECFA03E034
:1008F0002021024801F0E9FA39E70000000C01402C
:10090000546573742073756363657373210D0A00F6
:1009100066660A4000FEAF401400002020253766BE
:1009200020760D0A00000000004C004000005940F5
:1009300018000020202566202566202566202566D3
:100940000D0A000010B504466FF0040000F08BFFA4
:10095000E11704EB5171C1F3C7012A4A1170104627
:10096000007800EB4001C1EBC0104FF6FF7101EAC7
:10097000C0002549088010BD0146234A12884A4319
:100980004FF0E0235A6100229A6101221A6100BFF0
:100990004FF0E022106900F001021AB100F4803239
:1009A000002AF5D000224FF0E0231A619A617047C7
:1009B0000146144A12784A434FF0E0235A6100225C
:1009C0009A6101221A6100BF4FF0E022106900F025
:1009D00001021AB100F48032002AF5D000224FF053
:1009E000E0231A619A61704730B50446002505E09E
:1009F0004FF47A70FFF7C0FF681CC5B2A542F7DB61
:100A000030BD00001C0000201E00002008B50121A0
:100A1000082001F067FC2020ADF8000010208DF8C0
:100A2000030003208DF8020069460C4801F09EF98E
:100A300020210A4801F047FA08BD10B520210748D7
:100A400001F043FA3220FFF797FF2021034801F01D
:100A50003AFA3220FFF790FF10BD0000000C014071
:100A600000BF704700BF824A128802F04002002A8D
:100A7000F9D0C2B27E4B1B1D1A80704710B586B0EC
:100A80000446012144F2040001F02CFC4FF40070F4
:100A9000ADF8140003208DF8160018208DF817000B
:100AA00005A9744801F062F94FF48060ADF81400B4
:100AB00004208DF8170005A96E4801F057F925208C
:100AC0008DF8000003208DF801008DF80200012050
:100AD0008DF80300684600F07CFE01940020ADF81C
:100AE0000800ADF80A00ADF80C00ADF810000C20BD
:100AF000ADF80E0001A95E4800F017FF012240F298
:100B000025515B4800F0A9FF0121594800F099FFE9
:100B100006B010BD10B540F22551554801F082F8DD
:100B200010B3534800F0FEFFC4B25348008800F4ED
:100B30000040C8B95048008800F4804060B10A2CD9
:100B400003D000204C49088020E04B48008840F446
:100B500000404949088019E00D2C06D1464800881C
:100B600040F480404449088010E043480088C0F3C6
:100B70000D0042490C5440480088401C3E49088002
:100B800008460088C72801DD0020088010BD10B588
:100B900086B004460121C80401F0B1FB01211020F8
:100BA00001F0A0FB4FF48060ADF8140003208DF835
:100BB000160018208DF8170005A9314801F0D6F865
:100BC0004FF40060ADF8140004208DF8170005A95B
:100BD0002B4801F0CBF834208DF8000003208DF86D
:100BE000010002208DF8020001208DF80300684604
:100BF00000F0EFFD01940020ADF80800ADF80A0008
:100C0000ADF80C00ADF810000C20ADF80E0001A9F5
:100C10001C4800F08AFE012240F22551194800F0DC
:100C20001CFF0121174800F00CFF8021154800F03F
:100C3000F0FF4021134800F0ECFF06B010BD70B586
:100C40000546002440210F4800F0E3FF00BF0CE000
:100C5000295D0C4800F062FF00BF4021094800F008
:100C6000CBFF0128F9D1601CC4B2132CF0DB70BD9E
:100C70000038014000080140240000203C00002012
:100C800000100140004C004000B587B001214FF436
:100C9000047001F027FB4FF4004001F087FA0120B7
:100CA000ADF8040000208DF8070001A92E4801F0DE
:100CB0005DF82E4801F07AFB002002908DF80C00C0
:100CC0008DF80D004FF46020049000200590012065
:100CD0008DF8180002A9254801F08FFB0121234857
:100CE00001F0B7FB214801F0D6FB00BF1F4801F01F
:100CF000D7FB0028FAD11D4801F0DCFB00BF1B48E0
:100D000001F0DDFB0028FAD107B000BD10B50446A4
:100D1000052301222146154801F007FC0121134853
:100D200001F0D7FB00BF0221104801F043FD00286D
:100D3000F9D00E4801F060FC10BD2DE9F0410746E6
:100D40000C460025002608E03846FFF7DFFF054483
:100D50000520FFF711FE701CC6B2A642F4DBB5FBFE
:100D6000F4F080B2BDE8F0810010014000240140A1
:100D700000B587B001214FF4847001F0B3FA4FF44D
:100D80008050ADF8180010208DF81B0003208DF85E
:100D90001A0006A9BB4800F0E9FF4FF48051B9489A
:100DA00001F091F84FF4C070ADF8180006A9B648EC
:100DB00000F0DCFF4020ADF8180028208DF81B0063
:100DC00006A9B14800F0D2FF4FF4E071AE4801F03F
:100DD0007CF800F090F90021AC48FFF7EEFA002013
:100DE000ADF804004FF48270ADF806000020ADF8B5
:100DF0000800ADF80A00ADF80C004FF40070ADF833
:100E00000E001820ADF810000020ADF812000720E9
:100E1000ADF8140001A99D48FFF72AFA01219B486B
:100E2000FFF7CBFA00209A49086001209949C1F8E0
:100E30009C0107B000BD2DE9F04107460D4616465E
:100E400000209349091F0860384600F02DF98046BC
:100E5000002405E0FF2000F027F92855601CC4B2EB
:100E6000B442F7DB01208A49091F08604046BDE80B
:100E7000F0812DE9F04107460C46154600208449D3
:100E8000091F0860384600F00FF98046002605E08B
:100E900014F8010B00F008F9701CC6B2AE42F7DB83
:100EA00001207B49091F08604046BDE8F0811CB560
:100EB00079A103C9CDE90001082000F062F90522FB
:100EC00069463020FFF7D5FF052269461020FFF75D
:100ED000B2FF002406E01DF80400A52800D003E0BE
:100EE000601CC4B2052CF6DB00BF052C01D001202C
:100EF0001CBD0020FCE770B505460C460020644987
:100F0000091F0860284600F0CFF80646204600F08A
:100F1000CBF801205F49C1F89C01304670BD70B527
:100F2000044600205A49091F0860204600F0BCF81A
:100F3000FF2000F0B9F8054601205649C1F89C0190
:100F4000284670BD70B50546102000F01AF9002043
:100F50004F49086020222946A020FFF78AFF012080
:100F60004C49C1F8A00100BF4948883800680028F2
:100F7000FAD10F20FFF700FD0720FFF7D0FF04464E
:100F800021462720FFF7B7FF04F0100028B1FF210A
:100F9000E120FFF7B0FF102070BD04F0200008B181
:100FA0002020F9E7FF20F7E770B50446102000F095
:100FB000E8F80720FFF7B3FF054629462720FFF78B
:100FC0009AFF05F0400050B1202221466120FFF732
:100FD00032FFFF21E220FFF78EFF002070BD0120CD
:100FE000FCE710B500202A49086005222C492A2078
:100FF000FFF73FFF01212120FFF77DFF0121222084
:10100000FFF779FF28212520FFF775FF20213120E8
:10101000FFF771FF0F212620FFF76DFF0F21202022
:10102000FFF769FF01201B49C1F8A00110BD10B5F1
:1010300000201749086005221A493020FFF719FFE0
:10104000052217492A20FFF714FF01212120FFF76D
:1010500052FF01212220FFF74EFF1A212420FFF723
:101060004AFF28212520FFF746FF0F212620FFF702
:1010700042FF0E212020FFF73EFF01200549C1F865
:10108000A00110BD000C01400020014000380040CC
:10109000A001244200002442A5A5A5A5A5000000AA
:1010A000B9430008B443000870B50546002405E0C4
:1010B000601CC4B2C82C01DD002070BD02213A487A
:1010C000FFF7FFF90028F3D029463748FFF7A6F9C4
:1010D000002405E0601CC4B2C82C01DD0020ECE750
:1010E00001213148FFF7EDF90028F3D02E48FFF732
:1010F00097F9C0B2E1E700B587B00121082001F0FF
:10110000F1F80121880301F0FAF84FF46040ADF8DE
:10111000180018208DF81B0003208DF81A0006A96E
:10112000224800F023FE4FF46041204800F0CBFE3F
:101130000020ADF804004FF48270ADF806000020E6
:10114000ADF808000220ADF80A000120ADF80C004F
:101150004002ADF80E003820ADF810000020ADF8C8
:1011600012000720ADF8140001A90F48FFF780F81E
:1011700001210D48FFF721F9FF20FFF795FF07B088
:1011800000BD10B50446084800884FF6C7710840F6
:10119000054908800846008820430880012102484C
:1011A000FFF70BF910BD000000380040000C0140B3
:1011B00070B505460C4600F0EFF9D02000F0A0FA1B
:1011C00000F02BFA18B100F007FA012070BD284694
:1011D00000F096FA00F021FA204600F091FA00F0B3
:1011E0001CFA18B100F0F8F90120EFE700F0F4F96B
:1011F0000020EBE770B504460025BC2C01DB01257F
:1012000010E0622C01DB02250CE02A2C01DB032517
:1012100008E0142C01DB042504E00A2C01DB052581
:1012200000E0062529461A20FFF7C2FF70BD70B501
:101230000446B4F57A7F01DD4FF47A74042C00DAA9
:1012400004244FF47A7090FBF4F0401EC5B2294696
:101250001920FFF7ADFF0546264604EBD671C1F312
:101260004F00FFF7C7FF70BD70B5044600F094F95A
:10127000D02000F045FA00F0D0F9204600F040FA06
:1012800000F0CBF900F088F9D12000F039FA00F035
:10129000C4F9002000F05FFA054600F09DF92846E9
:1012A00070BD10B50446E006010E1C20FFF780FF5C
:1012B00010BD10B50446E006010E1B20FFF778FFB5
:1012C00010BD38B50121084601F00CF801210420B9
:1012D00001F008F84FF40040ADF8000010208DF840
:1012E000030003208DF802006946954800F03EFD9A
:1012F0000121944800F00BFE00209349086000F0A3
:1013000032F980216B20FFF753FF6420FFF734FB95
:1013100000216B20FFF74CFF0320FFF7CAFF0020DE
:10132000FFF7BFFF3220FFF782FF00213820FFF7D1
:101330003FFF00216A20FFF73BFF00212320FFF73A
:1013400037FF80213720FFF733FF7520FFF78CFF31
:101350000446682C0BD101216B20FFF729FF0021E7
:101360006C20FFF725FF3220FFF761FF01E001202D
:1013700038BD0020FCE72DE9F04106460F46144633
:101380001D4600F009F9002141EA4601C8B200F00B
:10139000B7F900F042F920B100F01EF90120BDE8D4
:1013A000F081384600F0ACF900F037F900F0F4F8BD
:1013B000012101EB4601C8B200F0A2F900F02DF9BD
:1013C0000DE0012C04D1002000F0C5F9287003E0E5
:1013D000012000F0C0F92870601EC4B26D1C002C02
:1013E000EFD100F0F9F80020D9E72DE9F84F6B466E
:1013F000022241216820FFF7BEFF9DF801009DF801
:10140000001040EA01200FFA80FA504602F092FCE8
:10141000804600224D4B02F035FB06464C4A4D4BB0
:1014200002F088FA044602F053FA83464A495846C5
:1014300002F0F2FE044602F0BBFE00B2BDE8F88FF7
:101440002DE9FC4104460D4616466B460622432113
:101450006820FFF790FF0746BFB99DF801009DF88F
:10146000001040EA012000B220809DF803009DF8A2
:10147000021040EA012000B228809DF805009DF886
:10148000041040EA012000B230803846BDE8FC81FB
:101490002DE9FC4104460D4616466B4606223B21CB
:1014A0006820FFF768FF0746BFB99DF801009DF867
:1014B000001040EA012000B220809DF803009DF852
:1014C000021040EA012000B228809DF805009DF836
:1014D000041040EA012000B230803846BDE8FC81AB
:1014E0002DE9F04105460E461746984600F054F89F
:1014F000002141EA4501C8B200F002F900F08DF880
:1015000020B100F069F80120BDE8F081304600F01C
:10151000F7F800F082F800240CE018F8040000F05E
:10152000EFF800F07AF818B100F056F80120EBE778
:10153000601CC4B2BC42F0DB00F04EF80020E3E7D0
:101540000008014000023000BC012142004075400B
:10155000A4703D0AD74342400000C84210B50220A3
:10156000FFF726FA10BD08B50121082000F0BAFEE9
:101570004FF44060ADF8000010208DF80300032008
:101580008DF8020069468D4800F0F0FB4FF4406191
:101590008A4800F098FC08BD10B58848001D006816
:1015A00020F470408549091D08600846006840F431
:1015B000405008600120824908608249C1F8A801B2
:1015C000FFF7CCFF00207E490860FFF7C7FF00202F
:1015D0007C49C1F8A80110BD10B57848001D00680D
:1015E00020F470407549091D08600846006840F401
:1015F0004050086000207249091F08607149C1F815
:10160000AC01FFF7ABFF01206D49091F08606D4970
:10161000C1F8AC01FFF7A2FF10BD10B50024674868
:10162000001D006820F470406449091D08600846E8
:10163000006840F400400860012061490860FFF73D
:101640008DFF01205F49C1F8A801FFF787FF07E080
:10165000601CC4B2FA2C03DDFFF7BEFF012010BDF1
:101660005748803800680028F2D15549091F0860A2
:1016700000BFF4E710B500205149091F08604F482A
:10168000001D006820F470404C49091D08600846A0
:10169000006840F44050086000204A49C1F8AC019D
:1016A000FFF75CFF01204649091F0860FFF756FF5E
:1016B00000204449C1F8A80110BD10B500204049E0
:1016C000091F08603D48001D006820F470403B4938
:1016D000091D08600846006840F440500860012079
:1016E0003849C1F8AC01FFF739FF01203449091F1F
:1016F0000860FFF733FF00203249C1F8A80110BD90
:1017000070B504462D48001D006820F470402B4938
:10171000091D08600846006840F440500860002039
:101720002749091F0860002512E0E00924490860E4
:101730006006040E01202349C1F8A801FFF70EFF3F
:1017400000201F49091F0860FFF708FF681CC5B289
:10175000082DEADB70BD70B5054600241748001D52
:10176000006820F470401549091D086008460068AB
:1017700040F400400860002615E000201049091FD1
:101780000860FFF7EBFE01200E49C1F8A8016006D2
:10179000040E0B488038006808B1601CC4B2FFF723
:1017A000DDFE701CC6B2082EE7DB15B9FFF785FF1A
:1017B00001E0FFF75FFF204670BD0000000C014014
:1017C000AC8121420080214231490143314A1160FC
:1017D000704770B5002100230F22C47804B32D4C4C
:1017E000246804F4E064C4F5E064210AC1F1040350
:1017F000CA40447804FA03F1847814402143090173
:10180000254C0678A155047804F01F050124AC404E
:1018100005786D11AD0005F1E025C5F8004109E03E
:10182000047804F01F050124AC401C4D06787611A5
:1018300045F8264070BD1A4A0A400243154B1B1F4B
:101840001A60704739B1134A121D12680243114BD6
:101850001B1D1A6006E00F4A121D126882430D4BD1
:101860001B1D1A607047042808D14FF0E021096958
:1018700041F004014FF0E022116107E04FF0E02158
:10188000096921F004014FF0E02211617047000066
:101890000000FA050CED00E000E400E080E100E06B
:1018A00080FFFF1F10B50446FB48844209D1012187
:1018B000880300F031FD00214FF4804000F02CFD42
:1018C00032E0F648844209D10121480400F031FD9C
:1018D00000214FF4003000F02CFD25E0F048844258
:1018E00009D10121880400F024FD00214FF480205B
:1018F00000F01FFD18E0EB48844209D10121C80423
:1019000000F017FD00214FF4002000F012FD0BE065
:10191000E548844208D10121080500F00AFD0021B4
:101920004FF4801000F005FD10BD2DE9F04786B0A2
:1019300005460E460024A24600BFA1460027B089F6
:1019400000B100BF2F462C8A4CF6FF700440F0888F
:1019500004432C82AC894EF6F3100440B0883189E0
:101960000843718908430443AC81AC8A4FF6FF40B9
:101970000440B0890443AC8201A800F046FCC6488C
:10198000874202D1DDF810A001E0DDF80CA0A889A3
:1019900000F4004040B10AEBCA0000EB0A103168C5
:1019A0004900B0FBF1F807E00AEBCA0000EB0A10AF
:1019B00031688900B0FBF1F86420B8FBF0F0040155
:1019C0002009642101FB1089A88900F4004040B17E
:1019D000322000EBC900B0FBF1F000F00700044337
:1019E00008E0322000EB09106421B0FBF1F000F0B8
:1019F0000F0004432C8106B0BDE8F0874FF4165168
:101A0000016000218180C18001810C214181002180
:101A10008181704710B502460020108A4FF2FF0303
:101A200018400B884C8823438C882343CC8823435D
:101A30001843108210BD0021018041808180C18047
:101A4000704721B1828942F40052828104E0828988
:101A50004DF6FF731A4082817047F0B503460024AB
:101A600000260025002040F66A17B94200D100BFC9
:101A70001846C1F3421401F01F06012707FA06F5C4
:101A8000012C01D10C3004E0022C01D1103000E017
:101A900014301AB107682F43076002E00768AF43AC
:101AA0000760F0BD1AB1838A0B43838202E0838A08
:101AB0008B4383827047028A4FF6F0731A4002828A
:101AC000028A0A430282704782894FF2FF731A40EA
:101AD000828182890A438281704721B1828942F0E2
:101AE0000202828104E082894FF6FD731A408281EE
:101AF0007047028A4FF6DF731A400282028A0A4355
:101B00000282704721B1028A42F48042028204E0DC
:101B1000028A4BF6FF731A4002827047C1F3080233
:101B20008280704701468888C0F308007047818929
:101B300041F0010181817047028BD2B20283028B96
:101B400042EA012202837047028B02F47F42028341
:101B5000028B0A430283704721B1828A42F020023D
:101B6000828204E0828A4FF6DF731A4082827047D5
:101B700021B1828A42F01002828204E0828A4FF60A
:101B8000EF731A408282704721B1828A42F00802C4
:101B9000828204E0828A4FF6F7731A40828270478D
:101BA00021B1828942F40042828103E08289C2F33A
:101BB0000E028281704721B1828A42F400628282E1
:101BC00004E0828A4FF2FF731A4082827047828A51
:101BD0004FF6FB731A408282828A0A4382827047E0
:101BE00021B1828A42F00202828204E0828A4FF6A8
:101BF000FD731A408282704702460020B1F5007FD3
:101C000000D100BF13880B400BB1012000E0002081
:101C1000704701F40072B2F5007F00D100BFCA43E3
:101C20000280704770B50246002400230025002082
:101C300040F66A16B14200D100BFC1F3421501F06F
:101C40001F03012606FA03F3012D02D196893340C2
:101C500006E0022D02D1168A334001E0968A334015
:101C60000C12012606FA04F41688344013B10CB1A4
:101C7000012000E0002070BD10B50022002340F6D6
:101C80006A14A14200D100BF0A1201249440A3B2F9
:101C9000DC43048010BD00000038014000440040D7
:101CA00000480040004C00400050004010B5044681
:101CB000CC48844208D10121042000F02DFB0021F2
:101CC000042000F029FB46E0C748844208D10121E6
:101CD000082000F021FB0021082000F01DFB3AE065
:101CE000C248844208D10121102000F015FB0021D8
:101CF000102000F011FB2EE0BD48844208D10121E4
:101D0000202000F009FB0021202000F005FB22E04C
:101D1000B848844208D10121402000F0FDFA00219A
:101D2000402000F0F9FA16E0B348844208D10121BE
:101D3000802000F0F1FA0021802000F0EDFA0AE0A6
:101D4000AE48844207D10121801500F0E5FA002158
:101D5000A01500F0E1FA10BD10B50121084600F011
:101D6000DBFA0021012000F0D7FA10BD2DE9F04187
:101D7000024600250026002000230024002791F8B9
:101D800003C00CF00F0591F803C00CF0100CBCF16F
:101D9000000F03D091F802C04CEA050591F800C08D
:101DA000BCF1000F31D0146800202BE04FF0010C83
:101DB0000CFA00F3B1F800C00CEA03069E4220D1F1
:101DC00083004FF00F0C0CFA03F7BC4305FA03FC39
:101DD0004CEA040491F803C0BCF1280F06D14FF07F
:101DE000010C0CFA00FCC2F814C00AE091F803C020
:101DF000BCF1480F05D14FF0010C0CFA00FCC2F801
:101E000010C0401C0828D1D31460B1F800C0BCF148
:101E1000FF0F34DD546800202EE000F1080C4FF075
:101E2000010808FA0CF3B1F800C00CEA03069E4260
:101E300021D183004FF00F0C0CFA03F7BC4305FAD5
:101E400003FC4CEA040491F803C0BCF1280F05D14F
:101E500000F1080C08FA0CF8C2F8148091F803C0DD
:101E6000BCF1480F07D100F1080C4FF0010808FA47
:101E70000CF8C2F81080401C0828CED35460BDE88E
:101E8000F0814FF6FF710180022181700421C17041
:101E900070470246002093680B400BB1012000E020
:101EA000002070470146886880B2704702460020D3
:101EB000D3680B400BB1012000E0002070470146C1
:101EC000C86880B2704701617047416170470AB1CC
:101ED000016100E041617047C16070474FF480329A
:101EE0000A43826181618261826982697047024628
:101EF0000020434B18684FF68073184040EA0210E8
:101F000008433F4B186070473E49C8617047F0B5C1
:101F10000A46002300240021002500F00046B6F107
:101F2000004F02D1364EF16901E0354E7168C0F3C1
:101F3000034583B200F44016B6F5401F08D121F0E6
:101F400070612F4E766826F070662D4F7E6012E02D
:101F500000F48016B6F5801F06D1032606FA05F4B4
:101F6000A14341F0706106E0460D360103FA06F622
:101F7000B14341F0706122B1460D360103FA06F615
:101F8000314300F00046B6F1004F02D11C4EF16122
:101F900001E01B4E7160F0BD30B500228B071C0FB5
:101FA0000F2303FA04F2164B08338C1053F8243035
:101FB0009343134C08348D1044F8253023468C107D
:101FC00053F824308C07240F00FA04F423430C4CFC
:101FD00008348D1044F8253030BD0A49DC310860E2
:101FE0007047000000080140000C01400010014053
:101FF0000014014000180140001C01400020014075
:102000000000014000002042DF48006840F001006D
:10201000DD49086008464068DC490840DA49486004
:1020200008460068DA490840D74908600846006851
:1020300020F4802008600846406820F4FE004860D4
:102040004FF41F0088607047CF49096821F4803140
:10205000CD4A11601146096821F480211160B0F564
:10206000803F03D0B0F5802F0ED106E0C649096845
:1020700041F48031C44A116007E0C349096841F462
:10208000A021C14A116000E000BF00BF704710B539
:1020900001460022002300204A11012A02D1BA4C35
:1020A000236806E0022A02D1B74C236A01E0B64C4D
:1020B000636A01F01F02012494401C400CB101200E
:1020C00000E0002010BD38B500200090002400255D
:1020D00000BF3120FFF7DBFF05460098401C009051
:1020E0000098B0F5A06F01D0002DF2D03120FFF79D
:1020F000CEFF08B1012400E00024204638BD01468F
:102100000020A14A106820F0F80040EAC1001060E9
:102110007047A04908607047024600209A4B5868F3
:1021200020F47C1042EA01031843974B5860704733
:1021300098490866704701460020934A506820F08D
:1021400003000843506070478F48406800F00C005F
:102150007047014600208C4A506820F0F000084388
:102160005060704701460020874A506820F4E060C4
:1021700008435060704701460020834A506820F4AD
:10218000605040EAC1005060704729B17E4A527ADF
:1021900002437D4B5A7204E07B4A527A82437A4B67
:1021A0005A7270477B49D831086070470146002059
:1021B000754A506820F44040084350607047002141
:1021C000714A20321170704A82F82010012802D022
:1021D00004280AD104E001216B4A2032117005E085
:1021E0000521694A2032117000E000BF00BF70472E
:1021F0006949086070476449096A0143624A11628B
:102200007047654944390860704730B500210022A5
:10221000002400235C4D6D6805F00C0121B10429F8
:1022200005D0082923D105E05C4D056022E05B4D17
:1022300005601FE0544D6D6805F47012524D6D68D5
:1022400005F48034022505EB92421CB9544D5543E8
:1022500005600BE04C4D6D6805F400351DB1504D27
:102260005543056002E04D4D5543056002E04B4D7E
:10227000056000BF00BF444D6D6805F0F00109091D
:10228000484D6B5C0568DD4045603F4D6D6805F469
:10229000E061090A434D6B5C4568DD4085603A4D5D
:1022A0006D6805F46051C90A3E4D6B5C4568DD40C0
:1022B000C560354D6D6805F44041890B3A4D6B5C46
:1022C000C568B5FBF3F5056130BD29B12E4A5269E9
:1022D00002432D4B5A6104E02B4A526982432A4B38
:1022E0005A61704729B1284A92690243264B9A6184
:1022F00004E0254A92698243234B9A61704729B1D1
:10230000214AD2690243204BDA6104E01E4AD269B5
:1023100082431D4BDA61704729B11B4AD2680243E0
:10232000194BDA6004E0184AD2688243164BDA602F
:10233000704729B1144A12690243134B1A6104E031
:10234000114A12698243104B1A6170471249403991
:10235000086070470F49C86470470B49C8717047DF
:102360000948406A40F0807007494862704701465A
:102370000020054A92680A400AB1012000E00020CE
:102380007047014988727047001002400000FFF852
:10239000FFFFF6FE000042428004424200127A0033
:1023A00000093D00260000203600002010B504463C
:1023B000FA48844208D101214015FFF7ADFF002102
:1023C0006015FFF7A9FF17E0F548844208D1012105
:1023D0000015FFF7A1FF00212015FFF79DFF0BE07F
:1023E000F048844208D10121C803FFF795FF00217E
:1023F0004FF40040FFF790FF10BD30B502460020BB
:1024000000235068E84C20400D790C6844EA05240C
:10241000204350609068E54C2040D1E902542C43A1
:102420004D7944EA450420439060D06A20F470005E
:102430000C7C641EE4B2234340EA0350D06230BDFA
:1024400000210160017141718160C160012101744D
:10245000704721B1826842F00102826003E0826825
:1024600022F001028260704721B1826842F48072DA
:10247000826003E0826822F480728260704710B547
:102480000023CBB21AB144681C43446002E04468A4
:102490009C43446010BD816841F008018160704731
:1024A000014600208A6802F008020AB1012000E01B
:1024B00000207047816841F0040181607047014647
:1024C00000208A6802F004020AB1012000E0002026
:1024D000704721B1826842F4A002826003E0826802
:1024E00022F4A00282607047014600208A6802F44C
:1024F00080020AB1012000E00020704710B50A46B2
:1025000000210023416821F46041531E41EA433118
:10251000416010BD21B1426842F40062426003E0B4
:10252000426822F4006242607047F0B504460D46EE
:1025300000200021092D11DDE068A5F10A0606EB57
:102540004607072606FA07F18843A5F10A0606EBB7
:10255000460603FA06F10843E0600CE0206905EB4B
:102560004507072606FA07F1884305EB450603FAF7
:1025700006F108432061072A0FDA606B561E06EB4E
:1025800086071F2606FA07F18843561E06EB8606C5
:1025900005FA06F10843606322E00D2A0FDA206B8A
:1025A000D61F06EB86071F2606FA07F18843D61FBB
:1025B00006EB860605FA06F10843206310E0E06AA0
:1025C000A2F10D0606EB86071F2606FA07F18843DF
:1025D000A2F10D0606EB860605FA06F10843E06255
:1025E000F0BD21B1826842F48012826003E082680B
:1025F00022F48012826070470146C86C80B2704736
:1026000066484C300068704721B1426842F48062ED
:10261000426003E0426822F480624260704721B168
:10262000426842F48052426003E0426822F48052E1
:10263000426070470A460021816821F4E04111435D
:102640008160704721B1826842F40042826003E0F9
:10265000826822F400428260704721B1826842F4AD
:102660000212826003E0826822F4021282607047E4
:10267000014600208A6802F400120AB1012000E03D
:1026800000207047F0B504461546002000220026C1
:10269000092911DDE068A1F10A0707EB470C0727BC
:1026A00007FA0CF29043A1F10A0707EB470703FA78
:1026B00007F21043E0600CE0206901EB410C0727B2
:1026C00007FA0CF2904301EB410703FA07F21043BB
:1026D0002061A06BC0F30156EF1C06F1010CA7EBC3
:1026E0000C0707EB870C1F2707FA0CF29043EF1C2F
:1026F00006F1010CA7EB0C0707EB870701FA07F2BD
:102700001043A063F0BD10B50A4600210023816B81
:1027100021F44011531E41EA0351816310BD08B5F5
:10272000002300930090009B0B440093009B1A60D1
:1027300008BD08B5024600200090009201F1280073
:10274000009B184400900098006880B208BD0A46BB
:1027500000214168164B19401143416070474162A6
:10276000826270470A460021416821F01F0111432F
:102770004160704740B109490831096841F40001DE
:10278000064A0832116007E004490831096821F45B
:102790000001024A08321160704700000024014025
:1027A00000280140003C0140FFFEF0FFFDF7F1FF73
:1027B000FFFD3FFF0246002013680B400BB10120D4
:1027C00000E000207047CA430260704770B50246BF
:1027D0000020002300240B125568CEB205EA06043F
:1027E00015681D4015B10CB1012000E0002070BD3E
:1027F00000220A12D3430360704770470FB40449A4
:1028000010B503AA029800F0F7FA10BC5DF814FBAB
:10281000200000200FB41CB5074B06AA7B44694674
:102820000090059800F0CFFA0020694600F0DEFA2B
:102830001CBC5DF814FB0000CD05000070B504461B
:1028400085690068C10601D5302600E02026C00752
:1028500007D070BDD4E9012130469047206A401C62
:1028600020626D1EF6D570BD70B50446856900788E
:10287000C00707D170BDD4E9012120209047206A0C
:10288000401C20626D1EF6D570BD2DE9F0474FF05B
:10289000000A89460446C0F820A02046E16888471F
:1028A000002876D0252806D0D4E901219047206A57
:1028B000401C2062F1E7E168204600258847C4F803
:1028C0001CA006460027C4F818A02A2E09D03046BE
:1028D00000F0E1FF38B304EB8708303EC8F8186019
:1028E00019E059F8041B204604EB87029161E16866
:1028F0008847012F064618D1E069002820DA25F024
:1029000020051DE0D8F8180000EB800006EB400021
:102910003038C8F818002046E1688847064600F0BD
:10292000BAFF0028EED1012F0AD02E2E08D1204662
:10293000E16888477F1C0646022F45F02005C4DB6E
:10294000A069002803DA404245F00105A061E807CC
:1029500001D025F01005B6B1A6F14100192802D822
:10296000203645F400654A463146204625604D46EE
:10297000FDF718FC58B1012806D0ED1D25F0070021
:1029800000F1080989E704E005F1040985E730460C
:102990008AE7206ABDE8F087704770477047704744
:1029A00070472DE9FF4F0C461E464FF0FF378BB0A6
:1029B000D2E90001DDF860800A908A46C1F30A5529
:1029C00005B93D46002108464FF00000BAF1000F5E
:1029D00000F4400005DA00EB80004FF4400101EA0A
:1029E00050004FEA9059B9F1010F00DDB9460A983D
:1029F00050EA4A000ED044F61050A5F2FF35454388
:102A00002F14B8F1000F1ED07542291E1EDDC9F12A
:102A100000021CE0B8F1010F4FF0000001D030219E
:102A200003E0F24305E02154401CB042FBDB30469A
:102A30000022002121540B99C1F80880C1E900202F
:102A40000FB0BDE8F08FBD1B6D1CDEE74A4600DA13
:102A5000694206A800F06CFA06AB93E8070003ABE6
:102A600083E8070050460A9900F046FB8DE807000E
:102A7000A0F500501F3800900398002D09DD42F2A8
:102A80001F014A46084403A90390684600F0A5FDCB
:102A900008E0A0F500504A461F3803A90390684695
:102AA00000F0AFFD8DE807000004000C03D04FF0EC
:102AB000FF30410800E01046B8F1000F03D00022BB
:102AC000009215461EE0751E05D400F0ABF93032B9
:102AD00062556D1EF9D5B3460122084302D000228B
:102AE0007F1C04E02078302801D100227F1E002ABC
:102AF000099786D01DE0112D07DA00F093F93032E6
:102B000062556D1C50EA0102F5D1084302D00098CD
:102B1000C8B10EE00021681E05E0235C625C6354CE
:102B20002254401E491C8142F7DBAB46A81B401EC5
:102B30000990002004F80B000B98099AC0F808804F
:102B4000C0E9002B7CE711264FF0000859E72DE97A
:102B5000F04F88460446D21D22F0070191B0D1E91A
:102B60000001CDE90A0100F082FE02460B98C00F79
:102B700001D02D2007E02068810701D52B2002E03D
:102B8000202101EAC000032A099001D0072A05DBB1
:102B900003464146204600F08BF90BE12078800681
:102BA00001D5E06900E00620B8F1650F814606D046
:102BB000B8F1660F18D0B8F1670F70D131E000207E
:102BC000B9F1110F009001DB112301E009F10103BC
:102BD0000AAA01A90CA8FFF7E4FEDDE90C700026A3
:102BE00009F10105834647E001204B4600904FF074
:102BF00000470AAA01A90CA8FFF7D3FEDDE90DB032
:102C00000C995D46002610B909F101000D18B9EBC9
:102C1000050003D4C0F1FF3609F10105A5EB090059
:102C20002BE0B9F1010F01DA4FF001090020B9F1F1
:102C3000110F0090484601DD112300E003460AAA67
:102C400001A90CA8FFF7ADFEDDE90C704D4600268A
:102C50008346207800070AD4AB4500DA5D4601A818
:102C6000012D04DD411911F8011C302907D04F4511
:102C700002DA17F1040F04DA012082460FE06D1E1C
:102C8000EEE7002F02DCED1B3E4403E0781CA84277
:102C900000DD7D1CB81B00F1010A4FF000472078D1
:102CA000000703D4AA4501DB4FF0FF3A0021B7F13A
:102CB000004F0DF143088DF8431024D002202B2340
:102CC000002F01DA7F422D230A21021EA0F101000C
:102CD00000DC5FB197FBF1FC97FBF1F201FB1C7C80
:102CE00017460CF1300C08F801CDEEE7A8F1010011
:102CF00003702188090501D5452100E06521A0F177
:102D0000010800F8011C09980FA9A1EB0807FF1D95
:102D100000B10120411901EBEA70A1693844081A99
:102D2000401EA0612078C00602D42046FFF786FD31
:102D3000099828B1D4E901219047206A401C2062FB
:102D40002078C00622D52046FFF778FD1EE0002E31
:102D500004DBB34502DD01A8805D00E03020D4E94A
:102D600001219047206A401C2062761CAAF10100D4
:102D70005FEA000A0AD100F051F8C0680168405CBF
:102D8000D4E901219047206A401C2062281EA5F149
:102D90000105DCDC07E0D4E9012118F8010B9047BC
:102DA000206A401C2062381EA7F10107F3DC204690
:102DB000FFF75AFD032011B043E6000001694A1CE9
:102DC00002610878704700B58FB0CDE9013100216C
:102DD000059105497944CDE9031011466846FFF78E
:102DE00054FD0FB000BD0000E5FFFFFF0A6802F8C8
:102DF000010B0A6070470000074B70B50D467B441D
:102E0000FFF7E1FF0446284600F000F910B14FF04B
:102E1000FF3070BD204670BD63DCFFFF0048704787
:102E20002401002030B5B0F10A024FEA900E71F192
:102E300000034EEA817EB0EB0E0061EB91014FEA98
:102E4000101E4EEA017E10EB0E0041EB11114FEA0D
:102E5000102E4EEA016E10EB0E0041EB11214FEAED
:102E6000104E4EEA014E10EB0E0041EB114140189E
:102E700041F100014FEAD00040EA41704FEAD10130
:102E800010EB80054FEA810444EA907444EB01049E
:102E90006D1944EB0404521BA3414FF0000348BFDB
:102EA0000A3200D530BD401C41F1000130BD0000A8
:102EB0002DE9F0411F46044603260168072A01F464
:102EC000006004DB08B116A505E016A503E008B113
:102ED00015A500E015A521F010002060A069C01E16
:102EE000A0610FB1401EA0612046FFF7A7FC4FB1C3
:102EF000D4E9012138469047206A401C2062C01C5A
:102F0000206206E0206AFAE7D4E9012115F8010BF6
:102F10009047761EF8D22046FFF7A6FCBDE8F08168
:102F20004E414E006E616E00494E4600696E66006D
:102F30002DE9F047814616468AB0334878440DC8DB
:102F40008DE80D0030487844801C03AC0DC884E83F
:102F50000D0041F69B300844372190FBF1F290FBC5
:102F6000F1F5A5F1800501FB12041B3C02D564427A
:102F7000012000E00020DFF890A080460027FA44FE
:102F8000AAF1BE0A0DE0E00709D03246684607EB19
:102F900047010AEB810100F034FB8DE80700641063
:102FA0007F1C002CEFD1184F7F44AC3F18E0E8079E
:102FB00014D007EB04100DF1180A90E80E008AE80F
:102FC0000E00C068F04201D198190890324606A957
:102FD00003A800F016FB03AB83E807006D10641C28
:102FE000002DE4D132466946B8F1000F03A802D0A3
:102FF00000F0F3FA01E000F004FBC9E90001C9F8B0
:1030000008200AB0BDE8F087FC140000007B00F047
:103010008000704700487047040100207546FFF7A4
:10302000F9FFAE4605006946534620F00700854685
:1030300018B020B5FDF7E4F8BDE820404FF00006D9
:103040004FF000074FF000084FF0000B21F0070190
:10305000AC46ACE8C009ACE8C009ACE8C009ACE8D3
:10306000C0098D46704710B50446AFF30080204676
:10307000BDE81040FDF7B0B84FF0013C50F8042B0C
:1030800051F8043B9A4221D1A2EB0C03934313EA7B
:10309000CC1317D150F8042B51F8043B9A4215D1A8
:1030A000A2EB0C03934313EACC130BD150F8042B7F
:1030B00051F8043B9A4209D1A2EB0C03934313EA63
:1030C000CC13DBD04FF00000704700BFD01A01BA1C
:1030D000B1FA81F101F0180122FA01F0CB40C1F1FF
:1030E0002001DBB2C0B2C01A2CFA01F3D11A91430D
:1030F00011EAC311E6D170475FEA400C08BF91F0B6
:10310000000F4FEA8C234FEAC12243EA51514FEAA4
:103110001C5018BF00F5F0404FEA300018BF41F0D6
:1031200000415FEA6C5C00F02980BCF1FF3F08BF02
:1031300040F080407047130C06BF12044FF0100C93
:103140004FF0000C130E04BF12020CF1080C130F09
:1031500004BF12010CF1040C930F04BF92000CF198
:10316000020CD30F04BF52000CF1010C11464FF0BA
:103170000002A0F11F00A0EB0C00704711F0004FFF
:1031800008BF704731F000413FF4D5AF0B0C06BFCC
:1031900009044FF0100C4FF0000C0B0E04BF090295
:1031A0000CF1080C0B0F04BF09010CF1040C8B0F80
:1031B00004BF89000CF1020CCB0F04BF49000CF1D5
:1031C000010CCCF12003A0EB0C0022FA03F302FA6D
:1031D0000CF241EA030100F10100704720F07F4C3E
:1031E00080EA030023F07F47ACEB070303F57C5331
:1031F00000F0004003F1FF032DE980494FEA154B31
:1032000009B44FEA144325EA0B4E24EA03480FF2AF
:10321000042606EB132749083E785FEA320203FBD7
:103220000667C7F5000707FB06F64FEA54374FEA73
:10323000D64606F1020607FB066CCCF1005C4FEAAD
:103240001C472CEA074C07FB06F40CFB06F504EBC5
:1032500015464FEA961634BF00204FF000404FEA63
:10326000D13706FB07FC4FEA1C4C0CFB0BF7D21BBB
:1032700003FB0CF761EB07010CFB0EF7B0EB07400B
:1032800072EB17420CFB08F734BFA2EB0742B2EB1C
:10329000074261EB17414FEA0C444FEA910706FBE6
:1032A00007FC4FEA1C4C0CFB0BF7B0EBC74072EB72
:1032B000573203FB0CF734BFA2EBC742B2EBC74255
:1032C00061EB57310CFB0EF7B0EBC70072EB577296
:1032D0000CFB08F734BFA2EBC702B2EBC70261EBED
:1032E0005771039F4FEA816141EA921104EBCC04CC
:1032F0004FEAD1374FEA826206FB07FC42EA90129E
:103300004FEA80604FEA1C4C0CFB0BF7D21B03FB0F
:103310000CF761EB07010CFB0EF7B0EB074072EB0B
:1033200017420CFB08F734BFA2EB0742B2EB07428F
:1033300061EB17414FEA8C554FEA910704EB9C244F
:1033400006FB07FC4FEA1C4C0CFB0BF7B0EBC7402D
:1033500072EB573203FB0CF734BFA2EBC742B2EB60
:10336000C74261EB57310CFB0EF7B0EBC70072EBB5
:1033700057720CFB08F734BFA2EBC702B2EBC702CF
:1033800061EB577115EB4C254FEA816141EA9211CF
:103390004FEA82624FEAD13742EA901206FB07FCFD
:1033A00044F100044FEA80604FEA1C4C0CFB0BF721
:1033B000D21B03FB0CF761EB07010CFB0EF7B0EB24
:1033C000074072EB17420CFB08F734BFA2EB074231
:1033D000B2EB074261EB174115EB1C154FEA813147
:1033E00041EA92414FEA823242EA90424FEA80300B
:1033F0004FEA0C7644F1000448EA03434EEA0B48D6
:103400004FF0000EB2EB080C71EB030724BF6246CD
:1034100039464EEB0E0E4FF0000B00185241494159
:103420004BEB0B0BB2EB080C71EB03077BF1000BC2
:1034300024BF624639464EEB0E0E4FF0000B0018CB
:10344000524149414BEB0B0BB2EB080C71EB0307FC
:103450007BF1000B24BF624639464EEB0E0E51EA5B
:10346000020718BF46F0010616EB0E7655F1000272
:1034700054F1000103D5BDE88901BDE80088BDE82D
:103480008901BDE80048B619524141EB0101A3F1A1
:103490000103704780807F7E7D7C7B7A79787776A8
:1034A00076757473727171706F6E6E6D6C6C6B6A21
:1034B0006A696868676666656464636362616160BF
:1034C000605F5F5E5E5D5D5C5C5B5B5A5A5959583C
:1034D00058575756565555555454535352525251A6
:1034E000515050504F4F4F4E4E4D4D4D4C4C4C4BFC
:1034F0004B4B4A4A4A494949484848474747474643
:10350000464645454544444444434343434242427E
:1035100042414141002B26D4770021D01CB54FEA0F
:10352000370703B44FF010004FF010014FF00000C8
:103530000FBCBDE810400BF1010BBBF1010F08BF40
:103540005FEA170722BF12F1010211F101014FF0EA
:10355000004143F1000300F0004043EA00007047DF
:10356000F9D35708DAE746EA064613F1400F4FEA67
:1035700016461FDD13F1200FDFBF16430A46002158
:1035800020335B42C8D0C3F1200746EA064602FA60
:1035900007F74FEA164646EA0706C3F1200722FA64
:1035A00003F201FA07F721FA03F14FF0000342EAB0
:1035B0000702B1E746EA020646EA06464FEA164621
:1035C00046EA0106BCBF46EA0646360C4FF0000349
:1035D0004FF000024FF000019EE72DE9C0489346EE
:1035E00030B491E8380007C831EA400C48BF34EAEB
:1035F000430C03D5FFF7F2FDFFF78CFFF0BCBDE8ED
:1036000000882DE9C048934630B491E8380007C8D7
:1036100010F0804F08BF13F0804F03D100F005F881
:10362000FFF778FFF0BCBDE8008820F07F4780EA14
:10363000030023F07F4C07EB0C03A3F57C5300F051
:103640000040A3F1FE0392F0000F00F0B38095F06C
:10365000000F00F077802DE901494FEA11404FEA51
:10366000144621EA004800FB06FC24EA064708FB52
:1036700006F607FB08F800FB07F718EB06484CEBCB
:10368000164C4FEA124B18EB07484FEA15464CEB25
:10369000174022EA0B4E0BFB06FC25EA06470EFB01
:1036A00006F607FB0EFE0BFB07F71EEB064E4CEB78
:1036B000164C4FF000061EEB074E4CEB174B18EB69
:1036C0000B0840F1000018EB0E0B58EB000840F11E
:1036D00000008F1A4FF000013CBFC943661B14BFA6
:1036E000B5EB040C00213CBFC943F61B4FEA17445D
:1036F0004EEA8E0E27EA04454FEA1C4704FB076298
:103700002CEA074C05FB07F70CFB05F604FB0CFC49
:1037100016EB074642EB174216EB0C4642EB1C42F7
:103720001BEB060658EB0202414146EA9E0601D514
:10373000BDE80189B619524141EB0101A3F1010332
:10374000BDE801894FEA14454FEA114724EA0546CE
:1037500021EA074C05FB07F406FB07F70CFB06F113
:1037600005FB0CFC11EB074144EB17444FEA1247F1
:1037700011EB0C4144EB1C4422EA074C05FB07F219
:1037800006FB07F70CFB06F605FB0CFC16EB0746E1
:1037900042EB174216EB0C4642EB1C456A1854F1FB
:1037A000000148BF7047B619524141EB0101A3F136
:1037B0000103704795F0000F37D04FEA11424FEAEE
:1037C000144721EA024624EA074C02FB07F106FBF4
:1037D00007F70CFB06F402FB0CFC14EB074441EB6F
:1037E00017414FEA154714EB0C4441EB1C4125EA05
:1037F000074C02FB07F506FB07F70CFB06F602FB7E
:103800000CFC16EB074645EB174516EB0C4645EB53
:103810001C42121951F1000148BF7047B6195241BC
:1038200041EB0101A3F1010370474FEA14454FEA50
:10383000114724EA054621EA074C05FB07F106FB80
:1038400007F70CFB06F24FF0000605FB0CFC12EB31
:10385000074241EB174112EB0C4251EB1C4148BFB0
:103860007047921841EB0101A3F101037047490031
:1038700050EAC12018BF04204A0D18BF40F00100D3
:1038800040F2FF72B2EB515F08BF40F00200012826
:1038900008BF0520704730380A2801D20120704740
:1038A0000020704710B500290AD00878002807D0FA
:1038B00005487844FFF7E0FB002801D0002010BD48
:1038C0000248784410BD0000C20B0000BA0B000093
:1038D00021F00042A2F16052B2F5801F01F00043D6
:1038E00028BFD2F17F6C0BD95FEA001C43EAC20209
:1038F00042EB507018BF704728BF20F0010070479E
:10390000B2F5801FBCBF184670474FEA410C1CF54A
:10391000001F02D2084600F046BD70B500F0DEFA86
:1039200000000089FFF7F6BF4FF00040A0F58000CF
:103930007047000010B591EA030F48BF83F00043C1
:1039400000F12883841A71EB030C05D2121943EBA2
:103950000C03001B61EB0C01DFF824E14FEA11546A
:10396000A4EB135C1EEA430F18BF9EEA445F73D0BA
:1039700023EA0E03DCF1200E21EA045143F4801304
:1039800032D322FA0CFE10EB0E0023FA0CFE41EBB0
:103990000E01CCF1200E03FA0EFE10EB0E0051F1D9
:1039A0000001B1F5801FCCF1200E32D201EB0451A1
:1039B00012FA0EF2BDE8104058BF7047401C38BFE5
:1039C0005FEA420218BF7047002814BF20F00100D0
:1039D00041F100014FEA410313F5001F38BF704762
:1039E000A1F1C04100F0C8BA012A43EB0302ACF1D7
:1039F000200CDCF11F0E32BF4FF0000E23FA0CF347
:103A000010EB030041EB0451B4EB115FD0D0A1EBFC
:103A1000045101F5801149085FEA300001EB0451BF
:103A20000ED350F1000038BF12FA0EFE08D1BDE8E7
:103A30001040C9E7401C38BF5FEA4202CAD1C3E761
:103A4000BDE810404FEA410313F5001F38BF70472F
:103A5000A1F1C04100F090BA9EEA445F08D011EA9B
:103A60005E0FBDE8104004BF01F000410020704728
:103A7000BDE8104070B500F031FA00BF64FBBE3EF7
:103A80000000E0FF2DE9C04130B4DFF8A0C23CEAFD
:103A9000111418BF3CEA131400F0EC8081EA03050E
:103AA0001CEA111444EAD57418BF1CEA131500F07F
:103AB000C780A4EB05044FF0004545EAC12145EA63
:103AC000C32341EA505143EA525304F17F749942AF
:103AD00004F500344FEAC0204FEAC22208BF9042EA
:103AE00000F09C804FEA13650FF24016765D4FEAB6
:103AF000134506FB05F7C7F1807706FB07F74FEA8A
:103B0000D737A7FB03687642C8F58038A7FB06CEF7
:103B100038BFA8F1010807FB08E64FF0000EA6FB2E
:103B2000028CE6FB03CEDCF1000CCEF1004E38BF78
:103B3000AEF1010EA6FB0C584FF000074FF0000548
:103B4000E6FB0E87A1FB08C6A0FB07CE16EB0E0610
:103B500045F10005E1FB076515F1E04E7EBFA4F5D8
:103B600080345FEA46066D4116F1800745F1000595
:103B70004FEA17274FEA066647EA0567A6F1DE46D1
:103B8000B6F1805F4FEA15251FD9384624F0010CA5
:103B900005EBC471BCF1FE6F01EB0C1102D8F0BC57
:103BA000BDE8008124425CBF01F5801E9EEAC47F0F
:103BB00002D4F0BCBDE80081244238D4F0BCA1F1AD
:103BC000C041BDE8004100F0D7B94FEAD22242EA35
:103BD00043524FEAD323A7FB02864FEAD02040EAA4
:103BE000415007FB03661EEA0E0F4FEAD12105FB89
:103BF000026658BFA6EB0056B6EB00564FEA520ECF
:103C00004EEAC37E18EB0E0E56EB530EBDD518EBE5
:103C100002085E417F1C55F10005B6E74FF48015A0
:103C20004FF000074FF000064FF00008ADE7F0BC82
:103C30004FF0000001F1C04101F00041BDE80081FA
:103C400011EA0C1F0CEA131500D00CE013EA0C1F4C
:103C500000F025804FF00000F0BC81EA030101F084
:103C60000041BDE80081F0BCBDE8004181EA0301EC
:103C700000F082B9F0BCBDE8004170B500F02EF94B
:103C8000097EFC3E00F007B881EA03014FF0000016
:103C900001F00041704781EA030100F06DB9F0BC0A
:103CA000BDE800414FF0000021497047FFFDFBF9DE
:103CB000F7F5F4F2F0EEEDEBE9E8E6E4E3E1E0DE5F
:103CC000DDDBDAD8D7D5D4D3D1D0CFCDCCCBCAC8D1
:103CD000C7C6C5C4C2C1C0BFBEBDBCBBBAB9B8B7F8
:103CE000B6B5B4B3B2B1B0AFAEADACABAAA9A8A8EB
:103CF000A7A6A5A4A3A3A2A1A09F9F9E9D9C9C9BB9
:103D00009A99999897979695959493939291919063
:103D10008F8F8E8E8D8C8C8B8B8A898988888787F4
:103D20008685858484838382828181800000FF0769
:103D30000000F87F10F0004248BF4042B0FA80F324
:103D400010FA03F10AD0C3F11D0303F580634FEAB3
:103D5000415002EB035202EBD12170474FF00000BB
:103D60007047B0FA80F310FA03F10AD0C3F11D03D3
:103D700003F580634FEA41504FEA035202EBD12131
:103D800070474FF000007047DFF848C170B51CEA7B
:103D9000111E1EBF1CEA13159EEA0C0F95EA0C0FAC
:103DA00000F06F8081EA030423EA4C134EEAD47ECC
:103DB00021EA4C1141F4801143F48013AE44A1FB7D
:103DC000024CA0FB0365AEF17F7E361955EB0C0566
:103DD000A1FB034C4CF10003A0FB021C16EB0C06EC
:103DE000654153F10003094218BF46F0010613F480
:103DF000007F0BD14FEA03314FEA0530340341EA2B
:103E0000155140EA16506FF003020AE04FEAC32151
:103E10004FEAC520F40241EA555140EA56506FF08E
:103E2000020202EB2E4201EB025585EACE710AD066
:103E30005FEA440C18BF24F0004450F1000041F147
:103E4000000120EAD47040F2FE7C624500D270BDD1
:103E5000A84214BF4FF080444FF04044002E08BFEA
:103E60000024BEF1806FA8BFA1F1C041BDE8704041
:103E700080F282804FF0000001F1C04101F000416A
:103E800070479EEA0C0F0CEA131518BF95EA0C0F49
:103E900006D04FF0000081EA030E0EF0004170BD25
:103EA00000F01CF88900013E00F007B800F009B8E6
:103EB0004FEA430C5FEA5C5C08D081EA030100F042
:103EC0005BB84FEA410C5FEA5C5CF6D14FF0000052
:103ED000014970470000FF070000F87F0EF1020E55
:103EE0002EF0030E5EF8046B364205D4012A43EB34
:103EF000030515F5001F12D8012841EB010C1CF534
:103F0000001F0CD80ED14FEAD17C15F5001F0CEB29
:103F10004C0C0CF1020C08BF4CEBD37C04E04FF0CE
:103F2000080C01E04FEAD37C0CEB4C0526FA05F6B1
:103F300006F00706B6F1040C06D20EEB860CBDE8BF
:103F400070404CF0010C6047DFE80CF0090B0202F6
:103F50004FF000414FF00000A1F5002170BD19465F
:103F60001046012851EB010418BFD4F5001484BF9A
:103F7000002001F0004170BD0808A0F500114FEAD3
:103F80003101704710B591EA030F48BF83F0004339
:103F90003FF5D8AC841A71EB030C07D212198CF0E0
:103FA000004C43EB0C03001B61EB0C01DFF8A4E1B8
:103FB0004FEA1154A4EB135C1EEA430F18BF9EEAAC
:103FC000445F00F0B08023EA6E03524221EA0451BC
:103FD000C3EB6E0338BF5B1EDCF1200E25D322FA43
:103FE0000CFE10EB0E0043FA0CFE41EB0E01CCF17F
:103FF000200E03FA0EFE10EB0E0051F10001CCF181
:10400000200E29D412FA0EF201EB0451BDE8104043
:1040100058BF7047401C1CBFB2F1004F70470028CA
:104020000CBF491C20F00100704712EB020E43EB5D
:10403000030218BF4FF0010E4EEA4202ACF1200C11
:10404000DCF11E0E54D943FA0CFE10EB0E0051F1B8
:10405000FF31CCF11E0ED5D50EF1010E12FA0EFE77
:10406000404141EB010101EB445C5FEA5C5C10D92B
:1040700010EBDE7001EB045138BFBEF1004FBDE81C
:10408000104018BF704700280CBF491C20F00100E9
:10409000704730D24FEAD42C11F5001124F400649B
:1040A0001BD0B1FA81F20B3AA41AA41ED2F120035C
:1040B000914030FA03F31943904001EBCC71002C8E
:1040C00001EB0451BDE81040A8BF704701F1C041A9
:1040D0004FF0000001F000417047B0FA80F310FA91
:1040E00003F100D110BDE41A173C4805C90AE4E702
:1040F00001EB045110BD491001EB0451BDE8104023
:104100004FEA300002E04FF0000170474A0008BF5C
:104110000042F8D0B2F5001F28BF704701F00041FF
:104120004FF0000070479EEA445F07D011EA5E0F2F
:10413000BDE8104004BF002100207047BDE81040DA
:1041400070B5FFF7CBFE00BF40DFF63E83F00041C5
:10415000104670470000E0FF43004FEAD30C4FEADF
:104160003C0C43401FBF40070CF1605113F0FE4F61
:1041700070471CF0006F03D100200CF00041704725
:104180000CF0004343EA507010B540EACC0000F058
:10419000C4F800BF000000924FEA0001FFF7ECBE38
:1041A0004FF000414FF00000A1F5002170470000E2
:1041B00041000B0ED3F19E0208D950F400034FEAE0
:1041C000032323FA02F048BF4042704710B500F0C5
:1041D000A4F800BF49922480002070476FF000428D
:1041E00082EA20007047000010F0004148BF4042C2
:1041F000B0FA80F310FA03F2C3F19D030BD051EA39
:10420000C35101EB1220530638BF704700F1010083
:1042100008BF20F0010070474FF47F0C1CEAD01259
:104220001EBF1CEAD11392EA0C0F93EA0C0F00F0A8
:10423000478090EA010F48BF42F480724FF0004C73
:104240004CEA00204CEA012102EB0302A0FB01131F
:10425000A2F50002002918BF43F001035B0028BF4C
:104260004FEA330342EB22425FEA132C4CEBC2507D
:104270002EBFBCEB436FB2F57C0F70474FEA036C67
:10428000BCF1004F08BF20F00100B2F57C0F38BF31
:1042900070470BD582F0FF0212F5803FC8BF704710
:1042A00000F1C040D8BF00F00040704700F5000C9E
:1042B0005FEA4C0C48BF7047B0F1C04000F073B8E3
:1042C00090EA010F0CEAD11348BF42F480726245B4
:1042D00038BF634504D280EA010000F00040704717
:1042E00010B500F01AF800BF8900013E00F007B8D1
:1042F00000F009B85FEA410C5FEA1C6C08D080EA64
:10430000010000F050B85FEA400C5FEA1C6CF6D187
:104310004FF00040A0F5800070470EF1020E2EF025
:10432000030E5EF8044B244204D44FEA4102B2F17A
:104330007F4F11D84FEA4003B3F17F4F0CD80ED115
:104340004FEAD07CB2F17F4F0CEB4C0C0CF1020C1D
:1043500008BF4CEBD17C04E04FF0080C01E04FEAC1
:10436000D17C0CEB4C0324FA03F404F00704B4F101
:10437000040C06D20EEB840CBDE810404CF0010C8E
:104380006047DFE80CF0070802024FF00040A0F59C
:10439000800010BD0846420018BFD2F1807288BF6D
:1043A00000F0004010BDFF2141EAD050C005704729
:1043B000FEF7CDBB34431010013443101001000050
:1043C00002400000000000A00000000005400000C6
:1043D000000000C8000000000C4000000000409CED
:1043E00000000000194000000020BCBE00000000DA
:1043F00034400000BFC91B8E00000004B54000001F
:10440000504BCFD06607E2CF010000006C410000A6
:104410003E8251AADFEEA73401000000D94200001D
:10442000DCB5A0E23A301F97FFFFFFFFB445000064
:10443000FD25A0C8E9A3C14FFFFFFFFFFF3F00001C
:104440000000008000000000FF3F0000000000802E
:104450000000000090440008000000203C00000024
:104460006C010008CC4400083C0000202C07000030
:10447000880100081C00000043000000F8FFFFFF57
:104480000C0000000E0000000F0000002E000000D5
:1044900000A24A0400000000000000000102030422
:1044A000060708090000803F00000000000000002F
:1044B00000000000000000000000010203040102EF
:0C44C000030406070809020406080000B7
:0400000508000131BD
:00000001FF
