:020000040800F2
:10000000E83F00200D020008150200081702000852
:10001000190200081B0200081D0200080000000071
:100020000000000000000000000000001F020008A7
:100030002102000800000000230200082502000839
:1000400027020008270200082702000827020008EC
:1000500027020008270200082702000827020008DC
:1000600027020008270200082702000827020008CC
:1000700027020008270200082702000827020008BC
:1000800027020008270200082702000827020008AC
:10009000270200082702000827020008270200089C
:1000A000270200082702000827020008270200088C
:1000B00027020008DF0A00082702000827020008BC
:1000C000270200082702000827020008270200086C
:1000D0002702000875070008270200082702000809
:1000E000270200082702000827020008270200084C
:1000F000270200082702000827020008270200083C
:10010000270200082702000827020008270200082B
:10011000270200082702000827020008270200081B
:10012000270200082702000827020008270200080B
:1001300000F002F800F05AF80AA090E8000C82449F
:100140008344AAF10107DA4501D100F04FF8AFF27C
:10015000090EBAE80F0013F0010F18BFFB1A43F0A5
:1001600001031847502B0000702B00000A444FF089
:10017000000C10F8013B13F0070408BF10F8014B06
:100180001D1108BF10F8015B641E05D010F8016B4B
:10019000641E01F8016BF9D113F0080F1EBF10F8AF
:1001A000014BAD1C0C1B09D16D1E58BF01F801CBD2
:1001B000FAD505E014F8016B01F8016B6D1EF9D555
:1001C0009142D6D37047000000230024002500266A
:1001D000103A28BF78C1FBD8520728BF30C148BFAA
:1001E0000B6070471FB51FBD10B510BD02F01CFDA0
:1001F0001146FFF7F7FF00F019F902F04EFD03B4C6
:10020000FFF7F2FF03BC00F06FFA000009488047D7
:1002100009480047FEE7FEE7FEE7FEE7FEE7FEE7E8
:10022000FEE7FEE7FEE7FEE704480549054A064B00
:10023000704700002B03000831010008E839002056
:10024000E83F0020E83B0020E83B00200CB5002000
:10025000019000906C48006840F480306A49086062
:1002600000BF6948006800F4003000900198401C0D
:100270000190009818B90198B0F5A06FF1D16248CB
:10028000006800F4003010B10120009001E000206F
:1002900000900098012843D15C48006840F01000AD
:1002A0005A4908600846006820F0030008600846C4
:1002B000006840F0020008605348406852494860B6
:1002C0000846406848600846406840F480604860DE
:1002D0000846406820F47C1048600846406840F4B6
:1002E000E81048600846006840F08070086000BF71
:1002F0004548006800F000700028F9D04248406886
:1003000020F00300404948600846406840F0020081
:10031000486000BF3C48406800F00C000828F9D154
:100320000CBD10B5FFF792FF10BD10B53648006840
:1003300040F00100344908600846406834490840EC
:100340003149486008460068324908402E49086033
:100350000846006820F4802008600846406820F4C1
:10036000FE0048604FF41F008860FFF7DAFF4FF08F
:1003700000602949086010BD10B50021002000224E
:10038000214B5B6803F00C0121B1042906D0082938
:1003900028D107E0214B224C236027E01F4B204C43
:1003A000236023E0184B5B6803F47010164B5B6806
:1003B00003F48032022303EB904022B9194B4343EC
:1003C000174C23600DE0104B5B6803F4003323B13E
:1003D000144B4343124C236003E0104B4343104C37
:1003E000236003E00D4B0E4C236000BF00BF064BA3
:1003F0005B68C3F303130C4CE15C094B1B68CB40F7
:10040000074C236010BD0000001002400020024095
:100410000000FFF8FFFFF6FE08ED00E000127A0092
:100420000000002000093D0004000020A6B000BF2D
:1004300000BF00BF00BF00260027002500BF00BF8F
:10044000482000F087F800F0E9F800F0FEF800F02E
:100450000CF900F02EF94FF4A06000F055FB4FF4BA
:10046000165000F04FF900F03BFA932301AA3149EE
:10047000314800F0C9FA472140F2E73000F002FBB2
:100480002EA002F093FB53E093208DF80400FA2095
:100490008DF805008DF80660701CC6B2002418E0C7
:1004A000482000FB0540294931F81000C0F307112E
:1004B0006000C01C01AA1154482000FB05402349DC
:1004C00011F810000007010E6000001D1154601C9F
:1004D000C4B2482CE4DB681CC5B2472D00DD002502
:1004E000012280211348001F00F07CFC124800F01C
:1004F000B4FA09E04FF4005001F01CFF20B14FF4B2
:10050000005001F02BFF00E0F4E700BF642000F092
:100510003BF80FB9012000E00020074627B1202159
:100520000B4801F07EFD03E02021094801F07BFD2E
:10053000AAE7000004380140440002405465737487
:100540002073756363657373210D0A001400002026
:10055000000C014010B504466FF0040000F023FBCE
:10056000E11704EB5171C1F3C7012A4A117010461B
:10057000007800EB4001C1EBC0104FF6FF7101EABB
:10058000C0002549088010BD0146234A12884A430D
:100590004FF0E0235A6100229A6101221A6100BFE4
:1005A0004FF0E022106900F001021AB100F480322D
:1005B000002AF5D000224FF0E0231A619A617047BB
:1005C0000146144A12784A434FF0E0235A61002250
:1005D0009A6101221A6100BF4FF0E022106900F019
:1005E00001021AB100F48032002AF5D000224FF047
:1005F000E0231A619A61704730B50446002505E092
:100600004FF47A70FFF7C0FF681CC5B2A542F7DB54
:1006100030BD0000583800205A38002008B50121AC
:10062000082002F037F82020ADF8000010208DF8E7
:10063000030003208DF802006946264801F044FCBF
:100640002021244801F0EDFC08BD08B5012140201F
:1006500002F020F81020ADF8000048208DF80300CB
:1006600069461D4801F030FC08BD08B50121202075
:1006700002F010F80E20ADF8000010208DF80300F5
:1006800003208DF802006946144801F01DFC08BDE6
:1006900000F00101124A116000F002014910114AF4
:1006A000C2F8881100F0040189100D4A0832116067
:1006B000704710B52021074801F0B5FC3220FFF744
:1006C00063FF2021034801F0ACFC3220FFF75CFF00
:1006D00010BD0000000C0140001801400014014052
:1006E000848122420080224200BF704700BF774AC7
:1006F000128802F04002002AF9D0C2B2734B1B1DCF
:100700001A80704710B586B00446012144F20400F7
:1007100001F0C0FF4FF40070ADF8140003208DF815
:10072000160018208DF8170005A9694801F0CCFBC8
:100730004FF48060ADF8140004208DF8170005A96F
:10074000634801F0C1FB01940020ADF80800ADF84A
:100750000A00ADF80C00ADF810000820ADF80E004E
:1007600001A95A4800F081FA0121584800F009FB1C
:1007700006B010BD10B540F22551544800F0F2FB10
:1007800010B3524800F06EFBC4B25248008800F427
:100790000040C8B94F48008800F4804060B10A2C7E
:1007A00003D000204B49088020E04A48008840F4EC
:1007B00000404849088019E00D2C06D145480088C2
:1007C00040F480404349088010E042480088C0F36C
:1007D0000D0041490C543F480088401C3D490880A9
:1007E00008460088C72801DD0020088010BD10B52C
:1007F00086B004460121480401F059FF012104207C
:1008000001F048FF0420ADF8140003208DF8160015
:1008100018208DF8170005A92D4801F055FB082078
:10082000ADF8140004208DF8170005A9284801F040
:100830004BFB26208DF8000003208DF801000220DC
:100840008DF8020001208DF80300684600F061F980
:1008500001940020ADF80800ADF80A00ADF80C00D6
:10086000ADF810000C20ADF80E0001A91B4800F0F7
:10087000FCF9012240F22551184800F08EFA0121BE
:10088000164800F07EFA8021144800F062FB4021F7
:10089000124800F05EFB06B010BD70B5054600249E
:1008A00040210E4800F055FB00BF0CE0295D0B48CD
:1008B00000F0D4FA00BF4021084800F03DFB0128B9
:1008C000F9D1601CC4B2632CF0DB70BD003801406C
:1008D00000080140603800207C38002000440040BF
:1008E00000B591B001214FF4047001F0D3FE012155
:1008F000084601F0C2FE404801F034FC3F48009039
:100900003F480190002002900920039000200490AD
:1009100080200590400006908000079020200890DD
:100920000002099000200A906946334801F0BCFC9F
:100930000121314801F0E3FC4FF4004001F00EFECC
:100940000320ADF82C0000208DF82F000BA92D48B6
:1009500001F0BAFA29484C3801F000FF00200C9051
:1009600001208DF834008DF835004FF460200E9092
:1009700000200F9009208DF840000CA91F484C382A
:1009800001F013FF01211D484C3801F03AFF052307
:1009900001220A2119484C3801F09FFF0523022249
:1009A0000B2116484C3801F098FF012113484C38B0
:1009B00001F032FF012111484C3801F022FF0F48AD
:1009C0004C3801F040FF00BF0C484C3801F040FFAC
:1009D0000028F9D109484C3801F044FF00BF07480E
:1009E0004C3801F044FF0028F9D1012103484C386C
:1009F00001F047FF11B000BD080002404C24014047
:100A000044390020001001402DE9F04107460D4611
:100A100016461C460121084601F02FFE384601F01B
:100A2000A1FB164804801648056046601020144952
:100A300088600846C460002008618020486100206A
:100A40008861C86108624FF4805048620020886263
:100A5000384601F029FCBDE8F08110B504460021BC
:100A6000204601F04CFC05480188204601F05CFC62
:100A70000121204601F043FC10BD00006238002037
:100A8000583900207FB505460C460121022001F0AF
:100A90000EFEADF80850ADF804400020ADF80A0095
:100AA000ADF8060001A9164800F074FB01221146BA
:100AB000134800F0E6FE1D208DF8000000208DF8A0
:100AC000010003208DF8020001208DF80300684624
:100AD00000F01FF800210A4800F0B8FE7FBD10B5F5
:100AE0000121074801F07BF940B10121044801F0E0
:100AF00087F904480088401C0249088010BD0000A6
:100B0000000400406438002031490143314A11603B
:100B1000704770B5002100230F22C47804B32D4C18
:100B2000246804F4E064C4F5E064210AC1F104031C
:100B3000CA40447804FA03F184781440214309013F
:100B4000254C0678A155047804F01F050124AC401B
:100B500005786D11AD0005F1E025C5F8004109E00B
:100B6000047804F01F050124AC401C4D0678761172
:100B700045F8264070BD1A4A0A400243154B1B1F18
:100B80001A60704739B1134A121D12680243114BA3
:100B90001B1D1A6006E00F4A121D126882430D4B9E
:100BA0001B1D1A607047042808D14FF0E021096925
:100BB00041F004014FF0E022116107E04FF0E02125
:100BC000096921F004014FF0E02211617047000033
:100BD0000000FA050CED00E000E400E080E100E038
:100BE00080FFFF1F10B50446FB48844209D1012154
:100BF000880301F069FD00214FF4804001F064FD9D
:100C000032E0F648844209D10121480401F069FD2F
:100C100000214FF4003001F064FD25E0F0488442EB
:100C200009D10121880401F05CFD00214FF48020EE
:100C300001F057FD18E0EB48844209D10121C804B6
:100C400001F04FFD00214FF4002001F04AFD0BE0C0
:100C5000E548844208D10121080501F042FD002148
:100C60004FF4801001F03DFD10BD2DE9F04786B036
:100C700005460E460024A24600BFA1460027B089C3
:100C800000B100BF2F462C8A4CF6FF700440F0885C
:100C900004432C82AC894EF6F3100440B0883189AD
:100CA0000843718908430443AC81AC8A4FF6FF4086
:100CB0000440B0890443AC8201A801F07EFCC64820
:100CC000874202D1DDF810A001E0DDF80CA0A88970
:100CD00000F4004040B10AEBCA0000EB0A10316892
:100CE0004900B0FBF1F807E00AEBCA0000EB0A107C
:100CF00031688900B0FBF1F86420B8FBF0F0040122
:100D00002009642101FB1089A88900F4004040B14A
:100D1000322000EBC900B0FBF1F000F00700044303
:100D200008E0322000EB09106421B0FBF1F000F084
:100D30000F0004432C8106B0BDE8F0874FF4165134
:100D4000016000218180C18001810C21418100214D
:100D50008181704710B502460020108A4FF2FF03D0
:100D600018400B884C8823438C882343CC8823432A
:100D70001843108210BD0021018041808180C18014
:100D8000704721B1828942F40052828104E0828955
:100D90004DF6FF731A4082817047F0B50346002478
:100DA00000260025002040F66A17B94200D100BF96
:100DB0001846C1F3421401F01F06012707FA06F591
:100DC000012C01D10C3004E0022C01D1103000E0E4
:100DD00014301AB107682F43076002E00768AF4379
:100DE0000760F0BD1AB1838A0B43838202E0838AD5
:100DF0008B4383827047028A4FF6F0731A40028257
:100E0000028A0A430282704782894FF2FF731A40B6
:100E1000828182890A438281704721B1828942F0AE
:100E20000202828104E082894FF6FD731A408281BA
:100E30007047028A4FF6DF731A400282028A0A4321
:100E40000282704721B1028A42F48042028204E0A9
:100E5000028A4BF6FF731A4002827047C1F3080200
:100E60008280704701468888C0F3080070478189F6
:100E700041F0010181817047028BD2B20283028B63
:100E800042EA012202837047028B02F47F4202830E
:100E9000028B0A430283704721B1828A42F020020A
:100EA000828204E0828A4FF6DF731A4082827047A2
:100EB00021B1828A42F01002828204E0828A4FF6D7
:100EC000EF731A408282704721B1828A42F0080291
:100ED000828204E0828A4FF6F7731A40828270475A
:100EE00021B1828942F40042828103E08289C2F307
:100EF0000E028281704721B1828A42F400628282AE
:100F000004E0828A4FF2FF731A4082827047828A1D
:100F10004FF6FB731A408282828A0A4382827047AC
:100F200021B1828A42F00202828204E0828A4FF674
:100F3000FD731A408282704702460020B1F5007F9F
:100F400000D100BF13880B400BB1012000E000204E
:100F5000704701F40072B2F5007F00D100BFCA43B0
:100F60000280704770B5024600240023002500204F
:100F700040F66A16B14200D100BFC1F3421501F03C
:100F80001F03012606FA03F3012D02D1968933408F
:100F900006E0022D02D1168A334001E0968A3340E2
:100FA0000C12012606FA04F41688344013B10CB171
:100FB000012000E0002070BD10B50022002340F6A3
:100FC0006A14A14200D100BF0A1201249440A3B2C6
:100FD000DC43048010BD00000038014000440040A4
:100FE00000480040004C00400050004010B504464E
:100FF000FE48844208D10121C01401F065FB0021A4
:10100000E01401F061FBC4E0B4F1804F08D101218C
:10101000084601F066FB0021012001F062FBB8E008
:10102000F348844208D10121022001F05AFB00213B
:10103000022001F056FBACE0EE48844208D10121C9
:10104000042001F04EFB0021042001F04AFBA0E047
:10105000E948844208D10121082001F042FB002127
:10106000082001F03EFB94E0E448844208D10121CD
:10107000102001F036FB0021102001F032FB88E047
:10108000DF48844208D10121202001F02AFB002101
:10109000202001F026FB7CE0DA48844208D10121BF
:1010A000401401F011FB0021601401F00DFB70E011
:1010B000D548844209D10121C80401F005FB002173
:1010C0004FF4002001F000FB63E0D048844209D1D6
:1010D0000121080501F0F8FA00214FF4801001F019
:1010E000F3FA56E0CA48844209D10121480501F0CB
:1010F000EBFA00214FF4001001F0E6FA49E0C54890
:10110000844208D10121402001F0EBFA0021402067
:1011100001F0E7FA3DE0C048844208D10121802077
:1011200001F0DFFA0021802001F0DBFA31E0BB485A
:10113000844208D10121801501F0D3FA0021A015C5
:1011400001F0CFFA25E0B648844209D10121080414
:1011500001F0BAFA00214FF4803001F0B5FA18E03E
:10116000B048844209D10121480401F0ADFA0021C0
:101170004FF4003001F0A8FA0BE0AB48844208D1EC
:101180000121880401F0A0FA00214FF4802001F031
:101190009BFA10BD00220288944B98420ED0994BC6
:1011A00098420BD0B0F1804F08D0914B984205D0B7
:1011B000904B984202D0904B984204D14FF68F73D7
:1011C0001A404B881A438D4B984207D08C4B98425B
:1011D00004D04FF6FF431A40CB881A4302808B8815
:1011E00083850B880385814B98420BD0854B9842B1
:1011F00008D08B4B984205D08A4B984202D08A4B3C
:10120000984201D10B7A038601238382704770B51F
:10121000002400220023058C4FF6FE76354005841D
:10122000028C8388048B4FF68F752C40B51E2C40A2
:101230000D882C43751E2A400D892A434D882A4368
:101240006A4DA8420BD06F4DA84208D0744DA842F9
:1012500005D0744DA84202D0734DA84213D14FF669
:10126000F7752A404D892A434FF6FB752A408D8831
:101270002A434FF6FF652B404FF6FF552B408D89D3
:101280002B43CD892B4383800483CD8885860284BC
:1012900070BD70B5002400220023058C4FF6EF7658
:1012A00035400584028C8388048B48F6FF752C40FA
:1012B0004FF6FF452C400D884FF6FF7606EA0525D0
:1012C0002C434FF6DF752A400D8906EA05152A439F
:1012D0004D8806EA05152A43444DA84202D0494DDF
:1012E000A8421DD14FF67F752A404D894FF6FF76F3
:1012F00006EA05152A434FF6BF752A408D8806EA8F
:1013000005152A434FF6FF352B404FF2FF752B4052
:101310008D8906EA85052B43CD8906EA85052B4391
:1013200083800483CD880587028470BD70B5002456
:1013300000220023058C4FF6FF6635400584028CA1
:101340008388848B4FF68F752C404FF6FC752C40AC
:101350000D882C434FF6FF552A400D894FF6FF7636
:1013600006EA05252A434D8806EA05252A431F4D2E
:10137000A84202D0234DA8421DD14FF2FF752A404A
:101380004D894FF6FF7606EA05252A434FF6FF35CD
:101390002A408D8806EA05252A434EF6FF752B4024
:1013A0004DF6FF752B408D8906EA05152B43CD8937
:1013B00006EA05152B4383808483CD8885870284C4
:1013C00070BD70B5002200230024058C4EF6FF7618
:1013D00035400584038C8488828B48F6FF752A404B
:1013E0004FF6FF452A400D8820E00000002C014008
:1013F0000004004000080040000C004000100040C5
:101400000014004000340140004C014000500140F5
:101410000054014000180040001C00400020004023
:101420000040014000440140004801404FF6FF7673
:1014300006EA05252A434DF6FF752B400D8906EA7D
:1014400005352B434D8806EA05352B43FA4DA84256
:1014500002D0FA4DA84208D14BF6FF752C408D8979
:101460004FF6FF7606EA85152C4384808283CD886B
:10147000A0F84050038470BD828B4FF2FF331A40B6
:101480008283828B4FF6FF7303EA01231A43828320
:101490007047F0B50C461546002200210026078C47
:1014A0004EF6FF7C07EA0C070784828B018C4FF60F
:1014B000FF7707EA043640F6FF473A404FF6FF77DA
:1014C00007EA05273A434FF6FF7707EA03373A431F
:1014D000D94FB8420ED0D94FB8420BD0B0F1804F9F
:1014E00008D0D74FB84205D0D64FB84202D0D64F19
:1014F000B84206D14DF6FF77394046F4805739435C
:1015000005E047F6FF57394044F48057394382835A
:101510000184F0BD828B4FF6F3731A408283828B75
:101520000A4382837047F0B50C461546002200211D
:101530000026078C4FF6FF6C07EA0C070784828BA6
:10154000018C4FF6FF7707EA04264FF60C773A40F6
:101550004FF6FF7707EA03172F433A43B64FB842D7
:101560000ED0B64FB8420BD0B0F1804F08D0B44F78
:10157000B84205D0B34FB84202D0B34FB84206D1FB
:101580004FF6FF57394046F48077394305E04FF274
:10159000FF57394044F48077394382830184F0BD9A
:1015A000028B4FF2FF331A400283028B4FF6FF7318
:1015B00003EA01231A4302837047F0B50C4615462F
:1015C000002200210026078C4FF6EF7C07EA0C076B
:1015D0000784028B018C4FF6FF7707EA041640F66A
:1015E000FF473A404FF6FF7707EA03373A434FF693
:1015F000FF7707EA05273A438F4FB8420ED08F4F47
:10160000B8420BD0B0F1804F08D08D4FB84205D012
:101610008C4FB84202D08C4FB84206D14FF6DF77DC
:10162000394046F01007394305E04FF65F773940FF
:1016300044F01007394302830184F0BD028B4FF65A
:10164000F3731A400283028B0A4302837047F0B59A
:101650000C46154600220021068C4FF6FE773E40D0
:101660000684028B018C4FF60C7632407E1C06EA13
:1016700003162E433243704EB0420ED06F4EB0422E
:101680000BD0B0F1804F08D06D4EB04205D06D4EFA
:10169000B04202D06C4EB04206D14FF6FD763140DA
:1016A00044F00106314305E04FF6F576314044F051
:1016B0000106314302830184F0BD70B505460C4636
:1016C0005D4885420ED05D4885420BD0B5F1804F14
:1016D00008D05B48854205D05A48854202D05A4816
:1016E000854200D100E000BF208850B92389A2883C
:1016F00061882846FFF7ABFFE1882846FFF79EFF89
:1017000025E0208804280AD12389A28861882846F8
:10171000FFF753FFE1882846FFF742FF17E02088D4
:1017200008280AD12389A28861882846FFF7FBFE92
:10173000E1882846FFF7EEFE09E02389A288618848
:101740002846FFF7A6FEE1882846FFF795FE70BD04
:101750002DE9F04105460C4600260127608808B9AE
:10176000022600E00026A088012801D1022700E01F
:1017700001272088A0B92389A28861882846FFF71D
:1017800066FFE1882846FFF759FF23893A4631462C
:101790002846FFF712FFE1882846FFF701FF13E014
:1017A0002389A28861882846FFF707FFE188284639
:1017B000FFF7F6FE23893A4631462846FFF747FFF2
:1017C000E1882846FFF73AFFBDE8F0810A884B8898
:1017D0001A438B881A43CB881A430B891A434B89C7
:1017E0001A438B891A43A0F8442070474FF6FF71C3
:1017F000818000210180C1804180017270470021F9
:10180000018041808180C180018141818181C181CC
:101810007047002101804180012181800021C18029
:10182000018170470021018041808180C180018158
:101830004181818170470000002C0140003401404B
:101840000004004000080040000C004021B1028864
:1018500042F00102028004E002884FF6FE731A4053
:101860000280704731B1B0F8442042F40042A0F841
:10187000442005E0B0F84420C2F30E02A0F8442052
:1018800070471AB183890B43838102E083898B43BC
:10189000838170478182704741EA0203A0F8483093
:1018A00070471AB183890B43838102E083898B439C
:1018B0008381704701894FF6F872114001817047AA
:1018C0000A46002101894FF68F73194011430181A7
:1018D000704730B504460D4629462046FFF7F0FF15
:1018E000208940F00700208130BD2DE9F0410446F9
:1018F0000D4616461F46602D06D13B460122314655
:101900002046FFF75AFE05E03B46012231462046BD
:10191000FFF79DFE29462046FFF7D2FF208940F0C1
:1019200007002081BDE8F08130B50C460021018917
:10193000C9B24FF6FF7505EA032515432543294330
:10194000018130BD2DE9F04105460E461746984607
:10195000002443463A4631462846FFF7E5FF2C89E6
:101960004FF6F870044044F007044FF68F700440BF
:1019700044F070042C81BDE8F081F0B504460D46BA
:1019800016461F463B46324629462046FFF7CCFF07
:10199000208940F480402081F0BD0185828270471B
:1019A0000A46002101884FF68F73194011430180C8
:1019B0007047F0B50C4615461E4600210022002354
:1019C0000189028B038C4FF6F877394021434FF69B
:1019D000FC473A4040F201173A434FF6DD773B406F
:1019E0004FF6FF7707EA06172F433B430181028337
:1019F0000384F0BD0A460021018B4FF68F73194016
:101A00001143018370470A460021018B48F6FF739A
:101A100019404FF6FF7303EA02231943018370470D
:101A20000A460021818B4FF68F7319401143818341
:101A300070470A460021818B48F6FF7319404FF624
:101A4000FF7303EA022319438183704721B102889F
:101A500042F08002028004E002884FF67F731A4051
:101A60000280704721B1828842F00402828004E043
:101A700082884FF6FB731A408280704721B18288BA
:101A800042F00802828004E082884FF6F7731A4021
:101A90008280704721B1828842F00102828004E096
:101AA00082884FF6FE731A40828070470A460021F2
:101AB000018B4FF6F77319401143018370470A46B3
:101AC0000021018B4FF2FF7319404FF6FF7303EAB9
:101AD00002231943018370470A460021818B4FF688
:101AE000F77319401143818370470A460021818BA7
:101AF0004FF2FF7319404FF6FF7303EA02231943B5
:101B0000818370470A460021018B4FF6FB73194011
:101B10001143018370470A460021018B4FF6FF33C2
:101B200019404FF6FF7303EA0223194301837047FC
:101B30000A460021818B4FF6FB73194011438183C4
:101B400070470A460021818B4FF6FF3319404FF64C
:101B5000FF7303EA02231943818370470A46002179
:101B6000018B4FF67F7319401143018370470A467A
:101B70000021018BC1F30E014FF6FF7303EA02232C
:101B80001943018370470A460021818B4FF67F730A
:101B900019401143818370470A460021818BC1F3AC
:101BA0000E014FF6FF7303EA022319438183704746
:101BB0000A460021018C4FF6FD7319401143018440
:101BC00070470A460021018C4FF6F7731940114304
:101BD000018470470A460021018C4FF6DF731940DB
:101BE0004FF6FF7303EA02131943018470470A4654
:101BF0000021018C4FF67F7319404FF6FF7303EA03
:101C000002131943018470470A460021018C4FF6E4
:101C1000FF5319404FF6FF7303EA0223194301846F
:101C200070470A460021018C4FF2FF7319404FF6AE
:101C3000FF7303EA02231943018470470A46002117
:101C4000018C4DF6FF7319404FF6FF7303EA023320
:101C500019430184704730B5002301248C40A3B29E
:101C6000048C9C430484048C02FA01F5ADB22C432D
:101C7000048430BD30B5002304248C40A3B2048C0E
:101C80009C430484048C02FA01F5ADB22C43048415
:101C900030BD70B5034600200024184618300125D9
:101CA0008D40ACB21D8CA5431D8409B1082909D112
:101CB00000EB6100056825F07005056005681543B7
:101CC00005600EE00D1FC5F34E052844056825F498
:101CD000E045056005684FF6FF7606EA02263543C3
:101CE000056070BD21B1028842F00202028004E06A
:101CF00002884FF6FD731A400280704721B10288B6
:101D000042F00402028004E002884FF6FB731A409E
:101D10000280704721B1828842F08002828004E014
:101D200082884FF67F731A408280704702884FF690
:101D3000F7731A40028002880A4302807047828843
:101D40004FF68F731A40828082880A4382807047E0
:101D500002894FF6F8731A40028102890A43028110
:101D6000704702894FF67F731A40028102890A4345
:101D700002817047818470478185704781867047F2
:101D80000187704781877047A0F84010704702882C
:101D90004FF6FF431A40028002880A4302807047D0
:101DA0000146888E70470146088F70470146888F2C
:101DB00070470146B1F8400070470146888C704773
:101DC0000146088D704702460020138A0B400BB174
:101DD000012000E000207047CA430282704730B5FE
:101DE0000246002000230024158A05EA0103958994
:101DF00005EA010413B10CB1012000E0002030BD60
:101E0000CA4302827047000010B50446CC488442A1
:101E100008D10121042000F057FC0021042000F02B
:101E200053FC46E0C748844208D10121082000F055
:101E30004BFC0021082000F047FC3AE0C2488442F5
:101E400008D10121102000F03FFC0021102000F0FB
:101E50003BFC2EE0BD48844208D10121202000F047
:101E600033FC0021202000F02FFC22E0B8488442FF
:101E700008D10121402000F027FC0021402000F083
:101E800023FC16E0B348844208D10121802000F0F1
:101E90001BFC0021802000F017FC0AE0AE488442C1
:101EA00007D10121801500F00FFC0021A01500F0E2
:101EB0000BFC10BD10B50121084600F005FC002107
:101EC000012000F001FC10BD2DE9F0410246002583
:101ED0000026002000230024002791F803C00CF006
:101EE0000F0591F803C00CF0100CBCF1000F03D0EB
:101EF00091F802C04CEA050591F800C0BCF1000F52
:101F000031D0146800202BE04FF0010C0CFA00F3E4
:101F1000B1F800C00CEA03069E4220D183004FF0C6
:101F20000F0C0CFA03F7BC4305FA03FC4CEA04045B
:101F300091F803C0BCF1280F06D14FF0010C0CFA48
:101F400000FCC2F814C00AE091F803C0BCF1480FCD
:101F500005D14FF0010C0CFA00FCC2F810C0401C77
:101F60000828D1D31460B1F800C0BCF1FF0F34DDF4
:101F7000546800202EE000F1080C4FF0010808FA28
:101F80000CF3B1F800C00CEA03069E4221D1830095
:101F90004FF00F0C0CFA03F7BC4305FA03FC4CEAB4
:101FA000040491F803C0BCF1280F05D100F1080C1E
:101FB00008FA0CF8C2F8148091F803C0BCF1480F7D
:101FC00007D100F1080C4FF0010808FA0CF8C2F82C
:101FD0001080401C0828CED35460BDE8F0814FF635
:101FE000FF710180022181700421C1707047024697
:101FF000002093680B400BB1012000E000207047E7
:102000000146886880B2704702460020D3680B40C2
:102010000BB1012000E0002070470146C86880B283
:10202000704701617047416170470AB1016100E08A
:1020300041617047C16070474FF480320A4382614A
:102040008161826182698269704702460020434B48
:1020500018684FF68073184040EA021008433F4B5F
:10206000186070473E49C8617047F0B50A460023C2
:1020700000240021002500F00046B6F1004F02D1F7
:10208000364EF16901E0354E7168C0F3034583B205
:1020900000F44016B6F5401F08D121F070612F4EB4
:1020A000766826F070662D4F7E6012E000F4801690
:1020B000B6F5801F06D1032606FA05F4A14341F0C8
:1020C000706106E0460D360103FA06F6B14341F0B1
:1020D000706122B1460D360103FA06F6314300F075
:1020E0000046B6F1004F02D11C4EF16101E01B4EDB
:1020F0007160F0BD30B500228B071C0F0F2303FA6F
:1021000004F2164B08338C1053F824309343134CCD
:1021100008348D1044F8253023468C1053F82430B1
:102120008C07240F00FA04F423430C4C08348D1060
:1021300044F8253030BD0A49DC31086070470000A2
:1021400000080140000C0140001001400014014053
:1021500000180140001C0140002001400000014027
:102160000000204201684FF6FE721140016000211C
:10217000016041608160C1608D49884208D18C490D
:102180000839496841F00F01894A083A51608AE0EC
:1021900087491431884208D185490839496841F096
:1021A000F001834A083A51607DE081492831884234
:1021B00008D17F490839496841F470617C4A083A7E
:1021C000516070E07A493C31884208D17849083939
:1021D000496841F47041764A083A516063E07449B5
:1021E0005031884208D172490839496841F4702158
:1021F0006F4A083A516056E06D496431884208D10F
:102200006B490839496841F47001694A083A5160DC
:1022100049E067497831884208D1654908394968F9
:1022200041F07061624A083A51603CE0614988427D
:1022300006D1011F096841F00F01021F116032E051
:102240005C491431884208D15A49091F096841F094
:10225000F001584A121F116025E056492831884282
:1022600008D15449091F096841F47061514A121F8D
:10227000116018E04F493C31884208D14D49091F8F
:10228000096841F470414B4A121F11600BE0494943
:102290005031884207D14749091F096841F470212C
:1022A000444A121F1160704710B50022026847F6B9
:1022B000F0739A430C6A8B6823430C6923434C697F
:1022C00023438C692343CC6923434C6A23438C6AA0
:1022D00023431A430260CB6843600B6883604B68FA
:1022E000C36010BD0021016041608160C160016177
:1022F00041618161C161016241628162704721B1C6
:10230000026842F00102026004E002684FF6FE73C8
:102310001A40026070471AB103680B43036002E081
:1023200003688B430360704741607047014648680B
:1023300080B2704701460020002201F080531BB19B
:102340001C4B083B1A6802E0194B083B1A6802EA6A
:1023500001030BB1012000E00020704700F0805124
:1023600019B11449091F086002E011490839486091
:10237000704701460020002201F080531BB10D4B35
:10238000083B1A6802E00A4B083B1A6802EA01039C
:102390000BB1012000E00020704700F0805119B11E
:1023A0000449091F086002E0014908394860704784
:1023B0000800024008040240DF48006840F00100C5
:1023C000DD49086008464068DC490840DA49486051
:1023D00008460068DA490840D7490860084600689E
:1023E00020F4802008600846406820F4FE00486021
:1023F0004FF41F0088607047CF49096821F480318D
:10240000CD4A11601146096821F480211160B0F5B0
:10241000803F03D0B0F5802F0ED106E0C649096891
:1024200041F48031C44A116007E0C349096841F4AE
:10243000A021C14A116000E000BF00BF704710B585
:1024400001460022002300204A11012A02D1BA4C81
:10245000236806E0022A02D1B74C236A01E0B64C99
:10246000636A01F01F02012494401C400CB101205A
:1024700000E0002010BD38B50020009000240025A9
:1024800000BF3120FFF7DBFF05460098401C00909D
:102490000098B0F5A06F01D0002DF2D03120FFF7E9
:1024A000CEFF08B1012400E00024204638BD0146DB
:1024B0000020A14A106820F0F80040EAC100106036
:1024C0007047A04908607047024600209A4B586840
:1024D00020F47C1042EA01031843974B5860704780
:1024E00098490866704701460020934A506820F0DA
:1024F00003000843506070478F48406800F00C00AC
:102500007047014600208C4A506820F0F0000843D4
:102510005060704701460020874A506820F4E06010
:1025200008435060704701460020834A506820F4F9
:10253000605040EAC1005060704729B17E4A527A2B
:1025400002437D4B5A7204E07B4A527A82437A4BB3
:102550005A7270477B49D8310860704701460020A5
:10256000754A506820F4404008435060704700218D
:10257000714A20321170704A82F82010012802D06E
:1025800004280AD104E001216B4A2032117005E0D1
:102590000521694A2032117000E000BF00BF70477A
:1025A0006949086070476449096A0143624A1162D7
:1025B0007047654944390860704730B500210022F2
:1025C000002400235C4D6D6805F00C0121B1042945
:1025D00005D0082923D105E05C4D056022E05B4D64
:1025E00005601FE0544D6D6805F47012524D6D6822
:1025F00005F48034022505EB92421CB9544D554335
:1026000005600BE04C4D6D6805F400351DB1504D73
:102610005543056002E04D4D5543056002E04B4DCA
:10262000056000BF00BF444D6D6805F0F001090969
:10263000484D6B5C0568DD4045603F4D6D6805F4B5
:10264000E061090A434D6B5C4568DD4085603A4DA9
:102650006D6805F46051C90A3E4D6B5C4568DD400C
:10266000C560354D6D6805F44041890B3A4D6B5C92
:10267000C568B5FBF3F5056130BD29B12E4A526935
:1026800002432D4B5A6104E02B4A526982432A4B84
:102690005A61704729B1284A92690243264B9A61D0
:1026A00004E0254A92698243234B9A61704729B11D
:1026B000214AD2690243204BDA6104E01E4AD26902
:1026C00082431D4BDA61704729B11B4AD26802432D
:1026D000194BDA6004E0184AD2688243164BDA607C
:1026E000704729B1144A12690243134B1A6104E07E
:1026F000114A12698243104B1A61704712494039DE
:10270000086070470F49C86470470B49C87170472B
:102710000948406A40F080700749486270470146A6
:102720000020054A92680A400AB1012000E000201A
:102730007047014988727047001002400000FFF89E
:10274000FFFFF6FE000042428004424200127A007F
:1027500000093D00663800207638002010B5044698
:10276000FA48844208D101214015FFF7ADFF00214E
:102770006015FFF7A9FF17E0F548844208D1012151
:102780000015FFF7A1FF00212015FFF79DFF0BE0CB
:10279000F048844208D10121C803FFF795FF0021CA
:1027A0004FF40040FFF790FF10BD30B50246002007
:1027B00000235068E84C20400D790C6844EA052459
:1027C000204350609068E54C2040D1E902542C43EE
:1027D0004D7944EA450420439060D06A20F47000AB
:1027E0000C7C641EE4B2234340EA0350D06230BD47
:1027F00000210160017141718160C160012101749A
:10280000704721B1826842F00102826003E0826871
:1028100022F001028260704721B1826842F4807226
:10282000826003E0826822F480728260704710B593
:102830000023CBB21AB144681C43446002E04468F0
:102840009C43446010BD816841F00801816070477D
:10285000014600208A6802F008020AB1012000E067
:1028600000207047816841F0040181607047014693
:1028700000208A6802F004020AB1012000E0002072
:10288000704721B1826842F4A002826003E082684E
:1028900022F4A00282607047014600208A6802F498
:1028A00080020AB1012000E00020704710B50A46FE
:1028B00000210023416821F46041531E41EA433165
:1028C000416010BD21B1426842F40062426003E001
:1028D000426822F4006242607047F0B504460D463B
:1028E00000200021092D11DDE068A5F10A0606EBA4
:1028F0004607072606FA07F18843A5F10A0606EB04
:10290000460603FA06F10843E0600CE0206905EB97
:102910004507072606FA07F1884305EB450603FA43
:1029200006F108432061072A0FDA606B561E06EB9A
:1029300086071F2606FA07F18843561E06EB860611
:1029400005FA06F10843606322E00D2A0FDA206BD6
:10295000D61F06EB86071F2606FA07F18843D61F07
:1029600006EB860605FA06F10843206310E0E06AEC
:10297000A2F10D0606EB86071F2606FA07F188432B
:10298000A2F10D0606EB860605FA06F10843E062A1
:10299000F0BD21B1826842F48012826003E0826857
:1029A00022F48012826070470146C86C80B2704782
:1029B00066484C300068704721B1426842F480623A
:1029C000426003E0426822F480624260704721B1B5
:1029D000426842F48052426003E0426822F480522E
:1029E000426070470A460021816821F4E0411143AA
:1029F0008160704721B1826842F40042826003E046
:102A0000826822F400428260704721B1826842F4F9
:102A10000212826003E0826822F402128260704730
:102A2000014600208A6802F400120AB1012000E089
:102A300000207047F0B5044615460020002200260D
:102A4000092911DDE068A1F10A0707EB470C072708
:102A500007FA0CF29043A1F10A0707EB470703FAC4
:102A600007F21043E0600CE0206901EB410C0727FE
:102A700007FA0CF2904301EB410703FA07F2104307
:102A80002061A06BC0F30156EF1C06F1010CA7EB0F
:102A90000C0707EB870C1F2707FA0CF29043EF1C7B
:102AA00006F1010CA7EB0C0707EB870701FA07F209
:102AB0001043A063F0BD10B50A4600210023816BCE
:102AC00021F44011531E41EA0351816310BD08B542
:102AD000002300930090009B0B440093009B1A601E
:102AE00008BD08B5024600200090009201F12800C0
:102AF000009B184400900098006880B208BD0A4608
:102B000000214168164B19401143416070474162F2
:102B1000826270470A460021416821F01F0111437B
:102B20004160704740B109490831096841F400012A
:102B3000064A0832116007E004490831096821F4A7
:102B40000001024A08321160704700000024014071
:102B500000280140003C0140FFFEF0FFFDF7F1FFBF
:102B6000FFFD3FFF0246002013680B400BB1012020
:102B700000E000207047CA430260704770B502460B
:102B80000020002300240B125568CEB205EA06048B
:102B900015681D4015B10CB1012000E0002070BD8A
:102BA00000220A12D3430360704770470FB40449F0
:102BB00010B503AA029800F009F810BC5DF814FBE8
:102BC0005C3800207047704770477047074B70B5FE
:102BD0000D467B4400F011F80446284600F020F82A
:102BE00010B14FF0FF3070BD204670BD17DBFFFF06
:102BF00001694A1C02610878704700B58FB0CDE9C1
:102C000001310021059105497944CDE903101146B0
:102C1000684600F02EF80FB000BD0000E5FFFFFF92
:102C2000007B00F080007047754600F03FF8AE462C
:102C300005006946534620F00700854618B020B5C8
:102C4000FDF7F2FABDE820404FF000064FF0000714
:102C50004FF000084FF0000B21F00701AC46ACE844
:102C6000C009ACE8C009ACE8C009ACE8C0098D46B1
:102C700070472DE9F04106460024D6E90170F56859
:102C80008046304603E04146B847641C3046A847BA
:102C90000028F8D12046BDE8F08110B50446AFF316
:102CA00000802046BDE81040FDF7A9BA00487047F3
:102CB00084390020D42C0008000000207C3800005B
:102CC0006C0100085C3700087C3800206C070000AD
:102CD000C80100081184A24A04100A010203040674
:102CE0000708090312041A03021A0202490A690EAC
:102CF0002906212908290A29392916290A32053ADB
:102D0000042E12045A011441691E291C7A0110294B
:102D10003E5A03282952213964598A496612285A91
:102D2000F0425A015849889A0444493E095490296E
:102D30001661291C299032673A0528091890490E16
:102D4000690A4948290E2990892E2944297E69B0AB
:102D500012031A0C222912291A695809289049804D
:102D600069C84944296A697009509069F2499C29E7
:102D70009012205A1414091A90698A29022960496C
:102D8000A42904214918213A010A899029103A0BF3
:102D90002649104932493C0922906928897A499686
:102DA000290209689012143A0F56094E9029343AB4
:102DB000069089244944493A6990290E890CC990A2
:102DC00069022944291E1A01024994290A493A290B
:102DD00008892E290C9A053A49E40990902970290E
:102DE0000E3A0A7C6902C9604984490229B2493C09
:102DF0003A0B5029426986494A293649444996295D
:102E000088290E6BFF0F1249464928496609708CC4
:102E10002936094690297C291A120432521A0808C8
:102E2000121E23EC0A2B9C0824495A12055A093415
:102E30001A07AE49741A03161A0A0A1A0608291A3A
:102E40001A0A121A092012041A0C241A040C292E28
:102E500029380A4709902972291A09FD9009EF902B
:102E6000528029421206120F1A102A1A0E36120B1D
:102E70001A0D0A120C121116C601080B081AD37685
:102E800009FD9009FD9009FD9009FD9009FD90094B
:102E9000DD901A04064BFF0F68120234DD0A611A36
:102EA000145E12041CD90847211A133A3CD703DCDC
:102EB000BA11132009124A3A015E1A0E861A022824
:102EC00012031278323229851669090A0B050BFDA7
:102ED00055089009FD906990100AED0AD608FF0F79
:102EE000D4010325670864040B62150290C1120324
:102EF00025EE0ACE052B8501A809FD9009FD900954
:102F0000FD9009FD905990911A028E3A09541A02C7
:102F10005C3A060A29043A0686A11A04B25A089AAB
:102F2000121632B63A078809E09029481A03065A61
:102F300006081A025E5A050AA990691E29305A60CD
:102F40003A49902D5C0589011E213AE01829B4A95F
:102F5000CC215EFA01E30522503C2802A0A22954AC
:102F60002904C92C093C903A1006094A9029145AA0
:102F70000316297049744912C99041491412195A0B
:102F8000E5CC692E89422924491039226280121227
:102F90002B7A01F0413C48013C3C49D2493A09981E
:102FA000902918291449024922091228490C491468
:102FB000122E7AA79E89C8494249245A027C89CE9A
:102FC0006B2C01E01A02D03A05644970293C09963D
:102FD0009049422952291C290E495CFA0190494C1A
:102FE000497412307A6290C93429261A020A2904D7
:102FF000C112033AE86641120D1A1490494A4990E9
:1030000089BC099C902906295E490C2904A95249CA
:1030100006292012273A1F7AA99049862926294E87
:10302000290C2112206BFF0F3E1A898449441A098A
:103030009049EC292A493C8129D44958490409304E
:1030400090690409669032483AA31441293C12035E
:10305000122C9A460E0916901A037812031A430A84
:103060001A07083A525C417A0B905A02704990292B
:1030700032490C6980496049224902091E90297829
:1030800049482944493249402904894A697E292A04
:1030900012087A1890691441498E49142916491A60
:1030A000290E89F869843A076A292029025A1044AE
:1030B00069B669DA8950694A09569049FAA990496E
:1030C0001009329012063A1664695A297E414978ED
:1030D0004918298E2902E9F20926905A013E6942CF
:1030E000498A2922491229726956094E901A049078
:1030F000A950092E90120412193A0512491C2914DC
:1031000041492C290C69F829021A01022906492A89
:1031100049282970290C696C8990893689422916B9
:1031200049042169A8293E2924293E09A6906974E9
:103130007A058049462906C990493829803A040E03
:103140005A119069604990491E49926966690A4915
:103150003E490212053A182A494049020992903A1A
:10316000027629907A0490295E290249489A0490AF
:10317000895E12025A105029384982895A69A26917
:10318000D669A8899012045A19A2492609A890491B
:103190003C293E4992692849A4695212031A0B340A
:1031A00029622972498C6984291E2902890E6914B1
:1031B00069CE293669CA69225A0168494C291E69B3
:1031C0006A092E9049420954901A04661A06082981
:1031D00004211A070632051A082D12031A0C1E1CA8
:1031E000B601B1191A180E121914E60A094BEC0AA5
:1031F00092493C3A083A29981A0660297029601ABF
:103200000704296E29845A05E212041A092E3A038A
:10321000681A050C2932297C292C29141A040A2938
:10322000100932903A075A096A9016EF0A0C0B06F9
:1032300014EE020616EA020D0B0A1CEA0A04041C2C
:103240000A0B0806091C90295E3A0A562984120ABC
:103250001A0B223A0B281A0BE01A03121A02401A10
:103260000B1C320B1A06141A029E2918291E3A0C3E
:1032700098292429B21C3B018AD30A1FB5903A062B
:10328000663A03E829061A03445A09CA0954901AEF
:10329000EC901A080612041CEB0A0B0A14EB0A0342
:1032A0001AE99012070A1FE7903C0B800B5A1A1C70
:1032B000061C7303031812101A0E061C7202031266
:1032C0001A14043A09861949094B901A04345A0A07
:1032D000441A09122954295A096490120216DF0A65
:1032E000F80A060A4BD99029383A01421A0D021AF7
:1032F00002041A04182906320B1C3A09087C1AF336
:103300002916E9040C0B0914EC1A022BDA0A140A28
:1033100029E9901A10501A030429E63C03070E8489
:103320001A100C2BE904241A170432633A027209AA
:103330008E9012081A0E0A29461A0D0A29061A0337
:10334000182952291E1E0409FA0A0882211CDA0BC8
:10335000F70A14DF1A041ADC861A071412032BA8C2
:103360000A1E0A1DDC9012043A11563A0C6A340403
:103370000A1612171A121234C406C51A1616343653
:1033800001290AFD0C9009C4901A05143A095E211E
:103390001CFE070B97100AB405D202EF081F0F0896
:1033A000100AED0A9205040B0F0B081AEE861C8812
:1033B00002FB901AEB220948905A077C2986294C77
:1033C0000A3308901A09341972240288011A040C6D
:1033D00032C029441A08AA095290211CEE0A0D860F
:1033E0001CED0A0404140F0B0A14EC0A0312F51C5A
:1033F000F70A0710091C901DEE0A51082D198E12AC
:10340000091EE90A0B0B7B0C1A110E27DC0AF80ABD
:103410004F0612101ED205A906F6161A2E3E297C5A
:103420001A034429463A0A421A0A4E3248294C1CC9
:103430004B08F66E1A829B091C903A0A464D860389
:103440009D02901AF00829DE0A69069012131A22CA
:103450000C0A37059027DE0AFA0A310918089A0182
:103460006C07C008DE643C0E024978120412071291
:103470000B1A0D0412031212120C344C019712068F
:1034800012151B73074511180803031402050B0FCF
:1034900090180AEF0A0704C40A0E0B010AA9901A31
:1034A0000B2712041C9B05716C1A034E1C39042354
:1034B000EC2990120427DC0AF80AD805328527DBAC
:1034C0000AFB0A48061A861E094E901214121C1A8C
:1034D000A11E0B486807901A1818294A3A0690123C
:1034E000093A029A128C3230120512141C1304E2AB
:1034F0004A1406010525B606950A1808D1078C015D
:103500004405B852ABC80490329112043E8C088D29
:103510000405863E930546049FD412021ADD841AE0
:1035200033281A496C1EDF0AFD0A2A481ACBB81A3A
:10353000EFD81A12DA1F0A03A5087C0A2B110B8E8A
:103540001A039021120E1927197C1A020A1A0A0668
:103550001A06501A0A961A0414120412F61AE31FD5
:103560001993111C7C02A22E1CA5010EB832AE12BA
:103570000A1216121A23ED041AE222232C021A024E
:103580003A1C55070D0812081E5801200879142905
:10359000523A037A211AF1101AEB0A140F0B09237D
:1035A00076081C6408080C12081808F105D90405EF
:1035B0000BE0901A304E09A0901A04723A080A1AC9
:1035C000020A1A090629901A03141A030A12031A86
:1035D0000C28490A12171A1C3D1A090A091A901ACE
:1035E000049029781A607212061CED0A0D901BEDEA
:1035F0000AA1199E140C0B07146708031C830914F5
:103600001E3AA5902950295E3A0F6809A690291400
:10361000291E1A02901A09242928121532C4292CAD
:10362000091A90120116EC0A0D07091A98722169FD
:103630009032411AEF0C1208147804031C27035D22
:10364000DA3228295E29341A039A29727A070A5A2B
:1036500005900A9304903A081A29741A088C1A03E0
:1036600016120412133256290E091A901A037E32CA
:10367000871A117229901B480376191C211A740AA3
:1036800049DA1A08043A02681A0706295E1A039AE8
:103690002982290E3A090A29143A0A10092090327F
:1036A000F229281C9005011829663A03A22930093D
:1036B00054902910293412043A0198290A12183A10
:1036C000221A0934903CC6010C1E2968295A290285
:1036D00021295E49EE295229404944497C4926293D
:1036E00028091C9029862902493E2908294E4902A9
:1036F000414930120312193C8102156C0950902186
:10370000122D52AE291409449049866938291A2984
:1037100002291A490A89B82954696A4934092C903E
:10372000490C120112B05A06143C2601421A892A89
:10373000099090492C697469506990298E490E4905
:103740002849728934122D5A8D0E011A2D01020357
:0C3750000404200906070809020406080A
:0400000508000131BD
:00000001FF
