:020000040800F2
:1000000090070020D5010008DD010008DF0100088D
:10001000E1010008E3010008E5010008000000001C
:10002000000000000000000000000000E7010008E0
:10003000E901000800000000EB010008ED010008E4
:10004000EF010008EF010008EF010008EF010008D0
:10005000EF010008EF010008EF010008EF010008C0
:10006000EF010008EF010008EF010008EF010008B0
:10007000EF010008EF010008EF010008EF010008A0
:10008000EF010008EF010008EF010008EF01000890
:10009000EF010008EF010008EF010008EF01000880
:1000A000EF010008EF010008EF010008EF01000870
:1000B000EF010008EF010008EF010008EF01000860
:1000C000EF010008EF010008EF010008EF01000850
:1000D000EF01000881070008EF010008EF010008A8
:1000E000EF010008EF010008EF010008EF01000830
:1000F000EF010008EF010008EF010008EF01000820
:10010000EF010008EF010008EF010008EF0100080F
:10011000EF010008EF010008EF010008EF010008FF
:10012000EF010008EF010008EF010008EF010008EF
:1001300000F002F800F03FF80AA090E8000C8244BA
:100140008344AAF10107DA4501D100F034F8AFF297
:10015000090EBAE80F0013F0010F18BFFB1A43F0A5
:10016000010318470C2E00002C2E0000103A24BF6B
:1001700078C878C1FAD8520724BF30C830C144BF0C
:1001800004680C607047000000230024002500264E
:10019000103A28BF78C1FBD8520728BF30C148BFEA
:1001A0000B607047642902F07381002070471FB50F
:1001B0001FBD10B510BD02F039FA1146FFF7F7FF69
:1001C00000F018F902F057FA03B4FFF7F2FF03BC8E
:1001D00000F07CFA0948804709480047FEE7FEE73F
:1001E000FEE7FEE7FEE7FEE7FEE7FEE7FEE7FEE7E7
:1001F00004480549054A064B70470000F302000811
:100200003101000890010020900700209003002099
:10021000900300200CB50020019000906C4800680D
:1002200040F480306A49086000BF6948006800F403
:10023000003000900198401C0190009818B9019876
:10024000B0F5A06FF1D16248006800F4003010B141
:100250000120009001E0002000900098012843D187
:100260005C48006840F010005A4908600846006881
:1002700020F0030008600846006840F002000860B3
:1002800053484068524948600846406848600846FC
:10029000406840F4806048600846406820F47C1064
:1002A00048600846406840F4E81048600846006826
:1002B00040F08070086000BF4548006800F00070A2
:1002C0000028F9D04248406820F0030040494860C7
:1002D0000846406840F00200486000BF3C48406863
:1002E00000F00C000828F9D10CBD10B5FFF792FF03
:1002F00010BD10B53648006840F001003449086070
:10030000084640683449084031494860084600685A
:10031000324908402E4908600846006820F48020D1
:1003200008600846406820F4FE0048604FF41F0053
:100330008860FFF7DAFF4FF000602949086010BDC0
:1003400010B5002100200022214B5B6803F00C0156
:1003500021B1042906D0082928D107E0214B224CDD
:10036000236027E01F4B204C236023E0184B5B6881
:1003700003F47010164B5B6803F48032022303EB26
:10038000904022B9194B4343174C23600DE0104BAA
:100390005B6803F4003323B1144B4343124C2360D6
:1003A00003E0104B4343104C236003E00D4B0E4C15
:1003B000236000BF00BF064B5B68C3F303130C4C04
:1003C000E15C094B1B68CB40074C236010BD00006B
:1003D00000100240002002400000FFF8FFFFF6FE80
:1003E00008ED00E000127A000000002000093D0046
:1003F00004000020B2B000250026002031902E908D
:100400002D902C9000BF00BF00BF00248046002725
:10041000814600BF482000F08FF800F0F1F800F0AE
:1004200006F900F014F900F036F94FF4A06000F07E
:1004300097FE4FF4E13000F057F900F057FA962399
:1004400001AA3149314800F04DFE962301AA3049F6
:100450002E483C3000F046FE00F04BFC642000F0DB
:1004600085F82FAB30AA31A9642000F035FB2CAB06
:100470002DAA2EA9642000F085FB4FF4165000F041
:10048000BCF924A001F0B0FF3DE02648006810B997
:100490004FF001080DE023480068012809D1B8F1A8
:1004A000010F06D1601CC4B2082C00DB00244FF001
:1004B0000008204600F0DEF81B480688AE4200DD4A
:1004C000354609F10100C0B281460A2809DB2A46F7
:1004D00016A127A801F094FF27A801F085FF0025A9
:1004E000A946142000F042F80FB9012000E00020D6
:1004F000074627B120210F4801F0B1F903E0202180
:100500000C4801F0AEF9C0E7043801404400024055
:10051000044400405465737420737563636573739A
:10052000210D0A00100123421E0000202564200D29
:100530000A000000000C014010B504466FF00400F2
:1005400000F05DFEE11704EB5171C1F3C7012A4AC7
:1005500011701046007800EB4001C1EBC0104FF65F
:10056000FF7101EAC0002549088010BD0146234AF9
:1005700012884A434FF0E0235A6100229A61012217
:100580001A6100BF4FF0E022106900F001021AB1B9
:1005900000F48032002AF5D000224FF0E0231A61E7
:1005A0009A6170470146144A12784A434FF0E0239B
:1005B0005A6100229A6101221A6100BF4FF0E022C5
:1005C000106900F001021AB100F48032002AF5D05F
:1005D00000224FF0E0231A619A61704730B504465B
:1005E000002505E04FF47A70FFF7C0FF681CC5B224
:1005F000A542F7DB30BD00001400002016000020EB
:1006000008B50121082001F063FC2020ADF80000AE
:1006100010208DF8030003208DF80200694626485B
:1006200001F070F82021244801F019F908BD08B53F
:100630000121402001F04CFC1020ADF800004820C2
:100640008DF8030069461D4801F05CF808BD08B547
:100650000121202001F03CFC0E20ADF8000010200C
:100660008DF8030003208DF802006946144801F05C
:1006700049F808BD00F00101124A116000F00201C2
:100680004910114AC2F8881100F0040189100D4A7E
:1006900008321160704710B52021074801F0E1F8D9
:1006A0003220FFF763FF2021034801F0D8F8322001
:1006B000FFF75CFF10BD0000000C01400018014076
:1006C00000140140848122420080224200BF704712
:1006D00000BF814A128802F04002002AF9D0C2B25B
:1006E0007D4B1B1D1A80704710B586B00446012152
:1006F00044F2040001F0ECFB4FF40070ADF814007C
:1007000003208DF8160018208DF8170005A97348EE
:1007100000F0F8FF4FF48060ADF8140004208DF86D
:10072000170005A96D4800F0EDFF25208DF80000A9
:1007300003208DF801008DF8020001208DF80300E0
:10074000684600F012FD01940020ADF80800ADF8F5
:100750000A00ADF80C00ADF810000C20ADF80E004A
:1007600001A95D4800F0ADFD012240F225515A4833
:1007700000F03FFE0121584800F02FFE06B010BDEA
:1007800010B540F22551544800F018FF10B35248FC
:1007900000F094FEC4B25248008800F40040C8B98A
:1007A0004F48008800F4804060B10A2C03D000203C
:1007B0004B49088020E04A48008840F400404849FE
:1007C000088019E00D2C06D14548008840F480408F
:1007D0004349088010E042480088C0F30D004149B9
:1007E0000C543F480088401C3D490880084600885A
:1007F000C72801DD0020088010BD10B586B0044672
:100800000121480401F071FB0121042001F060FB8B
:100810000420ADF8140003208DF8160018208DF880
:10082000170005A92D4800F06DFF0820ADF8140051
:1008300004208DF8170005A9284800F063FF262042
:100840008DF8000003208DF8010002208DF80200D1
:1008500001208DF80300684600F087FC0194002019
:10086000ADF80800ADF80A00ADF80C00ADF81000C6
:100870000C20ADF80E0001A91B4800F022FD01225A
:1008800040F22551184800F0B4FD0121164800F04F
:10089000A4FD8021144800F088FE4021124800F099
:1008A00084FE06B010BD70B50546002440210E48F8
:1008B00000F07BFE00BF0CE0295D0B4800F0FAFD64
:1008C00000BF4021084800F063FE0128F9D1601CF8
:1008D000C4B2632CF0DB70BD003801400008014059
:1008E0001C000020380000200044004000B591B0FA
:1008F00001214FF4047001F0EBFA0121084601F0E8
:10090000DAFA404801F04CF83F4800903F48019027
:100910000020029002200390002004908020059087
:100920004000069080000790202008900002099067
:1009300000200A906946334801F0D4F8012131487B
:1009400001F0FBF84FF4004001F026FA0320ADF867
:100950002C0000208DF82F000BA92D4800F0D2FEAE
:1009600029484C3801F018FB00200C9001208DF82C
:1009700034008DF835004FF460200E9000200F9069
:1009800002208DF840000CA91F484C3801F02BFBC9
:1009900001211D484C3801F052FB052301220A2198
:1009A00019484C3801F0B7FB052302220B211648E9
:1009B0004C3801F0B0FB012113484C3801F04AFBE0
:1009C000012111484C3801F03AFB0F484C3801F036
:1009D00058FB00BF0C484C3801F058FB0028F9D1F7
:1009E00009484C3801F05CFB00BF07484C3801F067
:1009F0005CFB0028F9D1012103484C3801F05FFB72
:100A000011B000BD080002404C2401401E0000202F
:100A1000001001402DE9F04106460F4614461D46E0
:100A200000F048FA002141EA4601C8B200F0F6FAA7
:100A300000F081FA20B100F05DFA0120BDE8F081FC
:100A4000384600F0EBFA00F076FA00F033FA0121B4
:100A500001EB4601C8B200F0E1FA00F06CFA0DE0DB
:100A6000012C04D1002000F004FB287003E00120D9
:100A700000F0FFFA2870601EC4B26D1C002CEFD18C
:100A800000F038FA0020D9E72DE9FC4104460D4674
:100A900016466B4606223B216820FFF7BBFF074640
:100AA000BFB99DF801009DF8001040EA012000B296
:100AB00020809DF803009DF8021040EA012000B25A
:100AC00028809DF805009DF8041040EA012000B23E
:100AD00030803846BDE8FC812DE9FE4F04460D46C6
:100AE00016461F464FF00009CA46CB46C84611E0DD
:100AF0006A4601A902A8FFF7C7FFBDF908008144B3
:100B0000BDF904008244BDF90000834408F10100EE
:100B100000F0FF08A045EBDB99FBF4F000B2288061
:100B20009AFBF4F000B230809BFBF4F000B2388006
:100B3000BDE8FE8F2DE9FC4104460D4616466B4686
:100B4000062243216820FFF765FF0746BFB99DF8DD
:100B500001009DF8001040EA012000B220809DF8BD
:100B600003009DF8021040EA012000B228809DF8A1
:100B700005009DF8041040EA012000B2308038469C
:100B8000BDE8FC812DE9FE4F04460D4616461F4682
:100B90004FF00009CA46CB46C84611E06A4601A993
:100BA00002A8FFF7C7FFBDF908008144BDF90400A2
:100BB0008244BDF90000834408F1010000F0FF0801
:100BC000A045EBDB99FBF4F000B228809AFBF4F02F
:100BD00000B230809BFBF4F000B23880BDE8FE8F9D
:100BE00070B505460C4600F065F9D02000F016FA05
:100BF00000F0A1F918B100F07DF9012070BD284680
:100C000000F00CFA00F097F9204600F007FA00F027
:100C100092F918B100F06EF90120EFE700F06AF9DF
:100C20000020EBE770B504460025BC2C01DB012554
:100C300010E0622C01DB02250CE02A2C01DB0325ED
:100C400008E0142C01DB042504E00A2C01DB052557
:100C500000E0062529461A20FFF7C2FF70BD70B5D7
:100C60000446B4F57A7F01DD4FF47A74042C00DA7F
:100C700004244FF47A7090FBF4F0401EC5B229466C
:100C80001920FFF7ADFF0546264604EBD671C1F3E8
:100C90004F00FFF7C7FF70BD70B5044600F00AF9BA
:100CA000D02000F0BBF900F046F9204600F0B6F97C
:100CB00000F041F900F0FEF8D12000F0AFF900F0AB
:100CC0003AF9002000F0D5F9054600F013F928465E
:100CD00070BD10B50446E006010E1C20FFF780FF32
:100CE00010BD10B50446E006010E1B20FFF778FF8B
:100CF00010BD38B50121084601F0EAF801210420B1
:100D000001F0E6F84FF40040ADF8000010208DF837
:100D1000030003208DF802006946504800F0F2FC01
:100D200001214F4800F0BFFD00204E49086000F04F
:100D3000A8F880216B20FFF753FF6420FFF716FC13
:100D400000216B20FFF74CFF0320FFF7CAFF0020B4
:100D5000FFF7BFFF3220FFF782FF00213820FFF7A7
:100D60003FFF00216A20FFF73BFF00212320FFF710
:100D700037FF80213720FFF733FF7520FFF78CFF07
:100D80000446682C0BD101216B20FFF729FF0021BD
:100D90006C20FFF725FF3220FFF761FF01E0012003
:100DA00038BD0020FCE72DE9F84F6B4602224121B7
:100DB0006820FFF72FFE9DF801009DF8001040EA23
:100DC00001200FFA80FA504601F094FE804600227E
:100DD000254B01F037FD0646244A254B01F08AFCDD
:100DE000044601F055FC83462249584601F0F4FFC1
:100DF000044601F0D5FF00B2BDE8F88F2DE9F041BF
:100E000005460E461746984600F054F8002141EA80
:100E10004501C8B200F002F900F08DF820B100F0F1
:100E200069F80120BDE8F081304600F0F7F800F0E5
:100E300082F800240CE018F8040000F0EFF800F04D
:100E40007AF818B100F056F80120EBE7601CC4B244
:100E5000BC42F0DB00F04EF80020E3E70008014060
:100E600000023000BC01214200407540A4703D0AE0
:100E7000D74342400000C84210B50220FFF792FB62
:100E800010BD08B50121082001F022F84FF44060A0
:100E9000ADF8000010208DF8030003208DF802004B
:100EA00069468D4800F02EFC4FF440618A4800F0FE
:100EB000D6FC08BD10B58848001D006820F47040BD
:100EC0008549091D08600846006840F440500860E4
:100ED0000120824908608249C1F8A801FFF7CCFFD0
:100EE00000207E490860FFF7C7FF00207C49C1F859
:100EF000A80110BD10B57848001D006820F47040AE
:100F00007549091D08600846006840F440500860B3
:100F100000207249091F08607149C1F8AC01FFF750
:100F2000ABFF01206D49091F08606D49C1F8AC0194
:100F3000FFF7A2FF10BD10B500246748001D006830
:100F400020F470406449091D08600846006840F4B8
:100F500000400860012061490860FFF78DFF012013
:100F60005F49C1F8A801FFF787FF07E0601CC4B222
:100F7000FA2C03DDFFF7BEFF012010BD5748803873
:100F800000680028F2D15549091F086000BFF4E746
:100F900010B500205149091F08604F48001D006826
:100FA00020F470404C49091D08600846006840F470
:100FB0004050086000204A49C1F8AC01FFF75CFFCF
:100FC00001204649091F0860FFF756FF00204449E9
:100FD000C1F8A80110BD10B500204049091F0860E4
:100FE0003D48001D006820F470403B49091D086021
:100FF0000846006840F44050086001203849C1F8B4
:10100000AC01FFF739FF01203449091F0860FFF7E1
:1010100033FF00203249C1F8A80110BD70B5044665
:101020002D48001D006820F470402B49091D086000
:101030000846006840F44050086000202749091F16
:101040000860002512E0E009244908606006040EEB
:1010500001202349C1F8A801FFF70EFF00201F4916
:10106000091F0860FFF708FF681CC5B2082DEADBFE
:1010700070BD70B5054600241748001D006820F4B7
:1010800070401549091D08600846006840F400409A
:101090000860002615E000201049091F0860FFF7CE
:1010A000EBFE01200E49C1F8A8016006040E0B48B2
:1010B0008038006808B1601CC4B2FFF7DDFE701C08
:1010C000C6B2082EE7DB15B9FFF785FF01E0FFF791
:1010D0005FFF204670BD0000000C0140AC81214242
:1010E000008021422DE9F04107460D4616461C4678
:1010F0000121084600F0DFFE384600F051FC16489A
:10110000048016480560466010201449886008462F
:10111000C460002008618020486100208861C861A7
:1011200008624FF48050486200208862384600F020
:10113000D9FCBDE8F08110B504460021204600F03E
:10114000FCFC05480188204600F00CFD01212046EA
:1011500000F0F3FC10BD0000220000200001002080
:1011600031490143314A1160704770B500210023B5
:101170000F22C47804B32D4C246804F4E064C4F551
:10118000E064210AC1F10403CA40447804FA03F17F
:101190008478144021430901254C0678A155047830
:1011A00004F01F050124AC4005786D11AD0005F178
:1011B000E025C5F8004109E0047804F01F0501248A
:1011C000AC401C4D0678761145F8264070BD1A4A91
:1011D0000A400243154B1B1F1A60704739B1134A6E
:1011E000121D12680243114B1B1D1A6006E00F4AC4
:1011F000121D126882430D4B1B1D1A607047042894
:1012000008D14FF0E021096941F004014FF0E022DC
:10121000116107E04FF0E021096921F004014FF06E
:10122000E0221161704700000000FA050CED00E0BB
:1012300000E400E080E100E080FFFF1F10B50446FD
:10124000FB48844209D10121880300F05BFE0021A4
:101250004FF4804000F056FE32E0F648844209D157
:101260000121480400F05BFE00214FF4003000F043
:1012700056FE25E0F048844209D10121880400F09F
:101280004EFE00214FF4802000F049FE18E0EB48AC
:10129000844209D10121C80400F041FE00214FF42D
:1012A000002000F03CFE0BE0E548844208D101211B
:1012B000080500F034FE00214FF4801000F02FFEEE
:1012C00010BD2DE9F04786B005460E460024A24623
:1012D00000BFA1460027B08900B100BF2F462C8A6D
:1012E0004CF6FF700440F08804432C82AC894EF623
:1012F000F3100440B08831890843718908430443DE
:10130000AC81AC8A4FF6FF400440B0890443AC8204
:1013100001A800F070FDC648874202D1DDF810A098
:1013200001E0DDF80CA0A88900F4004040B10AEB10
:10133000CA0000EB0A1031684900B0FBF1F807E081
:101340000AEBCA0000EB0A1031688900B0FBF1F823
:101350006420B8FBF0F004012009642101FB10892E
:10136000A88900F4004040B1322000EBC900B0FB76
:10137000F1F000F00700044308E0322000EB091010
:101380006421B0FBF1F000F00F0004432C8106B0A3
:10139000BDE8F0874FF41651016000218180C180C3
:1013A00001810C21418100218181704710B50246E5
:1013B0000020108A4FF2FF0318400B884C8823430B
:1013C0008C882343CC8823431843108210BD00210E
:1013D000018041808180C180704721B1828942F4BF
:1013E0000052828104E082894DF6FF731A408281A7
:1013F0007047F0B50346002400260025002040F683
:101400006A17B94200D100BF1846C1F3421401F077
:101410001F06012707FA06F5012C01D10C3004E064
:10142000022C01D1103000E014301AB107682F43AC
:10143000076002E00768AF430760F0BD1AB1838A16
:101440000B43838202E0838A8B4383827047028A44
:101450004FF6F0731A400282028A0A4302827047F2
:1014600082894FF2FF731A40828182890A43828106
:10147000704721B1828942F00202828104E08289B0
:101480004FF6FD731A4082817047028A4FF6DF7370
:101490001A400282028A0A430282704721B1028AFC
:1014A00042F48042028204E0028A4BF6FF731A4043
:1014B00002827047C1F30802828070470146888823
:1014C000C0F308007047818941F0010181817047B4
:1014D000028BD2B20283028B42EA0122028370475E
:1014E000028B02F47F420283028B0A43028370471D
:1014F00021B1828A42F02002828204E0828A4FF681
:10150000DF731A408282704721B1828A42F0100252
:10151000828204E0828A4FF6EF731A40828270471B
:1015200021B1828A42F00802828204E0828A4FF668
:10153000F7731A408282704721B1828942F40042D7
:10154000828103E08289C2F30E028281704721B159
:10155000828A42F40062828204E0828A4FF2FF7340
:101560001A4082827047828A4FF6FB731A40828249
:10157000828A0A438282704721B1828A42F0020243
:10158000828204E0828A4FF6FD731A40828270479D
:1015900002460020B1F5007F00D100BF13880B4048
:1015A0000BB1012000E00020704701F40072B2F599
:1015B000007F00D100BFCA430280704770B5024669
:1015C000002400230025002040F66A16B14200D115
:1015D00000BFC1F3421501F01F03012606FA03F311
:1015E000012D02D19689334006E0022D02D1168AE0
:1015F000334001E0968A33400C12012606FA04F4C7
:101600001688344013B10CB1012000E0002070BDF9
:1016100010B50022002340F66A14A14200D100BF99
:101620000A1201249440A3B2DC43048010BD0000E0
:10163000003801400044004000480040004C004099
:101640000050004010B50446CC48844208D1012126
:10165000042000F057FC0021042000F053FC46E079
:10166000C748844208D10121082000F04BFC00212A
:10167000082000F047FC3AE0C248844208D101212A
:10168000102000F03FFC0021102000F03BFC2EE079
:10169000BD48844208D10121202000F033FC002104
:1016A000202000F02FFC22E0B848844208D101211C
:1016B000402000F027FC0021402000F023FC16E031
:1016C000B348844208D10121802000F01BFC002196
:1016D000802000F017FC0AE0AE48844207D10121C7
:1016E000801500F00FFC0021A01500F00BFC10BDD0
:1016F00010B50121084600F005FC0021012000F092
:1017000001FC10BD2DE9F041024600250026002015
:1017100000230024002791F803C00CF00F0591F876
:1017200003C00CF0100CBCF1000F03D091F802C004
:101730004CEA050591F800C0BCF1000F31D01468E7
:1017400000202BE04FF0010C0CFA00F3B1F800C0C0
:101750000CEA03069E4220D183004FF00F0C0CFAD6
:1017600003F7BC4305FA03FC4CEA040491F803C0F8
:10177000BCF1280F06D14FF0010C0CFA00FCC2F8A6
:1017800014C00AE091F803C0BCF1480F05D14FF036
:10179000010C0CFA00FCC2F810C0401C0828D1D380
:1017A0001460B1F800C0BCF1FF0F34DD54680020B4
:1017B0002EE000F1080C4FF0010808FA0CF3B1F824
:1017C00000C00CEA03069E4221D183004FF00F0CAB
:1017D0000CFA03F7BC4305FA03FC4CEA040491F845
:1017E00003C0BCF1280F05D100F1080C08FA0CF871
:1017F000C2F8148091F803C0BCF1480F07D100F182
:10180000080C4FF0010808FA0CF8C2F81080401CD0
:101810000828CED35460BDE8F0814FF6FF710180F7
:10182000022181700421C170704702460020936834
:101830000B400BB1012000E0002070470146886892
:1018400080B2704702460020D3680B400BB10120E4
:1018500000E0002070470146C86880B2704701610F
:101860007047416170470AB1016100E04161704712
:10187000C16070474FF480320A43826181618261A6
:1018800082698269704702460020434B18684FF610
:101890008073184040EA021008433F4B18607047BD
:1018A0003E49C8617047F0B50A4600230024002174
:1018B000002500F00046B6F1004F02D1364EF16926
:1018C00001E0354E7168C0F3034583B200F4401661
:1018D000B6F5401F08D121F070612F4E766826F0D2
:1018E00070662D4F7E6012E000F48016B6F5801F02
:1018F00006D1032606FA05F4A14341F0706106E023
:10190000460D360103FA06F6B14341F0706122B18B
:10191000460D360103FA06F6314300F00046B6F1F3
:10192000004F02D11C4EF16101E01B4E7160F0BD11
:1019300030B500228B071C0F0F2303FA04F2164B5D
:1019400008338C1053F824309343134C08348D1013
:1019500044F8253023468C1053F824308C07240F8C
:1019600000FA04F423430C4C08348D1044F825305D
:1019700030BD0A49DC3108607047000000080140B2
:10198000000C01400010014000140140001801400B
:10199000001C0140002001400000014000002042E6
:1019A00001684FF6FE721140016000210160416044
:1019B0008160C1608D49884208D18C4908394968E5
:1019C00041F00F01894A083A51608AE08749143191
:1019D000884208D185490839496841F0F001834AB5
:1019E000083A51607DE081492831884208D17F4919
:1019F0000839496841F470617C4A083A516070E0E6
:101A00007A493C31884208D178490839496841F41B
:101A10007041764A083A516063E074495031884217
:101A200008D172490839496841F470216F4A083A6F
:101A3000516056E06D496431884208D16B490839DC
:101A4000496841F47001694A083A516049E06749C0
:101A50007831884208D165490839496841F0706198
:101A6000624A083A51603CE06149884206D1011F50
:101A7000096841F00F01021F116032E05C49143126
:101A8000884208D15A49091F096841F0F001584AB3
:101A9000121F116025E056492831884208D1544967
:101AA000091F096841F47061514A121F116018E062
:101AB0004F493C31884208D14D49091F096841F41A
:101AC00070414B4A121F11600BE049495031884266
:101AD00007D14749091F096841F47021444A121F80
:101AE0001160704710B50022026847F6F0739A4300
:101AF0000C6A8B6823430C6923434C6923438C692C
:101B00002343CC6923434C6A23438C6A23431A43FF
:101B10000260CB6843600B6883604B68C36010BD94
:101B20000021016041608160C160016141618161AA
:101B3000C161016241628162704721B1026842F075
:101B40000102026004E002684FF6FE731A40026070
:101B500070471AB103680B43036002E003688B43CC
:101B600003607047416070470146486880B2704723
:101B700001460020002201F080531BB11C4B083BA2
:101B80001A6802E0194B083B1A6802EA01030BB11C
:101B9000012000E00020704700F0805119B1144985
:101BA000091F086002E01149083948607047014682
:101BB0000020002201F080531BB10D4B083B1A6836
:101BC00002E00A4B083B1A6802EA01030BB101204C
:101BD00000E00020704700F0805119B10449091F4E
:101BE000086002E001490839486070470800024077
:101BF00008040240DF48006840F00100DD49086049
:101C000008464068DC490840DA49486008460068F0
:101C1000DA490840D74908600846006820F4802067
:101C200008600846406820F4FE0048604FF41F003A
:101C300088607047CF49096821F48031CD4A11602E
:101C40001146096821F480211160B0F5803F03D06E
:101C5000B0F5802F0ED106E0C649096841F4803105
:101C6000C44A116007E0C349096841F4A021C14A90
:101C7000116000E000BF00BF704710B501460022B0
:101C8000002300204A11012A02D1BA4C236806E041
:101C9000022A02D1B74C236A01E0B64C636A01F014
:101CA0001F02012494401C400CB1012000E00020E0
:101CB00010BD38B5002000900024002500BF312061
:101CC000FFF7DBFF05460098401C00900098B0F538
:101CD000A06F01D0002DF2D03120FFF7CEFF08B168
:101CE000012400E00024204638BD01460020A14A1E
:101CF000106820F0F80040EAC10010607047A04969
:101D000008607047024600209A4B586820F47C1007
:101D100042EA01031843974B586070479849086698
:101D2000704701460020934A506820F003000843A2
:101D3000506070478F48406800F00C0070470146C3
:101D400000208C4A506820F0F00008435060704733
:101D500001460020874A506820F4E0600843506044
:101D6000704701460020834A506820F4605040EAE2
:101D7000C1005060704729B17E4A527A02437D4BC0
:101D80005A7204E07B4A527A82437A4B5A72704705
:101D90007B49D8310860704701460020754A506879
:101DA00020F440400843506070470021714A2032BF
:101DB0001170704A82F82010012802D004280AD13C
:101DC00004E001216B4A2032117005E00521694AC7
:101DD0002032117000E000BF00BF70476949086001
:101DE00070476449096A0143624A11627047654954
:101DF00044390860704730B50021002200240023D8
:101E00005C4D6D6805F00C0121B1042905D008294D
:101E100023D105E05C4D056022E05B4D05601FE0CD
:101E2000544D6D6805F47012524D6D6805F48034A0
:101E3000022505EB92421CB9544D554305600BE059
:101E40004C4D6D6805F400351DB1504D554305608E
:101E500002E04D4D5543056002E04B4D056000BF6B
:101E600000BF444D6D6805F0F0010909484D6B5CF9
:101E70000568DD4045603F4D6D6805F4E061090A85
:101E8000434D6B5C4568DD4085603A4D6D6805F4F7
:101E90006051C90A3E4D6B5C4568DD40C560354DFB
:101EA0006D6805F44041890B3A4D6B5CC568B5FB24
:101EB000F3F5056130BD29B12E4A526902432D4B1D
:101EC0005A6104E02B4A526982432A4B5A61704797
:101ED00029B1284A92690243264B9A6104E0254AB7
:101EE00092698243234B9A61704729B1214AD26992
:101EF0000243204BDA6104E01E4AD26982431D4B43
:101F0000DA61704729B11B4AD2680243194BDA6083
:101F100004E0184AD2688243164BDA60704729B150
:101F2000144A12690243134B1A6104E0114A126900
:101F30008243104B1A61704712494039086070475C
:101F40000F49C86470470B49C87170470948406A17
:101F500040F0807007494862704701460020054AFA
:101F600092680A400AB1012000E000207047014950
:101F700088727047001002400000FFF8FFFFF6FE75
:101F8000000042428004424200127A0000093D00F3
:101F9000240000203400002010B50446FA48844292
:101FA00008D101214015FFF7ADFF00216015FFF7B3
:101FB000A9FF17E0F548844208D101210015FFF779
:101FC000A1FF00212015FFF79DFF0BE0F0488442A0
:101FD00008D10121C803FFF795FF00214FF400400D
:101FE000FFF790FF10BD30B5024600200023506877
:101FF000E84C20400D790C6844EA052420435060E9
:102000009068E54C2040D1E902542C434D7944EAD4
:10201000450420439060D06A20F470000C7C641E5C
:10202000E4B2234340EA0350D06230BD0021016096
:10203000017141718160C16001210174704721B15A
:10204000826842F00102826003E0826822F00102AD
:102050008260704721B1826842F48072826003E03E
:10206000826822F480728260704710B50023CBB280
:102070001AB144681C43446002E044689C434460D5
:1020800010BD816841F00801816070470146002061
:102090008A6802F008020AB1012000E000207047BF
:1020A000816841F0040181607047014600208A6820
:1020B00002F004020AB1012000E00020704721B1C3
:1020C000826842F4A002826003E0826822F4A002E7
:1020D00082607047014600208A6802F480020AB1DB
:1020E000012000E00020704710B50A4600210023BF
:1020F000416821F46041531E41EA4331416010BD03
:1021000021B1426842F40062426003E0426822F476
:10211000006242607047F0B504460D460020002181
:10212000092D11DDE068A5F10A0606EB4607072632
:1021300006FA07F18843A5F10A0606EB460603FAFC
:1021400006F10843E0600CE0206905EB450707262F
:1021500006FA07F1884305EB450603FA06F1084342
:102160002061072A0FDA606B561E06EB86071F26D2
:1021700006FA07F18843561E06EB860605FA06F1B5
:102180000843606322E00D2A0FDA206BD61F06EBAE
:1021900086071F2606FA07F18843D61F06EB860638
:1021A00005FA06F10843206310E0E06AA2F10D068B
:1021B00006EB86071F2606FA07F18843A2F10D06F3
:1021C00006EB860605FA06F10843E062F0BD21B190
:1021D000826842F48012826003E0826822F48012F6
:1021E000826070470146C86C80B2704766484C30C8
:1021F0000068704721B1426842F48062426003E0A7
:10220000426822F480624260704721B1426842F421
:102210008052426003E0426822F48052426070477C
:102220000A460021816821F4E04111438160704732
:1022300021B1826842F40042826003E0826822F4A5
:1022400000428260704721B1826842F402128260CB
:1022500003E0826822F40212826070470146002087
:102260008A6802F400120AB1012000E000207047E1
:10227000F0B504461546002000220026092911DD8C
:10228000E068A1F10A0707EB470C072707FA0CF2F1
:102290009043A1F10A0707EB470703FA07F210433F
:1022A000E0600CE0206901EB410C072707FA0CF213
:1022B000904301EB410703FA07F210432061A06B42
:1022C000C0F30156EF1C06F1010CA7EB0C0707EB5E
:1022D000870C1F2707FA0CF29043EF1C06F1010C44
:1022E000A7EB0C0707EB870701FA07F21043A0637F
:1022F000F0BD10B50A4600210023816B21F4401186
:10230000531E41EA0351816310BD08B500230093B9
:102310000090009B0B440093009B1A6008BD08B519
:10232000024600200090009201F12800009B184412
:1023300000900098006880B208BD0A4600214168FC
:10234000164B1940114341607047416282627047E9
:102350000A460021416821F01F0111434160704786
:1023600040B109490831096841F40001064A0832C0
:10237000116007E004490831096821F40001024AAC
:10238000083211607047000000240140002801401D
:10239000003C0140FFFEF0FFFDF7F1FFFFFD3FFFB6
:1023A0000246002013680B400BB1012000E0002022
:1023B0007047CA430260704770B502460020002390
:1023C00000240B125568CEB205EA060415681D40BC
:1023D00015B10CB1012000E0002070BD00220A12EE
:1023E000D3430360704770470FB4044910B503AA84
:1023F000029800F005F910BC5DF814FB18000020ED
:102400000FB41CB5074B06AA7B446946009005989B
:1024100000F0DDF80020694600F0ECF81CBC5DF827
:1024200014FB0000E90100002DE9F0410E460446CE
:10243000002020622046E168884730B3252805D077
:10244000D4E901219047206A401CF2E7E168204668
:1024500000278847050018D0A5F14100192802D8A7
:1024600020354FF400673246294620462760FDF7A5
:1024700099FE40B1012804D0F61D26F00706083663
:10248000D8E7361DD6E72846DAE7206ABDE8F081AE
:102490002DE9F0410646002410687529314616A53D
:1024A00010D0AFF30080002802DA404213A507E005
:1024B00031688A0701D512A502E0490704D511A5A4
:1024C000012401E0AFF3008000210A2206F1240775
:1024D00009E0B0FBF2FCB0FBF2F302FB1C00303071
:1024E00078541846491C0028F3D123462A46304622
:1024F000BDE8F04100F00CB8000000002D00000025
:102500002B000000200000007047704770477047A4
:102510002DE9F0470D4699469246044600F12408FD
:102520000168880604D5E06921F01001216000E00F
:102530000120A84201DD471B00E00027A1697A19AC
:1025400002EB0900081AA0612078C00602D42046D8
:10255000AFF30080002608E0D4E901211AF8060054
:102560009047206A401C761C20624E45F4DB2078A0
:10257000C0060AD52046AFF3008006E0D4E9012169
:1025800030209047206A401C2062381EA7F10107C6
:10259000F4DC07E0D4E9012118F805009047206A2F
:1025A000401C2062281EA5F10105F3DC2046AFF394
:1025B00000802078000602D50220BDE8F0870120C7
:1025C000FBE7000001694A1C02610878704700B50A
:1025D0008FB0CDE901310021059105497944CDE95C
:1025E000031011466846FFF71FFF0FB000BD000043
:1025F000E5FFFFFF0A6802F8010B0A607047000060
:10260000074B70B50D467B44FFF7E1FF04462846B3
:1026100000F008F810B14FF0FF3070BD204670BDDB
:10262000C7E0FFFF007B00F080007047754600F0B8
:102630002BF8AE4605006946534620F00700854654
:1026400018B020B5FDF7D4FDBDE820404FF00006DE
:102650004FF000074FF000084FF0000B21F007018A
:10266000AC46ACE8C009ACE8C009ACE8C009ACE8CD
:10267000C0098D46704710B50446AFF30080204670
:10268000BDE81040FDF7A0BD004870472C010020B8
:1026900021F00042A2F16052B2F5801F01F0004328
:1026A00028BFD2F17F6C0BD95FEA001C43EAC2025B
:1026B00042EB507018BF704728BF20F001007047F0
:1026C000B2F5801FBCBF184670474FEA410C1CF59D
:1026D000001F02D2084600F046BC70B500F021FA97
:1026E00000000089FFF7F6BF4FF00040A0F5800022
:1026F0007047000010B591EA030F48BF83F0004314
:1027000000F16C82841A71EB030C05D2121943EBB1
:102710000C03001B61EB0C01DFF824E14FEA1154BC
:10272000A4EB135C1EEA430F18BF9EEA445F73D00C
:1027300023EA0E03DCF1200E21EA045143F4801356
:1027400032D322FA0CFE10EB0E0023FA0CFE41EB02
:102750000E01CCF1200E03FA0EFE10EB0E0051F12B
:102760000001B1F5801FCCF1200E32D201EB0451F3
:1027700012FA0EF2BDE8104058BF7047401C38BF37
:102780005FEA420218BF7047002814BF20F0010022
:1027900041F100014FEA410313F5001F38BF7047B4
:1027A000A1F1C04100F00BBA012A43EB0302ACF1E6
:1027B000200CDCF11F0E32BF4FF0000E23FA0CF399
:1027C00010EB030041EB0451B4EB115FD0D0A1EB4F
:1027D000045101F5801149085FEA300001EB045112
:1027E0000ED350F1000038BF12FA0EFE08D1BDE83A
:1027F0001040C9E7401C38BF5FEA4202CAD1C3E7B4
:10280000BDE810404FEA410313F5001F38BF704781
:10281000A1F1C04100F0D3B99EEA445F08D011EAAB
:102820005E0FBDE8104004BF01F00041002070477A
:10283000BDE8104070B500F074F900BF64FBBE3E07
:102840000000E0FF2DE9C04130B4DFF8A0C23CEA4F
:10285000111418BF3CEA131400F0EC8081EA030560
:102860001CEA111444EAD57418BF1CEA131500F0D1
:10287000C780A4EB05044FF0004545EAC12145EAB5
:10288000C32341EA505143EA525304F17F74994201
:1028900004F500344FEAC0204FEAC22208BF90423C
:1028A00000F09C804FEA13650FF24016765D4FEA08
:1028B000134506FB05F7C7F1807706FB07F74FEADC
:1028C000D737A7FB03687642C8F58038A7FB06CE4A
:1028D00038BFA8F1010807FB08E64FF0000EA6FB81
:1028E000028CE6FB03CEDCF1000CCEF1004E38BFCB
:1028F000AEF1010EA6FB0C584FF000074FF000059B
:10290000E6FB0E87A1FB08C6A0FB07CE16EB0E0662
:1029100045F10005E1FB076515F1E04E7EBFA4F52A
:1029200080345FEA46066D4116F1800745F10005E7
:102930004FEA17274FEA066647EA0567A6F1DE4623
:10294000B6F1805F4FEA15251FD9384624F0010CF7
:1029500005EBC471BCF1FE6F01EB0C1102D8F0BCA9
:10296000BDE8008124425CBF01F5801E9EEAC47F61
:1029700002D4F0BCBDE80081244238D4F0BCA1F1FF
:10298000C041BDE8004100F01AB94FEAD22242EA44
:1029900043524FEAD323A7FB02864FEAD02040EAF6
:1029A000415007FB03661EEA0E0F4FEAD12105FBDB
:1029B000026658BFA6EB0056B6EB00564FEA520E21
:1029C0004EEAC37E18EB0E0E56EB530EBDD518EB38
:1029D00002085E417F1C55F10005B6E74FF48015F3
:1029E0004FF000074FF000064FF00008ADE7F0BCD5
:1029F0004FF0000001F1C04101F00041BDE800814D
:102A000011EA0C1F0CEA131500D00CE013EA0C1F9E
:102A100000F025804FF00000F0BC81EA030101F0D6
:102A20000041BDE80081F0BCBDE8004181EA03013E
:102A300000F0C5B8F0BCBDE8004170B500F071F819
:102A4000097EFC3E00F007B881EA03014FF0000068
:102A500001F00041704781EA030100F0B0B8F0BC1A
:102A6000BDE800414FF0000021497047FFFDFBF930
:102A7000F7F5F4F2F0EEEDEBE9E8E6E4E3E1E0DEB1
:102A8000DDDBDAD8D7D5D4D3D1D0CFCDCCCBCAC823
:102A9000C7C6C5C4C2C1C0BFBEBDBCBBBAB9B8B74A
:102AA000B6B5B4B3B2B1B0AFAEADACABAAA9A8A83D
:102AB000A7A6A5A4A3A3A2A1A09F9F9E9D9C9C9B0B
:102AC0009A999998979796959594939392919190B6
:102AD0008F8F8E8E8D8C8C8B8B8A89898888878747
:102AE0008685858484838382828181800000FF07BC
:102AF0000000F87F10F0004248BF4042B0FA80F377
:102B000010FA03F10AD0C3F11D0303F580634FEA05
:102B1000415002EB035202EBD12170474FF000000D
:102B200070470EF1020E2EF0030E5EF8046B364273
:102B300005D4012A43EB030515F5001F12D801281F
:102B400041EB010C1CF5001F0CD80ED14FEAD17CD3
:102B500015F5001F0CEB4C0C0CF1020C08BF4CEBF4
:102B6000D37C04E04FF0080C01E04FEAD37C0CEB7F
:102B70004C0526FA05F606F00706B6F1040C06D257
:102B80000EEB860CBDE870404CF0010C6047DFE8AE
:102B90000CF0090B02024FF000414FF00000A1F5CC
:102BA000002170BD19461046012851EB010418BFE1
:102BB000D4F5001484BF002001F0004170BD080866
:102BC000A0F500114FEA31017047000010B591EAFD
:102BD000030F48BF83F000433FF594AD841A71EBB7
:102BE000030C07D212198CF0004C43EB0C03001BB2
:102BF00061EB0C01DFF8A4E14FEA1154A4EB135C84
:102C00001EEA430F18BF9EEA445F00F0B08023EA3B
:102C10006E03524221EA0451C3EB6E0338BF5B1EC0
:102C2000DCF1200E25D322FA0CFE10EB0E0043FA45
:102C30000CFE41EB0E01CCF1200E03FA0EFE10EB60
:102C40000E0051F10001CCF1200E29D412FA0EF23F
:102C500001EB0451BDE8104058BF7047401C1CBF39
:102C6000B2F1004F704700280CBF491C20F0010052
:102C7000704712EB020E43EB030218BF4FF0010E38
:102C80004EEA4202ACF1200CDCF11E0E54D943FA9C
:102C90000CFE10EB0E0051F1FF31CCF11E0ED5D51C
:102CA0000EF1010E12FA0EFE404141EB010101EB63
:102CB000445C5FEA5C5C10D910EBDE7001EB045100
:102CC00038BFBEF1004FBDE8104018BF7047002864
:102CD0000CBF491C20F00100704730D24FEAD42CC1
:102CE00011F5001124F400641BD0B1FA81F20B3A03
:102CF000A41AA41ED2F12003914030FA03F3194321
:102D0000904001EBCC71002C01EB0451BDE8104068
:102D1000A8BF704701F1C0414FF0000001F0004131
:102D20007047B0FA80F310FA03F100D110BDE41A35
:102D3000173C4805C90AE4E701EB045110BD4910EE
:102D400001EB0451BDE810404FEA300002E04FF0C3
:102D5000000170474A0008BF0042F8D0B2F5001FDA
:102D600028BF704701F000414FF0000070479EEA15
:102D7000445F07D011EA5E0FBDE8104004BF002198
:102D800000207047BDE8104070B5FFF7CAFE00BFD5
:102D900040DFF63E83F00041104670470000E0FF40
:102DA00041000B0ED3F19E0208D950F400034FEA04
:102DB000032323FA02F048BF4042704710B500F0E9
:102DC0008CF800BF49922480002070476FF00042C9
:102DD00082EA2000704700004FF47F0C1CEAD012FA
:102DE0001EBF1CEAD11392EA0C0F93EA0C0F00F0FD
:102DF000478090EA010F48BF42F480724FF0004CC8
:102E00004CEA00204CEA012102EB0302A0FB011373
:102E1000A2F50002002918BF43F001035B0028BFA0
:102E20004FEA330342EB22425FEA132C4CEBC250D1
:102E30002EBFBCEB436FB2F57C0F70474FEA036CBB
:102E4000BCF1004F08BF20F00100B2F57C0F38BF85
:102E500070470BD582F0FF0212F5803FC8BF704764
:102E600000F1C040D8BF00F00040704700F5000CF2
:102E70005FEA4C0C48BF7047B0F1C04000F073B837
:102E800090EA010F0CEAD11348BF42F48072624508
:102E900038BF634504D280EA010000F0004070476B
:102EA00010B500F01AF800BF8900013E00F007B825
:102EB00000F009B85FEA410C5FEA1C6C08D080EAB8
:102EC000010000F050B85FEA400C5FEA1C6CF6D1DC
:102ED0004FF00040A0F5800070470EF1020E2EF07A
:102EE000030E5EF8044B244204D44FEA4102B2F1CF
:102EF0007F4F11D84FEA4003B3F17F4F0CD80ED16A
:102F00004FEAD07CB2F17F4F0CEB4C0C0CF1020C71
:102F100008BF4CEBD17C04E04FF0080C01E04FEA15
:102F2000D17C0CEB4C0324FA03F404F00704B4F155
:102F3000040C06D20EEB840CBDE810404CF0010CE2
:102F40006047DFE80CF0070802024FF00040A0F5F0
:102F5000800010BD0846420018BFD2F1807288BFC1
:102F600000F0004010BDFF2141EAD050C00570477D
:102F7000902F000800000020380000006C010008BD
:102F8000C82F0008380000205807000088010008FA
:102F900000A24A0400000000000000000102030437
:102FA0000607080900000000000000000000000003
:102FB00000000000000000000102030401020304FD
:082FC0000607080902040608D7
:0400000508000131BD
:00000001FF
